:1000000010B5064C2378002B07D1054B002B02D0EE
:10001000044800E000BF0123237010BD64000020ED
:100020000000000078220000084B10B5002B03D020
:100030000749084800E000BF07480368002B00D1CB
:1000400010BD064B002BFBD09847F9E700000000DD
:1000500068000020782200007822000000000000E4
:100060007047C0467047C046012A05D0022A01D118
:100070000B680360002070470160FBE7F0B5C646DF
:1000800000B51378984600228B5E1B04DA179F1880
:100090009C46C82357403A009B039F4264DD802161
:1000A00049025B0049001E000C009F42F9D800295C
:1000B0005FD00025002B43DB964201D82543921BDD
:1000C0005200640843D0002AF6D16346002B45DB7A
:1000D000434698221F048023390052035B02974253
:1000E00005DD52005B009742FBD8002B44D0002472
:1000F000002F02D10BE0002909D0914201D31C430B
:10010000891A49005B08F6D191425B41E4182D1928
:100110002D042D0C1A4AEB0B6D04AA189542AD4123
:100120006D425B1B120C1B041343164A01339342AE
:1001300002DD80229202D31A036004BC9046F0BD17
:100140009F4201D30D00FA1A5E084C08BBD1002370
:10015000B2425B41ED186346002BB9DA80231B06DF
:100160009D42B5D06D42B3E78024002564021E0095
:10017000A9E780252D06ABE780242406C7E7C04603
:100180000080FFFFFFFF00007047C0467047C04679
:1001900010B504004C220021014B9847200010BDEF
:1001A0008915000010B504004C220021014B98472E
:1001B000200010BD8915000010B50A220A4B03E08B
:1001C00010335A68002A08D01C788C42F8D19968FC
:1001D000DB6841608360026010BD0A230360034B4B
:1001E0004360034B8360F7E7101F00008D010000A0
:1001F00091010000F0B5C64600B5137882B098466C
:1002000000228B5E04001B04DA179E189C4696237E
:10021000564032001B049E4200DCD1E0802149029E
:100220005B0049001D0008009E42F9D8002900D15A
:10023000D1E00027002B00DA9DE0954201D807436A
:10024000521B5200400800D19DE0002AF5D16346C0
:100250003D00002B00DA9FE04346604E9F00F159BD
:100260000B140904080C5E490A005A434143121852
:100270001014120452188A428941C31849425B186B
:10028000D917D813814200D097E0564810180918A2
:100290008A42924152429B1A1B04090C0B430133C0
:1002A000694601A8504F0093B847019B4D49EA1A8F
:1002B0001204120CD30B520451188A42924152423A
:1002C0009B1A090C1B040B43013319141B04CAB2FB
:1002D0001B0C6BD0012A66D00132D2B29200B21848
:1002E000D06C021494460004000C5843FF22802571
:1002F000114089007618F26C6D02ED1A1114120487
:100300006943120C55430A1409044919A942AD4125
:100310006D425219D517D613B54256D1314E8E19AA
:10032000AD19A94289414942521A12042D0C2A439F
:10033000013261464B431D141B041B18834280414C
:1003400040422D18E917E813814241D12548181879
:1003500009188B429B415B42ED1A2B04090C0B439D
:100360000133D218019201A92000B847200002B041
:1003700004BC9046F0BD9E4201D30F00F21A5D0806
:10038000480800D061E70023AA425B41FF1863469A
:100390003D00002B00DB5FE780231B069F4200D15E
:1003A0005AE77D4258E7002094469FE7FF33194003
:1003B00089007618F36C0193D5E780231B066FE75D
:1003C0008020002740021D003FE780221206B0E790
:1003D00080231B06C5E780252D063DE7901F000002
:1003E000333300000080FFFFA904000010B50A4B62
:1003F00084B00393094B009202936946084B0400B2
:100400009847029B002B03D0032269466846984711
:10041000200004B010BDC046F5010000ED0700004B
:100420003507000010B50A4B84B00393094B0092C6
:1004300002936946084B04009847029B002B03D0A7
:100440000322694668469847200004B010BDC046A4
:100450007D0000006900000035070000F0B5C646C9
:100460000F4B104F9846431CFF333E0000249C4620
:1004700000B54C3662463B00002511780132A1429E
:1004800001DD19680D430433B342F6D14246A3009F
:10049000AA430134C250402CECD104BC9046F0BDBC
:1004A000FF0FCF01E41F00000B6803607047C046D8
:1004B000F0B5DE46574645464E468024E0B5150069
:1004C0008BB013680700079108A809A90993FFF7E3
:1004D000EBFF089B6402E41A2B6809A908A809939A
:1004E000FFF7E2FF23141A002404230C0593089B52
:1004F000002419141B041B0C06919B469246B84617
:100500000CE0802109060132B04201D0802212069F
:1005100043468918195104344C2C5ED04346059D3E
:100520001B5928001A1419045346090C50434B4315
:10053000C31850466943424318141B0410185B1833
:10054000421C994200D802002749D5175918501E5D
:10055000D713691884468B429B41E81B46424641AB
:100560005B421E4200D06246079B090C1B59069E47
:1005700012040A431814049259461A043300120C48
:1005800041435343CB18594670434A4319141B0443
:1005900040189B18411C9A4200D80100124AC81703
:1005A0009A18821801924A1E0392019ACE1393421E
:1005B0009B41821B5B42029313005A425A41130033
:1005C000029A134200D00399019B09041A0C0A43B2
:1005D000BD4296D10499013195E70BB03CBC9046E1
:1005E0009946A246AB46F0BD0080FFFFF0B54546F8
:1005F0004E46DE465746E0B53C4DABB02E788046C1
:10060000002E1CD13A4DCC23290017AC04C9EB585D
:1006100020009847C4222B68AA5801332B609342CC
:100620005AD243462AA904CC04C38C42FBD140468B
:100630002BB03CBC90469946A246AB46F0BDCC23BD
:100640002B4E9946310004A804C9F3589847294F06
:100650004B46390017AC04C9FB5820009847C42208
:100660003368B25801333360934201D300233360BF
:10067000C4223B68BA5801333B60934201D3002344
:100680003B606B689946AB6848469B461A4B9A4656
:10069000984701905846D047184B011C019898473D
:1006A0008F21174BC9059847FC21164B89059847A0
:1006B000154B984703AA0390210004A8FFF7F8FE02
:1006C0004B4601336B609B4508D9424604AB02CBD5
:1006D00002C2A342FBD1AAE72E60A2E70B4BD022B5
:1006E00039003000984700232B70EEE7800000208F
:1006F000CC0200209C030020851E0000751900001C
:10070000051C000051160000451E00007715000072
:1007100080B584B000AF78600023FB60FA687B6826
:100720009A4204D2C046FB680133FB60F6E7BD463F
:1007300004B080BDF0B5C64600B50D0084B0164BC0
:100740004C2200218046984702ABDE1C0023337008
:10075000AB68002B1DD047460124EB68320029000E
:1007600003A89847039B08C7AB683470002B10D0D0
:10077000EB683200290003A898470134039BE4B2D8
:10078000019308C7132CEFD1404604B004BC904637
:10079000F0BD024B9847C04689150000A511000026
:1007A00070B504000D004C220021054B9847220033
:1007B000230029684C3202C39342FCD1200070BD53
:1007C000891500007047C046012A05D0022A01D1D0
:1007D0000B680360002070470160FBE77047C0466C
:1007E000012A00D1016000207047C046012A05D0CF
:1007F000022A01D10B680360002070470160FBE70B
:10080000F0B5DE46574645464E46E0B5504B8DB0F6
:10081000504C0D000B934C224F4B002107000390CE
:100820000A9498474C23984600239A462B88A8445C
:10083000A3461A1E01934DD012046B889146002ADC
:1008400000D177E01B04DA179C469B1853404A46B8
:10085000D11752184A40934200D86EE080214902D5
:1008600052004900140008009342F9D8002961D0D1
:100870000026002A02DA53E0002B06D0A34201D35F
:1008800006431B1B5B004008F6D15246A34252416F
:10089000B61862464B465A403CD45B460696002B3F
:1008A00054D00B9B06AA08A905A802939847059B5C
:1008B000019A3B606B8801339BB293420CDA6B80E8
:1008C00004350437454516D00A9B9B462B881A1ED3
:1008D0000193B1D10026E0E753466B80C82306A9F7
:1008E0000693C833079308001C4B984728800435AB
:1008F0000437A845E8D10A9B002B03D008A903229E
:100900000800984703980DB03CBC90469946A24613
:10091000AB46F0BD80231B069E42BED07642BCE7AC
:10092000934201D30E009B1A54084808ADD0002B07
:10093000A4D1AEE780263606AFE71400002B03D023
:1009400080200026400299E700269EE7044B984746
:10095000D90B0000E107000089150000090F000015
:10096000A51100004C23F0B54F464646D6469A46A0
:100970007C339946C833C0B50400984600270E4E14
:1009800082B082444B4600934346694601936846D1
:10099000B04785B26B1E9BB20097019369466846CB
:1009A000B047258060800434A245EBD102B01CBC66
:1009B00090469946A246F0BD090F000010B50A4BBB
:1009C00084B00393094B009202936946084B0400DC
:1009D0009847029B002B03D003226946684698473C
:1009E000200004B010BDC046250D0000110D000010
:1009F0003507000010B50A4B84B00393094B0092F1
:100A000002936946084B04009847029B002B03D0D1
:100A10000322694668469847200004B010BDC046CE
:100A20002D0A0000C907000035070000F0B5C646D2
:100A300000B5137882B0984600228B5E04001B0438
:100A4000DA179F189C46C82357403A001B049F4260
:100A500000DCADE0802149025B0049001E00080077
:100A60009F42F9D8002900D1ADE00025002B00DA23
:100A70007CE0964201D80543921B5200400800D109
:100A80007CE0002AF5D16346002B00DA7EE0434685
:100A90004E4E9F00F359694601A84D4F0093B84749
:100AA000019B4C4AED1A2D042D0C2B0B2D05AA1879
:100AB0009542AD416D425B1B120C1B041343013385
:100AC00019141B04CAB21B0C6BD00F2A65D001325B
:100AD000D2B29200B218D06C021494460004000CFA
:100AE0005843FF228025114089007618F26C6D0270
:100AF000ED1A111412046943120C55430A14090427
:100B00004919A942AD416D425219D517D613B542C4
:100B100056D1304E8E19AD19A94289414942521A17
:100B200012042D0C2A43013261464B431D141B0451
:100B30001B188342804140422D18E917E813814277
:100B40003BD12448181809188B429B415B42ED1A8F
:100B50002B04090C0B430133D218019201A9200088
:100B6000B847200002B004BC9046F0BD9F4201D3BC
:100B70000D00FA1A5E08480800D082E70023B2424E
:100B80005B41ED186346002B00DB80E780231B06EA
:100B90009D4200D17BE76D4279E70E3A00209446F2
:100BA0009FE7FF33194089007618F36C0193D5E76E
:100BB0008020002540021E0063E780231B06CBE750
:100BC00080221206B0E780252D0660E7382000005D
:100BD000A90400000080FFFFF0B5C646136800B509
:100BE0001904090C4A00521819144B005B18DB0059
:100BF00051135B18040082B0D204D917D813814274
:100C000000D071E03D48101809188A4292415242C2
:100C10009B1A1B04090C0B4301331D141B04EAB27D
:100C20001B0C59D0172A51D001323549D2B292004B
:100C30008A18D668370436145E43320490463F0C57
:100C40003014FF222A40802592008A18D2686D0253
:100C5000ED1A111412046943120C55430A140904C5
:100C60004919A942AD416D425219D517D613B54263
:100C70003DD1224EB4468C446544A9428941494243
:100C8000521A12042D0C2A43013241467B435E184E
:100C90009E42894149424018C317C1138B4229D152
:100CA0001649711859188E42B6417642801B0304CA
:100CB000090C0B430133D218019201A92000114BFA
:100CC0009847200002B004BC9046F0BD00220020EE
:100CD00090460D4F0A49B4E7FF221540084AAD007F
:100CE0005519EB680193E8E7074B0193E5E780228C
:100CF0001206CAE780231B06DDE7C0460080FFFF1F
:100D0000B8200000A9040000333300007047C0463B
:100D1000012A05D0022A01D10B6803600020704728
:100D20000160FBE7F0B5C64600B51378984600228F
:100D30008B5E1B04DA179F189C46962357403A0097
:100D40001B049F4264DD802149025B0049001E00B4
:100D50000C009F42F9D800295FD00025002B43DB0F
:100D6000964201D82543921B5200640843D0002AC2
:100D7000F6D16346002B45DB434698221F048023AF
:100D8000390052035B02974205DD52005B00974237
:100D9000FBD8002B44D00024002F02D10BE0002907
:100DA00009D0914201D31C43891A49005B08F6D14E
:100DB00091425B41E4182D192D042D0C1A4AEB0BBE
:100DC0006D04AA189542AD416D425B1B120C1B04C9
:100DD0001343164A0133934202DD80229202D31A52
:100DE000036004BC9046F0BD9F4201D30D00FA1A87
:100DF0005E084C08BBD10023B2425B41ED1863464C
:100E0000002BB9DA80231B069D42B5D06D42B3E7B3
:100E10008024002564021E00A9E780252D06ABE78B
:100E200080242406C7E7C0460080FFFFFFFF0000C4
:100E30001304D9175A189C46C823F0B54A4083B00A
:100E4000050011001B049A4253DD802040025B0024
:100E500040001F0004009A42F9D8002846D000261E
:100E6000002B2FDB8F4201D82643C91B49006408A1
:100E70002FD00029F6D16346002B31DB33041B0C45
:100E80003614DA0B7600B6185B04F217F1138A42B7
:100E90002CD11A495918521893429B415B42F61AB9
:100EA0003604120C1643164B01369E4202DD802397
:100EB0009B029E1B019601A92800124B984728000F
:100EC00003B0F0BD9A4201D30600D11A5F0844086E
:100ED000CFD10023B9425B41F6186346002BCDDA2F
:100EE00080231B069E4201D07642C7E78026360645
:100EF000E0E78024002664021F00BAE70080FFFFBD
:100F0000FFFF0000A1070000F0B54E46DE46574641
:100F10004546E0B54A680B6887B0D31A8946019305
:100F20001900624B0290994248D80D00604B013580
:100F3000290060489A46984703006B439C468023EB
:100F40008046E3465C4CE1580433E7583B003A00E6
:100F50000E330A3A019200D4019B9B00BA00E318B9
:100F6000A018006A1B6A45181E1A761AB446802615
:100F70007604711A081AC018AB4200D36046AB421F
:100F80009B41A2185B420137106219000022172F03
:100F900000D83A0017008345D8D9802163508423B4
:100FA0004146E250D04703004A461068181807B07F
:100FB0003CBC90469946A246AB46F0BD3D4B99429B
:100FC00049D00B0E039300239846803384279B4619
:100FD000394C43460493039B04A902980593FFF7F9
:100FE00093FF0A23E1595B420006CB1831D49B00E2
:100FF000E3185A461B6A8D009C466319A2581B6A67
:1010000092469A18944514D36246D31A52465E46C5
:101010009B1A002265190131A2512B62172916D99A
:101020004246E251019AC3189A42D2D39842D0D88C
:10103000BAE7802256465204921BD31A5E4601221A
:10104000634465190131A2512B621729E8D8E15197
:10105000E8E71833CBE78423174CE5588E3BEB18B1
:1010600022D49B00E318AE00186AA3191A6A8023E1
:10107000E158531898420DD3831A5B1A002180223D
:10108000A6190135A1503362172D0AD900218422F7
:10109000A15089E780235B045B1A9B1A1B1801216E
:1010A000EDE70432A5507FE71833DAE7FEFFFF00D3
:1010B00015140000FFFFFF004C040020F0B5DE46D1
:1010C00057464E464546E0B5294C2A4B83B0201D75
:1010D000C022002198460A279847C423264EE7508D
:1010E000264D0433E6500433E550254CC022200041
:1010F00000215430C04780228A2394465B00E75089
:101100000433E6500433E5501E4B1E4E63449B46A9
:101110001D4B1E4C9A461E4B1E4F99461E4B2036A9
:10112000984620001D49D047454620004D431B49A5
:10113000C84778431A4A2B1AAC18241A854200D3A0
:101140001C0023021B0A08C65E45EAD10D4B0D495F
:10115000DB6F01935A42534180228B50002284233B
:10116000CA5003B03CBC90469946A246AB46F0BD7F
:10117000CC0200208915000061000000A5010000DC
:101180004C0300204C0400202115000097D32D01B2
:1011900015140000B32F00004E9C0000A4D10000E5
:1011A000ABFFFF7F10B500F0DFF900000123214AFB
:1011B0001168194200D113601F4A1168194200D109
:1011C000136001231D4A1168194200D113601C4AA3
:1011D0001168194200D1136001231A4A116819429B
:1011E00000D11360184A1168194200D1136001231D
:1011F000164A1168194200D11360154A1168194244
:1012000000D113600123134A1168194200D1136001
:10121000114A1168194200D1136001230F4A116865
:10122000194200D113600E4A1168194200D11360AF
:101230007047C04600050020FC040020F804002090
:10124000F4040020F0040020EC040020E804002056
:10125000E4040020E0040020DC040020D804002086
:10126000D40400200123164A1168194200D11360EA
:10127000144A1168194200D113600123124A1168FF
:10128000194200D11360114A1168194200D113604C
:1012900001230F4A1168194200D113600D4A1168E9
:1012A000194200D1136001230B4A1168194200D181
:1012B00013600A4A1168194200D113607047C04692
:1012C000200500201C050020180500201405002022
:1012D000100500200C050020080500200405002052
:1012E0000123164A1168194200D11360144A11688B
:1012F000194200D113600123124A1168194200D12A
:101300001360114A1168194200D1136001230F4A7A
:101310001168194200D113600D4A1168194200D1B9
:10132000136001230B4A1168194200D113600A4A65
:101330001168194200D113607047C0464005002073
:101340003C05002038050020340500203005002031
:101350002C05002028050020240500200123214A17
:101360001168194200D113601F4A1168194200D157
:10137000136001231D4A1168194200D113601C4AF1
:101380001168194200D1136001231A4A11681942E9
:1013900000D11360184A1168194200D1136001236B
:1013A000164A1168194200D11360154A1168194292
:1013B00000D113600123134A1168194200D1136050
:1013C000114A1168194200D1136001230F4A1168B4
:1013D000194200D113600E4A1168194200D11360FE
:1013E0007047C046700500206C050020680500208D
:1013F00064050020600500205C05002058050020E1
:1014000054050020500500204C0500204805002010
:1014100044050020002243088B4274D303098B4209
:101420005FD3030A8B4244D3030B8B4228D3030CB4
:101430008B420DD3FF22090212BA030C8B4202D356
:101440001212090265D0030B8B4219D300E0090A7E
:10145000C30B8B4201D3CB03C01A5241830B8B4287
:1014600001D38B03C01A5241430B8B4201D34B0370
:10147000C01A5241030B8B4201D30B03C01A5241D5
:10148000C30A8B4201D3CB02C01A5241830A8B425A
:1014900001D38B02C01A5241430A8B4201D34B0243
:1014A000C01A5241030A8B4201D30B02C01A5241A7
:1014B000CDD2C3098B4201D3CB01C01A524183095B
:1014C0008B4201D38B01C01A524143098B4201D395
:1014D0004B01C01A524103098B4201D30B01C01AC0
:1014E0005241C3088B4201D3CB00C01A524183083A
:1014F0008B4201D38B00C01A524143088B4201D367
:101500004B00C01A5241411A00D2014652411046C6
:101510007047FFE701B5002000F006F802BDC046A5
:101520000029F7D076E770477047C0461C21012399
:101530001B04984201D3000C10391B0A984201D3B6
:10154000000A08391B09984201D30009043902A294
:10155000105C40187047C0460403020201010101FB
:10156000000000000000000010B5062000F03EF86A
:10157000012000F06BF8002310B59A4200D110BD95
:10158000CC5CC4540133F8E703008218934200D1C5
:10159000704719700133F9E770B504000D001F2979
:1015A00004D9162303600120404270BD436C002B18
:1015B00004D08A009B181A68002A08D1200000F085
:1015C00031F82A000100200000F01AF8EDE70020B1
:1015D000012AEAD0511C03D1162301302360E4E72D
:1015E000002428001C6090472000DEE710B5034B64
:1015F00001001868FFF7D0FF10BDC04600000020B2
:10160000002370B5064C050008001100236000F0AF
:1016100015F8431C03D12368002B00D02B6070BD4C
:101620007405002010B500F001F810BD582201200B
:10163000014B40421A607047740500205822012077
:10164000014B40421A60704774050020FEE7C04617
:10165000F0B5C6464E024702760A7B0A4400C50F23
:10166000F7004800984600B5240E2A00DB00000E63
:10167000C90FBC468D4267D0221A002A00DCA5E0C3
:1016800000283AD1002F00D193E0511E002900D04C
:10169000BCE00124DB1B5A0146D59B019E093000AA
:1016A000FFF744FF05388640844200DD9DE0041BBF
:1016B000320020200134E240041BA64033005E1EAD
:1016C000B341002413435A0704D00F221A40042ABE
:1016D00000D004335A0129D50134FF2C00D181E018
:1016E0002A009B015B0AE4B25B02E405580AD207B8
:1016F0002043104304BC9046F0BDFF2CE3D0802172
:101700003800C904084384461B2A00DD82E02020FB
:101710006146D140821A604690400200501E8241CC
:101720000A439B1A5A01B8D45A07CED1DE082A00C0
:10173000FF2C3AD1002E00D1AEE08023DB033343EF
:101740005B025B0AFF24CFE7211A002952DD002843
:1017500031D0FF2CB7D080203E00C0040643B446F1
:101760001B2900DDAAE020266046C840711A6646A3
:101770008E4031004E1EB14101435B185901D3D553
:101780000134FF2C00D187E0012278491A405B0820
:101790000B40134397E7002C00D0A7E0002B00D0AC
:1017A000B6E03B1E62D10026002273025B0AE4B25F
:1017B0009AE7140087E7002F4DD0481E002857D124
:1017C000634401245A01AFD50224DDE7002A24D165
:1017D000621CD2B2012ADEDDDE1B720135D5FE1A93
:1017E0000D005CE72A0000237EE73300604A241ADC
:1017F000134068E7002963D1611CC8B201284EDD9F
:10180000FF2949D063445B080C005CE7FF2A41D004
:101810000A0079E701229B1A84E7002C1DD0FF28DB
:1018200022D08024E404524223431B2A00DD8AE0B4
:101830001C002025D440AA1A93405A1E93412343EA
:1018400062460400D31A0D0025E7002E00D026E7DB
:1018500000220024A9E70C0035E7002B4DD0D2432D
:10186000002AEDD0FF28E0D16346FF240D002AE7CF
:10187000FF290FD0010073E7002B61D0FF24002F58
:1018800000D120E780224146D203114202D0164205
:1018900000D13B00FF2416E7FF24002324E7002C9F
:1018A000EAD1002B58D0002F00D10CE763445A0135
:1018B00000D439E72E4A0C00134004E701215CE70D
:1018C000002C1ED1002B40D0C94300290BD0FF288B
:1018D00036D01B2947DC1C002026CC40711A8B40D7
:1018E000591E8B4123436344040047E7002B18D162
:1018F0003B1E2DD00D00FF24E5E63B0004000D004B
:10190000E1E6FF281CD08024E40449422343E0E7B9
:10191000002F00D1D7E6DE1B72011FD5FB1A0D0088
:10192000D1E6FF24002F00D1CDE680224046D2032D
:101930001042AFD01642ADD13B000D00FF24C2E6ED
:101940006346FF24BFE601237AE73B000400BAE6C2
:1019500080260022F603F0E63B00B4E6331E00D0FA
:10196000E2E6002221E70123BDE7C046FFFFFF7D3D
:10197000FFFFFFFBF0B557464E46DE464546E0B555
:1019800044024300C60F83B00F1C640A1B0EB2460C
:1019900053D0FF2B27D08022E400D20414437F22AF
:1019A000524290469844002399469B467D02780017
:1019B000FB0F6D0A000E009324D0FF2846D0802331
:1019C0000021ED00DB041D437F384746381A4F469F
:1019D0000F43BF00B9463300009A874F53404A4631
:1019E000BA5801939746002C4ED108239946F733F5
:1019F0009846FD3B9B467D027800FB0F6D0A000E6A
:101A00000093DAD1002D26D1002001213300009A65
:101A10007A4F53404246101A4A460A439200BA5837
:101A20001D009746009B2C009A468B465B46022B76
:101A300031D15346FF21002438E0002C17D1042374
:101A400099460023984601339B46AFE7FF20002DBF
:101A50000BD10221DAE72800FFF768FD431F9D4004
:101A600076235B42181A0021AFE70321ADE720007F
:101A7000FFF75CFD431F9C4076235B421B1A984690
:101A8000002399469B4691E70C239946F3339846E9
:101A9000FC3B9B468AE7032B00D1A5E05546012B72
:101AA00000D081E00123002100242B406402C905FD
:101AB000600ADB070843184303B03CBC90469946D4
:101AC000A246AB46F0BD80240023E403FF21EDE7EE
:101AD000FF210024EAE70123591A1B2966DD019A38
:101AE000134000210024E1E78023DB031C4238D0AF
:101AF0001D4251D01C436402640A3300FF21D5E724
:101B000063016C01A3423BD21B2600210138012551
:101B10001F0049005B00002F01DB9C4201D81B1B0A
:101B20002943013E002EF3D11C00631E9C410C434F
:101B300001007F310029CEDD630704D00F2323404D
:101B4000042B00D00434230103D501002C4B803139
:101B50001C40FE290DDD0123019AFF2113400024C2
:101B6000A4E78023DB031C436402640A3300FF21E3
:101B70009CE70123019AA401640AC9B2134095E7C6
:101B80001B1B1A260121C2E7009B8B469A460024A4
:101B90004CE76302E5D500258024E4032C4364026E
:101BA000640A009BFF2181E70195C1E72300202003
:101BB000CB40411A8C40611E8C411C43630704D00A
:101BC0000F232340042B00D00434630105D50123E7
:101BD000019A01211340002468E70123019AA4011E
:101BE000640A1340002161E78023DB031C43640285
:101BF000640A5346FF2159E784210000C4210000F4
:101C0000FFFFFFF7F8B557464E464546DE46E0B5BE
:101C10004702460088467F0A360EC40F002E47D082
:101C2000FF2E24D0FB008027FF041F43002399468A
:101C30009A467F3E43465D025800DB0F6D0A000E58
:101C4000984643D0FF283BD0EB0080250022ED04CE
:101C50001D437F383618731C41469B464B466140F6
:101C600013430F2B64D875489B00C3589F46002F21
:101C700042D108239946063BFF269A46DAE74146B9
:101C8000022A28D0032A00D1CEE0012A00D0ACE0FD
:101C9000114000200022CCB24002D205400AE407E5
:101CA000104320433CBC90469946A246AB46F8BD43
:101CB000002F15D104239946033B00269A46B9E725
:101CC000FF200222002DC5D00322C3E7002D19D129
:101CD00000200122BEE70124FF220C400020DBE7A8
:101CE0003800FFF723FC7626431F9F4000237642EF
:101CF000361A99469A469DE70C239946093BFF26DA
:101D00009A4697E72800FFF711FC431F9D40762372
:101D10005B42181A00229DE780200024C003FF22A6
:101D2000BAE73D005246ABE73D0021005246A7E727
:101D30003B0C9C462A04120C2B0C14006046654692
:101D40003F043F0C7C4342435D437B43270C9B187D
:101D5000FF18BA4203D980235B029C4665442404E1
:101D60003A04240C121993015C1EA3413F0C920EFD
:101D70007D191A43AD0115432B0104D501235E469D
:101D80006A081D40154332007F32002A25DD6B07AB
:101D900004D00F232B40042B00D004352B0103D596
:101DA0003200274B80321D40FE2A94DC0124A8011A
:101DB000400AD2B20C406FE78020C003074207D030
:101DC000054205D128434002400A4446FF2263E70A
:101DD00038434002400AFF225EE70124A31A1B2B6E
:101DE00005DD0C400022002056E75E46CBE72A00C6
:101DF0002020DA40C31A9D402B005D1EAB411343E7
:101E00005A0704D00F221A40042A00D004335A0182
:101E100004D5012401220C4000203DE701249B0150
:101E2000580A0C40002237E780200124C0032843D1
:101E30004002400A0C40FF222EE7C0460422000068
:101E4000FFFFFFF741024300C20F490A1B0E0020AB
:101E50007E2B0DDD9D2B0CDC802000040143952B97
:101E60000ADC9620C31AD9404842002A00D1080053
:101E70007047034BD018FBE7963B9940F4E7C04608
:101E8000FFFFFF7F10B5041E27D0FFF74FFB9E23F7
:101E90001B1A962B0ADC9622D21A94406402640A1A
:101EA000DBB26402DB05600A184310BD992B17DC16
:101EB0009922D21A002A27DD94402200134C1440A4
:101EC000510704D00F210A40042A00D004346201D3
:101ED00012D4A401640ADBB2E3E700230024E0E7A4
:101EE000B9222100D21A91400A00511E8A410521CF
:101EF000091ACC401443DBE7044B1C409F23A40188
:101F00001B1A640ADBB2CCE72200D7E7FFFFFFFB16
:101F1000000000000A0000008D0100009101000097
:101F20000200000096000000C5070000BD09000087
:101F300003000000C8000000DD070000F5090000F4
:101F4000040000009600000065000000ED030000A2
:101F500005000000C80000000D0D0000310E00005B
:101F6000060000002C0100006509000001080000C7
:101F7000010000003200000089010000250400007B
:101F80000000000000000000000000000000000051
:101F9000E4380000ABAA00008EE30000ABAA00000A
:101FA000E43800000000000055550000398E0000A4
:101FB000ABAA0000398E000055550000E43800003F
:101FC000C7710000398E0000398E0000C771000013
:101FD0005555000055550000C77100000000010074
:101FE0003333000001000000080000004000000042
:101FF00000020000000001000000080002000000D4
:10200000100000008000000000040000000002003A
:10201000000040000400000020000000000100005B
:102020000008000000000400000080000000000123
:10203000060304020500000000000000AB2A0000B7
:102040005555000000800000ABAA000055D50000E7
:1020500000000000AB2A0000555500000080000081
:10206000ABAA000055D50000551500000040000047
:10207000AB6A00005595000000C00000ABEA00000C
:102080000000000000000100CDCC000033B30000D0
:102090009A99000000800000CD4C0000333300000E
:1020A000CD4C000000400000CD4C00003333000058
:1020B000CD4C0000008000009A99000033B300006E
:1020C000CDCC000033330000008000000080000011
:1020D000008000000000010000800000008000007F
:1020E0000080000000800000CD4C00000080000057
:1020F000008000000080000066E600000080000014
:1021000000800000008000000080000000800000CF
:10211000CD4C000000800000CD4C0000008000008D
:10212000008000000000000000000000000000002F
:10213000000000000000000000000000000000009F
:10214000000000000000000000000000000000008F
:10215000000000000000000000000000000000007F
:10216000000000000000000000000000000000006F
:10217000000000000000000000000000000000005F
:1021800000000000001B0000D01A0000E21A00004E
:10219000241A0000E21A0000C61A0000E21A000029
:1021A000241A0000D01A0000D01A0000C61A00003D
:1021B000241A00002C1A00002C1A00002C1A00000F
:1021C000E81A0000D01A0000D01A0000A41A00007B
:1021D000881B0000A41A0000C61A0000A41A000000
:1021E000881B0000D01A0000D01A0000C61A000098
:1021F000881B00002C1A00002C1A00002C1A00006A
:10220000921B0000301D0000801C0000801C00009C
:102210007E1C0000221D0000221D0000181D000071
:102220007E1C0000221D0000181D0000221D000061
:102230007E1C0000281D0000281D0000281D000035
:10224000B81D0000F8B5C046F8BC08BC9E467047F3
:1022500029000000BD100000AD1100006512000053
:10226000E11200005D130000F8B5C046F8BC08BCE0
:082270009E46704701000000CA
:102278000400002000000000442100006421000048
:102288002421000000000000000000000000000001
:102298000000000000000000000000000000000036
:1022A8000000000000000000000000000000000026
:1022B8000000000000000000000000000000000016
:1022C8000000000000000000000000000000000006
:0422D8000000000002
:00000001FF
