:1000000010B5064C2378002B07D1054B002B02D0EE
:10001000044800E000BF0123237010BD64000020ED
:10002000000000007C300000084B10B5002B03D00E
:100030000749084800E000BF07480368002B00D1CB
:1000400010BD064B002BFBD09847F9E700000000DD
:10005000680000207C3000007C30000000000000C0
:100060007047C046012A05D0022A01D10B680360FF
:10007000002070470160FBE77047C046012A00D1AD
:10008000016000207047C046012A00D101600020B5
:100090007047C046F0B5DE46574645464E46E0B589
:1000A000504B8DB0504C0D000B934C224F4B002108
:1000B000070003900A9498474C23984600239A46D9
:1000C0002B88A844A3461A1E01934DD012046B88B6
:1000D0009146002A00D177E01B04DA179C469B1852
:1000E00053404A46D11752184A40934200D86EE016
:1000F0008021490252004900140008009342F9D8B7
:10010000002961D00026002A02DA53E0002B06D035
:10011000A34201D306431B1B5B004008F6D15246A5
:10012000A3425241B61862464B465A403CD45B4605
:100130000696002B54D00B9B06AA08A905A802938B
:100140009847059B019A3B606B8801339BB29342B1
:100150000CDA6B8004350437454516D00A9B9B4664
:100160002B881A1E0193B1D10026E0E753466B801D
:10017000C82306A90693C833079308001C4B984769
:10018000288004350437A845E8D10A9B002B03D00A
:1001900008A903220800984703980DB03CBC90467C
:1001A0009946A246AB46F0BD80231B069E42BED0B8
:1001B0007642BCE7934201D30E009B1A54084808CC
:1001C000ADD0002BA4D1AEE780263606AFE71400F1
:1001D000002B03D080200026400299E700269EE7EE
:1001E000044B9847690400007D0000005D1E00007C
:1001F00095070000791A00004C23F0B54F4646469B
:10020000D6469A467C339946C833C0B50400984612
:1002100000270E4E82B082444B4600934346694607
:1002200001936846B04785B26B1E9BB2009701935D
:1002300069466846B047258060800434A245EBD10A
:1002400002B01CBC90469946A246F0BD950700003E
:1002500010B50A4B84B00393094B00920293694690
:10026000084B04009847029B002B03D003226946E9
:1002700068469847200004B010BDC046B105000094
:100280009D0500000915000010B50A4B84B00393CA
:10029000094B009202936946084B04009847029B61
:1002A000002B03D00322694668469847200004B01B
:1002B00010BDC046C1020000650000000915000025
:1002C000F0B5C64600B5137882B0984600228B5E22
:1002D00004001B04DA179F189C46C82357403A00B5
:1002E0001B049F4200DCABE0802149025B00490017
:1002F0001E0008009F42F9D8002900D1ABE000257C
:10030000002B00DA7BE0964201D80543921B520095
:10031000400800D17BE0002AF5D16346002B00DACB
:100320007DE043464D4E9F00F359694601A84C4F6E
:100330000093B847019B4B4AED1A2D042D0C2B0B53
:100340002D05AA189542AD416D425B1B120C1B0492
:10035000134301331A141B0491B21B0C6AD00F29EA
:1003600064D0511CC9B289007118C86C01148C4644
:100370000004000C584380251204920BB618F26C4E
:100380006D02ED1A111412046943120C55430A143C
:1003900009044919A942AD416D425219D517D61326
:1003A000B54255D12F4E8E19AD19A9428941494206
:1003B000521A12042D0C2A43013261464B431D147C
:1003C0001B041B188342804140422D18E917E81393
:1003D00081423AD12348181809188B429B415B424D
:1003E000ED1A2B04090C0B430133D218019201A919
:1003F0002000B847200002B004BC9046F0BD9F42E8
:1004000001D30D00FA1A5E08480800D083E70023E4
:10041000B2425B41ED186346002B00DB81E780238D
:100420001B069D4200D17CE76D427AE70E39002021
:100430008C46A0E71204920BB618F36C0193D6E732
:100440008020002540021E0065E780231B06CCE7C4
:1004500080221206B1E780252D0662E7E42700001E
:10046000C91000000080FFFFF0B5C646136800B554
:100470001904090C4A00521819144B005B18DB00D0
:1004800051135B18040082B0D204D917D8138142EB
:1004900000D06FE03C48101809188A42924152423D
:1004A0009B1A090C1B040B4301331A141B0491B251
:1004B0001B0C58D0172950D0511C344DC9B289009B
:1004C0006918CE68370436145E43310488463F0C01
:1004D00030141204920BAA188025D2686D02ED1A0E
:1004E000111412046943120C55430A1409044919E2
:1004F000A942AD416D425219D517D613B5423CD130
:10050000214EB4468C446544A94289414942521A5D
:1005100012042D0C2A43013241467B435E189E4251
:10052000894149424018C317C1138B4228D116494B
:10053000711859188E42B6417642801B0304090C8B
:100540000B430133D218019201A92000104B9847A8
:10055000200002B004BC9046F0BD00210020884677
:100560000C4F0A4DB5E71204930B084AD218D36812
:100570000193E9E780239B02F7E780221206CBE78D
:1005800080231B06DEE7C0460080FFFF64280000D2
:10059000C9100000333300007047C046012A05D05F
:1005A000022A01D10B680360002070470160FBE75D
:1005B000F0B5C64600B51378984600228B5E1B0442
:1005C000DA179F189C46962357403A001B049F4217
:1005D00064DD802149025B0049001E000C009F423F
:1005E000F9D800295FD00025002B43DB964201D8C3
:1005F0002543921B5200640843D0002AF6D163467B
:10060000002B45DB434698221F0480233900520308
:100610005B02974205DD52005B009742FBD8002B3E
:1006200044D00024002F02D10BE0002909D09142D0
:1006300001D31C43891A49005B08F6D191425B4102
:10064000E4182D192D042D0C1A4AEB0B6D04AA1871
:100650009542AD416D425B1B120C1B041343164ABD
:100660000133934202DD80229202D31A036004BC5C
:100670009046F0BD9F4201D30D00FA1A5E084C0867
:10068000BBD10023B2425B41ED186346002BB9DABF
:1006900080231B069D42B5D06D42B3E78024002520
:1006A00064021E00A9E780252D06ABE780242406FE
:1006B000C7E7C0460080FFFFFFFF00001304D91703
:1006C0005A189C46C823F0B54A4083B00500110073
:1006D0001B049A4253DD802040025B0040001F0053
:1006E00004009A42F9D8002846D00026002B2FDBC0
:1006F0008F4201D82643C91B490064082FD0002926
:10070000F6D16346002B31DB33041B0C3614DA0BB5
:100710007600B6185B04F217F1138A422CD11A49FD
:100720005918521893429B415B42F61A3604120C38
:100730001643164B01369E4202DD80239B029E1B10
:10074000019601A92800124B9847280003B0F0BD7C
:100750009A4201D30600D11A5F084408CFD1002382
:10076000B9425B41F6186346002BCDDA80231B06A5
:100770009E4201D07642C7E780263606E0E7802415
:10078000002664021F00BAE70080FFFFFFFF0000A1
:1007900075150000F0B54E46DE4657464546E0B5B5
:1007A0004A680B6887B0D31A894601931900624BD7
:1007B0000290994248D80D00604B013529006048ED
:1007C0009A46984703006B439C4680238046E34645
:1007D0005C4CE1580433E7583B003A000E330A3AC8
:1007E000019200D4019B9B00BA00E318A018006A94
:1007F0001B6A45181E1A761AB44680267604711AAA
:10080000081AC018AB4200D36046AB429B41A21805
:100810005B420137106219000022172F00D83A00FE
:1008200017008345D8D98021635084234146E25084
:10083000D04703004A461068181807B03CBC9046E1
:100840009946A246AB46F0BD3D4B994249D00B0EAE
:10085000039300239846803384279B46394C4346B4
:100860000493039B04A902980593FFF793FF0A23BF
:10087000E1595B420006CB1831D49B00E3185A467D
:100880001B6A8D009C466319A2581B6A92469A18EF
:10089000944514D36246D31A52465E469B1A0022F0
:1008A00065190131A2512B62172916D94246E2512E
:1008B000019AC3189A42D2D39842D0D8BAE780227C
:1008C00056465204921BD31A5E46012263446519B0
:1008D0000131A2512B621729E8D8E151E8E718331A
:1008E000CBE78423174CE5588E3BEB1822D49B00B2
:1008F000E318AE00186AA3191A6A8023E158531846
:1009000098420DD3831A5B1A00218022A619013563
:10091000A1503362172D0AD900218422A15089E702
:1009200080235B045B1A9B1A1B180121EDE704323C
:10093000A5507FE71833DAE7FEFFFF00E91C00004F
:10094000FFFFFF0000020020F0B5DE4657464E468E
:100950004546E0B5294C2A4B83B0201DC02200211A
:1009600098460A279847C423264EE750264D04335D
:10097000E6500433E550254CC022200000215430BD
:10098000C04780228A2394465B00E7500433E65038
:100990000433E5501E4B1E4E63449B461D4B1E4CBC
:1009A0009A461E4B1E4F99461E4B203698462000F5
:1009B0001D49D047454620004D431B49C847784351
:1009C0001A4A2B1AAC18241A854200D31C002302A1
:1009D0001B0A08C65E45EAD10D4B0D49DB6F01933A
:1009E0005A42534180228B5000228423CA5003B0C4
:1009F0003CBC90469946A246AB46F0BD8000002024
:100A00005D1E0000D90E0000F50E00000001002060
:100A100000020020F51D000097D32D01E91C000005
:100A2000B32F00004E9C0000A4D10000ABFFFF7F5D
:100A3000012A05D0022A01D10B680360002070470B
:100A40000160FBE7012A05D0022A01D10B6803608F
:100A5000002070470160FBE77047C046F0B5DE46F6
:100A6000574645464E46E0B5514B8DB0514C0D00B2
:100A70000B934C22504B0021070003900A94984797
:100A80004C23984600239A462B88A844A3461A1E56
:100A900001934DD012046B889146002A00D178E072
:100AA0001B04DA179C469B1853404A46D11752182C
:100AB0004A40934200D86FE0802149025200490029
:100AC000140008009342F9D8002962D00026002AB9
:100AD00002DA54E0002B06D0A34201D306431B1BCD
:100AE0005B004008F6D15246A3425241B618624616
:100AF0004B465A403DD45B460696002B55D00B9B87
:100B000006AA08A905A802939847059B019A3B608D
:100B10006B8801339BB293420CDA6B800435043747
:100B2000454517D00A9B9B462B881A1E0193B1D1CD
:100B30000026E0E753466B800A230693F733FF3322
:100B400006A9079308001D4B9847288004350437F1
:100B5000A845E7D10A9B002B03D008A9032208006F
:100B6000984703980DB03CBC90469946A246AB46C8
:100B7000F0BD80231B069E42BDD07642BBE7934268
:100B800001D30E009B1A54084808ACD0002BA3D107
:100B9000ADE780263606AEE71400002B03D0802098
:100BA0000026400298E700269DE7054B9847C0467F
:100BB000210C0000890000005D1E00009507000068
:100BC000791A00004C23F0B54F464646D6469A4661
:100BD000423B9946F733FF33C0B5040098460027DF
:100BE0000E4E82B082444B460093434669460193C1
:100BF0006846B04785B26B1E9BB200970193694669
:100C00006846B047258060800434A245EBD102B02D
:100C10001CBC90469946A246F0BDC0469507000010
:100C2000136810B51A04120C1B14110A1B025B186E
:100C3000040082B01206D917D81381422AD117486E
:100C4000101809188A42924152429B1A1B04090C3F
:100C50000B4301331B0C9B00114A1048D25813144C
:100C600012045108DA0752185B101018D917091826
:100C70008A42924152429B1A0A4A090C94461B042A
:100C80000B436344019301A92000074B98472000C0
:100C900002B010BD80239B02DEE7C0460080FFFF4C
:100CA000D028000001400000C9100000F0B5C64681
:100CB00000B5137882B0984600228B5E04001B04B6
:100CC000DA179E189C469623564032001B049E421B
:100CD00000DCCFE0802149025B0049001D000800D4
:100CE0009E42F9D8002900D1CFE00027002B00DA7E
:100CF0009CE0954201D80743521B5200400800D1A6
:100D00009CE0002AF5D163463D00002B00DA9EE00E
:100D100043465F4E9F00F1590B140904080C5D49CE
:100D20000A005A43414312181014120452188A42FE
:100D30008941C31849425B18D917D813814200D0A2
:100D400095E05548101809188A42924152429B1A60
:100D50001B04090C0B430133694601A84F4F009354
:100D6000B847019B4C49EA1A1204120CD30B5204E7
:100D700051188A42924152429B1A090C1B040B43A0
:100D800001331A141B0491B21B0C6AD0012965D0DF
:100D9000511CC9B289007118C86C01148C4600043A
:100DA000000C584380251204920BB618F26C6D02A9
:100DB000ED1A111412046943120C55430A14090464
:100DC0004919A942AD416D425219D517D613B54202
:100DD00055D1314E8E19AD19A94289414942521A55
:100DE00012042D0C2A43013261464B431D141B048F
:100DF0001B188342804140422D18E917E8138142B5
:100E000040D12548181809188B429B415B42ED1AC6
:100E10002B04090C0B430133D218019201A92000C5
:100E2000B847200002B004BC9046F0BD9E4201D3FA
:100E30000F00F21A5D08480800D062E70023AA42BA
:100E40005B41FF1863463D00002B00DB60E7802319
:100E50001B069F4200D15BE77D4259E700208C468C
:100E6000A0E71204920BB618F36C0193D6E7802327
:100E70001B0671E78020002740021D0041E7802209
:100E80001206B1E780231B06C6E780252D063FE743
:100E9000D02C0000333300000080FFFFC910000099
:100EA00010B50A4B84B00393094B00920293694634
:100EB000084B04009847029B002B03D0032269468D
:100EC00068469847200004B010BDC046AD0C000035
:100ED000450A0000091500007047C0467047C0462B
:100EE00010B504004C220021014B9847200010BD92
:100EF0005D1E000010B504004C220021014B9847F4
:100F0000200010BD5D1E00004C23F0B54F46464644
:100F1000D6469A464533FF339946C833C0B50400D8
:100F2000984600270E4E82B082444B4600934346BB
:100F3000694601936846B04785B26B1E9BB2009725
:100F4000019369466846B047258060800434A24515
:100F5000EBD102B01CBC90469946A246F0BDC046FB
:100F60009507000010B50A220A4B03E010335A68B7
:100F7000002A08D01C788C42F8D19968DB6841605F
:100F80008360026010BD0A230360034B4360034B80
:100F90008360F7E7242D0000DD0E0000E10E000065
:100FA000F0B54F464646D646C0B53D4EA8B0377858
:100FB0000500002F1BD13B4ECC23310015AC04C9DA
:100FC000F35820009847C4223368B2580133336085
:100FD00093425AD22B0028A904CC04C38C42FBD1E3
:100FE000280028B01CBC90469946A246F0BDCC23F0
:100FF0002C4F9946390002A804C9FB5898472A4B40
:101000004846190015AC04C998461B58200098475B
:10101000C4223B68BA5801333B60934201D300239A
:101020003B60434642461B68414601331360C4227D
:101030008A58934201D300230B601C4B7068994679
:1010400098478246B068C847194B011C50469847DC
:101050008F21184BC9059847FC21174B89059847E4
:10106000164B984701AA0190154B210002A89847FA
:101070007368B26801337360934208D22A0002ABEE
:1010800002CB02C2A342FBD1AAE73760A2E70D4B15
:10109000D02241463800984700233370EEE7C0461F
:1010A0008802002080000020500100205927000005
:1010B00049220000D9240000251F00001927000044
:1010C000991500004B1E00000B6803607047C04676
:1010D000F0B5DE4657464E4645460C008346E0B521
:1010E000BB4DB1B026000895AA465D46B94B0292A9
:1010F00009934C220021B84B984727884C36B146BB
:101100000195002F54D03A0463889346002A00D1F9
:10111000A5E11B04DA179C469B1853405A46D11789
:1011200052184A40934200D89CE180214902520063
:101130004900160008009342F9D80091002900D117
:101140008DE100218846002A34DB424601E0002B75
:1011500006D0B34201D302439B1B5B004008F6D18B
:10116000904600210022B3424A41594690446246CB
:1011700043464A402DD404935346002B00D186E1C8
:10118000099B1DAE04AA06A93000009398471D9B39
:101190002B60638801339BB2BB4220DA6380043446
:1011A00004354C452BD0089B27889A46002FAAD19E
:1011B0000023E0E7934201D380469B1A5608009A29
:1011C0005008CED0002BC0D16246594643464A4013
:1011D000D1D5802212069342CDD05B42CBE70023CB
:1011E0006380C8235B001D93C833736031003000F7
:1011F0007A4B9847208004340435A145D3D1019B14
:1012000035009B46089B4E46002B03D006A90322BF
:1012100008009847724B0AACEB60724B4C22984620
:10122000AB6000216C4B200098475A463388C34678
:1012300027001DAD03929846002B5ED04246120453
:1012400073889246002A00D106E11B04DA17019345
:101250009B1853405246D11752184A40934200D827
:1012600007E18021AC464902520010004900934238
:10127000FAD80092624684461500081E00D1EBE0C1
:10128000002291466246002A00DAD6E062464946CC
:1012900001E0002B06D0934201D301439B1A5B006F
:1012A0004008F6D1944689460022002160468342D8
:1012B0004A4191445146019A4B464A4000D5B5E017
:1012C00005935B46002B00D1E1E0EB6805AA2900FD
:1012D00006A89847069B00933B60738801339BB236
:1012E00043450CDA043773800436BD4217D0AB682F
:1012F0009B4633889846002BA0D10023E0E70023CB
:10130000738028230693D933FF3306A90793080077
:10131000324B9847043730800436BD42E7D1039BF7
:101320009B46AB68002B03D0032229002800984776
:10133000029B06A906932C4B280009932B4BAA4627
:1013400008932B4B98470020225853461714120439
:10135000110C0D001B581E141B041B0C1A007543A6
:10136000AC467A434B437E43624417141204F61989
:10137000D218711C934200D831001E4BCE17D318DF
:101380009C46CF134B1EB444984662459241F31BD2
:101390005D425D4152420B00154200D04346624619
:1013A0001B04120C13430133BE4201D080231B06E1
:1013B000235004304C28C7D1089B002B03D006A92A
:1013C0000322080098478020002240025D4617E073
:1013D000D9160000551900005D1E00009507000099
:1013E000D1180000E5160000F1160000310A0000D7
:1013F000091500000080FFFFA95004324C2A0DD0CF
:10140000AB58A65800219B19F6D419008342F3DD8E
:1014100080214902A95004324C2AF1D1280031B070
:101420003CBC90469946A246AB46F0BD80221206CF
:10143000934200D144E75B4242E7634501D38946CA
:101440009B1A009A480852089446002800D12BE7BE
:10145000002B00D01AE72DE780231B0630E78023FE
:101460001B0688E61600002B0ED0802000224002CA
:101470006FE6944600229146002B00D114E78020AD
:1014800062464002494606E70022904669E6014B63
:101490009847C046791A0000F0B5C6460F4B104F6A
:1014A0009846431CFF333E0000249C4600B54C3652
:1014B00062463B00002511780132A14201DD196826
:1014C0000D430433B342F6D14246A300AA4301348C
:1014D000C250402CECD104BC9046F0BDFF0FCF01B0
:1014E000B42D000080B584B000AF78600023FB60AD
:1014F000FA687B689A4204D2C046FB680133FB60FD
:10150000F6E7BD4604B080BDF0B5C64600B50D0097
:1015100084B0164B4C2200218046984702ABDE1C5B
:1015200000233370AB68002B1DD047460124EB68C5
:101530003200290003A89847039B08C7AB683470A2
:10154000002B10D0EB683200290003A89847013423
:10155000039BE4B2019308C7132CEFD1404604B0BB
:1015600004BC9046F0BD024B9847C0465D1E00008B
:10157000791A000070B504000D004C220021054BC3
:1015800098472200230029684C3202C39342FCD1C1
:10159000200070BD5D1E0000F0B5DE465746454692
:1015A0004E468024E0B516008BB013680700079103
:1015B000474D09A908A80993A847089B6402E41AA3
:1015C000336809A908A80993A84723141A0024041A
:1015D000230C0593089B002419141B041B0C069173
:1015E0009B469246B8460CE0802109060132B04283
:1015F00001D08022120643468918195104344C2C1C
:101600005ED04346059D1B5928001A141904534601
:10161000090C50434B43C3185046694342431814C6
:101620001B0410185B18421C994200D8020029497B
:10163000D5175918501ED713691884468B429B4101
:10164000E81B464246415B421E4200D06246079B71
:10165000090C1B59069E12040A4318140492594699
:101660001A043300120C41435343CB1859467043BC
:101670004A4319141B0440189B18411C9A4200D875
:101680000100144AC8179A18821801924A1E039240
:10169000019ACE1393429B41821B5B42029313003B
:1016A0005A425A411300029A134200D00399019BF7
:1016B00009041A0C0A43BD4296D10499013195E7F9
:1016C0000BB03CBC90469946A246AB46F0BDC04626
:1016D000C91000000080FFFF012A00D10160002036
:1016E0007047C046012A00D1016000207047C04603
:1016F000F0B5C64600B5137882B09C460023CF5E95
:1017000080463F04FB17FE185E40962332005B04C0
:101710009E4200DCC4E0802149025B0049001D00BC
:1017200008009E42F9D8002900D1C4E00024002B13
:1017300000DA94E0954201D80443521B520040085D
:1017400000D194E0002AF5D12500002F00DA96E0C0
:1017500063465A4A9B009A585949131412044B4342
:10176000120C51431A141B045B188B4289415548D3
:10177000494252181818D11709188B429B415B42F5
:10178000D21A090C12040A430132694601A84E4ECE
:101790000092B047019B4B49EA1A1204150CEA006B
:1017A000521B5313D20451188A42924152429B1A3F
:1017B000090C1B040B4301331A141B0491B21B0CBC
:1017C00068D0372962D0511C404DC9B28900685891
:1017D00007140004000C58431204920BAA588025E9
:1017E0006D02ED1A111412046943120C55430A14C8
:1017F00009044919A942AD416D425219D517D413B4
:10180000A54255D12F4CA4468C446544A942894138
:101810004942521A12042D0C2A4301327B431D14F3
:101820001B041B188342804140422D18E917E8131E
:1018300081423AD12348181809188B429B415B42D8
:10184000ED1A2B04090C0B430133D218019201A9A4
:101850004046B047404602B004BC9046F0BD9E42B0
:1018600001D30C00F21A5D08480800D06AE7002393
:10187000AA425B41E4182500002F00DB68E78023C3
:101880001B069C4200D163E7654261E70020012707
:101890000E4DA1E712040D4B920BD3580193D6E7DE
:1018A0008020002440021D004CE780231B06CCE76B
:1018B00080221206B2E780252D0649E7D02C0000D1
:1018C0009A1900000080FFFFC9100000082E0000D8
:1018D000136810B51A04120C1B14110A1B025B18B2
:1018E000040082B01206D917D813814228D11648B5
:1018F000101809188A42924152429B1A1B04090C83
:101900000B4301331B0C9B00104A0F48D258131491
:1019100012045108DA0752185B101018D917091869
:101920008A42924152429B1A090C1B040B43013319
:10193000019301A92000064B9847200002B010BD7A
:1019400080239B02E0E7C0460080FFFFD028000014
:10195000C9100000F0B5C646136800B51A04120C91
:101960001B14110B1B015B18040082B01205D91760
:10197000D813814200D070E03C48101809188A4200
:10198000924152429B1A090C1B040B4301331A1457
:101990001B0491B21B0C59D00F2950D0511C344D4F
:1019A000C9B2890069180E6E370436145E433104DB
:1019B00088463F0C30141204920BAA188025126E30
:1019C0006D02ED1A111412046943120C55430A14E6
:1019D00009044919A942AD416D425219D517D613D0
:1019E000B5423DD1214EB4468C446544A94289415B
:1019F0004942521A12042D0C2A43013241467B43BC
:101A00005E189E42894149424018C317C1138B4258
:101A100029D11649711859188E42B6417642801B59
:101A20000304090C0B430133D218019201A92000D1
:101A3000104B9847200002B004BC9046F0BD002136
:101A40008027884600203F02094DB4E71204930B1B
:101A5000074AD218136E0193E8E780239B02F7E749
:101A600080221206CAE780231B06DDE70080FFFF05
:101A7000882E0000C910000010B500F0DFF900004A
:101A80000123214A1168194200D113601F4A1168CD
:101A9000194200D1136001231D4A1168194200D177
:101AA00013601C4A1168194200D1136001231A4ABD
:101AB0001168194200D11360184A1168194200D107
:101AC00013600123164A1168194200D11360154AA8
:101AD0001168194200D113600123134A1168194299
:101AE00000D11360114A1168194200D1136001231B
:101AF0000F4A1168194200D113600E4A1168194249
:101B000000D113607047C046C0020020BC02002014
:101B1000B8020020B4020020B0020020AC02002075
:101B2000A8020020A4020020A00200209C020020A5
:101B300098020020940200200123164A11681942DD
:101B400000D11360144A1168194200D113600123B7
:101B5000124A1168194200D11360114A11681942E2
:101B600000D1136001230F4A1168194200D113609C
:101B70000D4A1168194200D1136001230B4A116804
:101B8000194200D113600A4A1168194200D113604A
:101B90007047C046E0020020DC020020D80200208E
:101BA000D4020020D0020020CC020020C802002075
:101BB000C40200200123164A1168194200D11360A3
:101BC000144A1168194200D113600123124A1168A6
:101BD000194200D11360114A1168194200D11360F3
:101BE00001230F4A1168194200D113600D4A116890
:101BF000194200D1136001230B4A1168194200D128
:101C000013600A4A1168194200D113607047C04638
:101C100000030020FC020020F8020020F402002053
:101C2000F0020020EC020020E8020020E402002084
:101C30000123214A1168194200D113601F4A11681B
:101C4000194200D1136001231D4A1168194200D1C5
:101C500013601C4A1168194200D1136001231A4A0B
:101C60001168194200D11360184A1168194200D155
:101C700013600123164A1168194200D11360154AF6
:101C80001168194200D113600123134A11681942E7
:101C900000D11360114A1168194200D11360012369
:101CA0000F4A1168194200D113600E4A1168194297
:101CB00000D113607047C046300300202C03002081
:101CC0002803002024030020200300201C03002000
:101CD0001803002014030020100300200C03002030
:101CE0000803002004030020002243088B4274D321
:101CF00003098B425FD3030A8B4244D3030B8B420D
:101D000028D3030C8B420DD3FF22090212BA030C15
:101D10008B4202D31212090265D0030B8B4219D3F6
:101D200000E0090AC30B8B4201D3CB03C01A524116
:101D3000830B8B4201D38B03C01A5241430B8B425E
:101D400001D34B03C01A5241030B8B4201D30B0347
:101D5000C01A5241C30A8B4201D3CB02C01A52416E
:101D6000830A8B4201D38B02C01A5241430A8B4231
:101D700001D34B02C01A5241030A8B4201D30B021A
:101D8000C01A5241CDD2C3098B4201D3CB01C01A34
:101D9000524183098B4201D38B01C01A524143093E
:101DA0008B4201D34B01C01A524103098B4201D32C
:101DB0000B01C01A5241C3088B4201D3CB00C01A99
:101DC000524183088B4201D38B00C01A5241430811
:101DD0008B4201D34B00C01A5241411A00D2014636
:101DE000524110467047FFE701B5002000F006F8A9
:101DF00002BDC0460029F7D076E770477047C0465D
:101E00001C2101231B04984201D3000C10391B0A2A
:101E1000984201D3000A08391B09984201D30009EE
:101E2000043902A2105C40187047C0460403020245
:101E300001010101000000000000000010B50620B3
:101E400000F03EF8012000F06BF8002310B59A4234
:101E500000D110BDCC5CC4540133F8E703008218F4
:101E6000934200D1704719700133F9E770B504004F
:101E70000D001F2904D9162303600120404270BDC4
:101E8000436C002B04D08A009B181A68002A08D1E2
:101E9000200000F031F82A000100200000F01AF8BC
:101EA000EDE70020012AEAD0511C03D116230130AE
:101EB0002360E4E7002428001C6090472000DEE750
:101EC00010B5034B01001868FFF7D0FF10BDC046E6
:101ED00000000020002370B5064C0500080011002A
:101EE000236000F015F8431C03D12368002B00D0B9
:101EF0002B6070BD3403002010B500F001F810BD58
:101F000058220120014B40421A60704734030020E0
:101F100058220120014B40421A60704734030020D0
:101F2000FEE7C046F0B5C6464E024702760A7B0A77
:101F30004400C50FF7004800984600B5240E2A005B
:101F4000DB00000EC90FBC468D4267D0221A002A62
:101F500000DCA5E000283AD1002F00D193E0511E0B
:101F6000002900D0BCE00124DB1B5A0146D59B01AF
:101F70009E093000FFF744FF05388640844200DDAB
:101F80009DE0041B320020200134E240041BA640E7
:101F900033005E1EB341002413435A0704D00F22BE
:101FA0001A40042A00D004335A0129D50134FF2CE9
:101FB00000D181E02A009B015B0AE4B25B02E405E8
:101FC000580AD2072043104304BC9046F0BDFF2CB2
:101FD000E3D080213800C904084384461B2A00DD71
:101FE00082E020206146D140821A60469040020083
:101FF000501E82410A439B1A5A01B8D45A07CED1C7
:10200000DE082A00FF2C3AD1002E00D1AEE080235A
:10201000DB0333435B025B0AFF24CFE7211A00296D
:1020200052DD002831D0FF2CB7D080203E00C00404
:102030000643B4461B2900DDAAE020266046C840BE
:10204000711A66468E4031004E1EB14101435B1845
:102050005901D3D50134FF2C00D187E00122784902
:102060001A405B080B40134397E7002C00D0A7E011
:10207000002B00D0B6E03B1E62D100260022730286
:102080005B0AE4B29AE7140087E7002F4DD0481EA0
:10209000002857D1634401245A01AFD50224DDE75B
:1020A000002A24D1621CD2B2012ADEDDDE1B7201BD
:1020B00035D5FE1A0D005CE72A0000237EE73300C9
:1020C000604A241A134068E7002963D1611CC8B232
:1020D00001284EDDFF2949D063445B080C005CE712
:1020E000FF2A41D00A0079E701229B1A84E7002CDD
:1020F0001DD0FF2822D08024E404524223431B2A0F
:1021000000DD8AE01C002025D440AA1A93405A1E04
:102110009341234362460400D31A0D0025E7002EA5
:1021200000D026E700220024A9E70C0035E7002BA9
:102130004DD0D243002AEDD0FF28E0D16346FF24E2
:102140000D002AE7FF290FD0010073E7002B61D0B3
:10215000FF24002F00D120E780224146D203114204
:1021600002D0164200D13B00FF2416E7FF240023D3
:1021700024E7002CEAD1002B58D0002F00D10CE727
:1021800063445A0100D439E72E4A0C00134004E797
:1021900001215CE7002C1ED1002B40D0C94300294F
:1021A0000BD0FF2836D01B2947DC1C002026CC4052
:1021B000711A8B40591E8B4123436344040047E747
:1021C000002B18D13B1E2DD00D00FF24E5E63B006F
:1021D00004000D00E1E6FF281CD08024E4044942FD
:1021E0002343E0E7002F00D1D7E6DE1B72011FD5A5
:1021F000FB1A0D00D1E6FF24002F00D1CDE680228E
:102200004046D2031042AFD01642ADD13B000D0084
:10221000FF24C2E66346FF24BFE601237AE73B00C2
:102220000400BAE680260022F603F0E63B00B4E69E
:10223000331E00D0E2E6002221E70123BDE7C046BD
:10224000FFFFFF7DFFFFFFFBF0B557464E46DE4622
:102250004546E0B544024300C60F83B00F1C640A34
:102260001B0EB24653D0FF2B27D08022E400D204AD
:1022700014437F22524290469844002399469B463D
:102280007D027800FB0F6D0A000E009324D0FF281A
:1022900046D080230021ED00DB041D437F384746F4
:1022A000381A4F460F43BF00B9463300009A874F94
:1022B00053404A46BA5801939746002C4ED1082302
:1022C0009946F7339846FD3B9B467D027800FB0F0D
:1022D0006D0A000E0093DAD1002D26D100200121D5
:1022E0003300009A7A4F53404246101A4A460A4336
:1022F0009200BA581D009746009B2C009A468B46C8
:102300005B46022B31D15346FF21002438E0002CDC
:1023100017D1042399460023984601339B46AFE723
:10232000FF20002D0BD10221DAE72800FFF768FD1E
:10233000431F9D4076235B42181A0021AFE703211B
:10234000ADE72000FFF75CFD431F9C4076235B4216
:102350001B1A9846002399469B4691E70C23994601
:10236000F3339846FC3B9B468AE7032B00D1A5E05C
:102370005546012B00D081E00123002100242B4091
:102380006402C905600ADB070843184303B03CBC7C
:1023900090469946A246AB46F0BD80240023E40354
:1023A000FF21EDE7FF210024EAE70123591A1B2949
:1023B00066DD019A134000210024E1E78023DB035E
:1023C0001C4238D01D4251D01C436402640A3300C1
:1023D000FF21D5E763016C01A3423BD21B260021FC
:1023E000013801251F0049005B00002F01DB9C42E2
:1023F00001D81B1B2943013E002EF3D11C00631E94
:102400009C410C4301007F310029CEDD630704D0DD
:102410000F232340042B00D00434230103D50100F3
:102420002C4B80311C40FE290DDD0123019AFF2138
:1024300013400024A4E78023DB031C436402640AE6
:102440003300FF219CE70123019AA401640AC9B269
:10245000134095E71B1B1A260121C2E7009B8B4600
:102460009A4600244CE76302E5D500258024E40366
:102470002C436402640A009BFF2181E70195C1E7B8
:1024800023002020CB40411A8C40611E8C411C430C
:10249000630704D00F232340042B00D004346301CE
:1024A00005D50123019A01211340002468E7012387
:1024B000019AA401640A1340002161E78023DB0331
:1024C0001C436402640A5346FF2159E7882F000029
:1024D000C82F0000FFFFFFF7F8B557464E464546A8
:1024E000DE46E0B54702460088467F0A360EC40F36
:1024F000002E47D0FF2E24D0FB008027FF041F436F
:10250000002399469A467F3E43465D025800DB0F02
:102510006D0A000E984643D0FF283BD0EB00802583
:102520000022ED041D437F383618731C41469B463C
:102530004B46614013430F2B64D875489B00C3582A
:102540009F46002F42D108239946063BFF269A4614
:10255000DAE74146022A28D0032A00D1CEE0012A38
:1025600000D0ACE0114000200022CCB24002D205E5
:10257000400AE407104320433CBC90469946A246DB
:10258000AB46F8BD002F15D104239946033B002626
:102590009A46B9E7FF200222002DC5D00322C3E7E7
:1025A000002D19D100200122BEE70124FF220C409A
:1025B0000020DBE73800FFF723FC7626431F9F400F
:1025C00000237642361A99469A469DE70C2399468F
:1025D000093BFF269A4697E72800FFF711FC431FA7
:1025E0009D4076235B42181A00229DE7802000243C
:1025F000C003FF22BAE73D005246ABE73D00210091
:102600005246A7E73B0C9C462A04120C2B0C1400E4
:10261000604665463F043F0C7C4342435D437B4339
:10262000270C9B18FF18BA4203D980235B029C46F3
:10263000654424043A04240C121993015C1EA3413E
:102640003F0C920E7D191A43AD0115432B0104D5A1
:1026500001235E466A081D40154332007F32002A7E
:1026600025DD6B0704D00F232B40042B00D004354D
:102670002B0103D53200274B80321D40FE2A94DC0B
:102680000124A801400AD2B20C406FE78020C003A9
:10269000074207D0054205D128434002400A44467C
:1026A000FF2263E738434002400AFF225EE701242D
:1026B000A31A1B2B05DD0C400022002056E75E46C6
:1026C000CBE72A002020DA40C31A9D402B005D1E74
:1026D000AB4113435A0704D00F221A40042A00D0FA
:1026E00004335A0104D5012401220C4000203DE7A7
:1026F00001249B01580A0C40002237E78020012466
:10270000C00328434002400A0C40FF222EE7C04687
:1027100008300000FFFFFFF741024300C20F490AE3
:102720001B0E00207E2B0DDD9D2B0CDC8020000479
:102730000143952B0ADC9620C31AD9404842002A4F
:1027400000D108007047034BD018FBE7963B994037
:10275000F4E7C046FFFFFF7F10B5041E27D0FFF748
:102760004FFB9E231B1A962B0ADC9622D21A94400A
:102770006402640ADBB26402DB05600A184310BD20
:10278000992B17DC9922D21A002A27DD94402200C7
:10279000134C1440510704D00F210A40042A00D0E2
:1027A0000434620112D4A401640ADBB2E3E700231B
:1027B0000024E0E7B9222100D21A91400A00511EFC
:1027C0008A410521091ACC401443DBE7044B1C4025
:1027D0009F23A4011B1A640ADBB2CCE72200D7E7CF
:1027E000FFFFFFFB00000000AB2A00005555000072
:1027F00000800000ABAA000055D5000000000000DA
:10280000AB2A00005555000000800000ABAA000074
:1028100055D500005515000000400000AB6A0000CF
:102820005595000000C00000ABEA00000000000069
:1028300000000100CDCC000033B300009A990000E5
:1028400000800000CD4C000033330000CD4C000070
:1028500000400000CD4C000033330000CD4C0000A0
:10286000008000009A99000033B30000CDCC000036
:102870003333000000800000008000000080000072
:1028800000000100008000000080000000800000C7
:1028900000800000CD4C000000800000008000009F
:1028A0000080000066E6000000800000008000005C
:1028B000008000000080000000800000CD4C00007F
:1028C00000800000CD4C000000800000008000006F
:1028D000997A0000FC6900007523000041F20000B5
:1028E00054C400005F9900008E360000F51A000005
:1028F000B23D00001B5F0000149E00005C7F0000E2
:1029000060E50000285F0000EEFB0000546300005B
:102910008689000049DE000079490000AEC600004B
:10292000CDFB00007E3D000059F6000074D500008C
:10293000048600004CA7000005340000DCC600003F
:10294000648D0000C5BE0000234B000025E600009A
:10295000BE110000E5500000C7EA0000F6280000A4
:10296000E71D000048510000A0CA0000A08A000036
:10297000B1210000B93C000042BE000052E8000056
:10298000716C0000E474000036AD0000519B000043
:1029900098AD0000DB09000042CF00000A6700008C
:1029A0007CF20000575B0000152D0000B2ED000026
:1029B00095E5000066760000AE3700002B1700009A
:1029C0006F210000F1030000B2BE00008FB30000D1
:1029D000B82E000066F60000210F0000A2B500002E
:1029E000984C0000DAAB000062C10000A7C90000EB
:1029F00098DD0000E96800006C190000ED5D000042
:102A00009A97000041020000970F0000AF350000C8
:102A1000AEF700007EBD0000F3AF0000CCFF000069
:102A200061C2000065190000B6C30000E248000062
:102A3000F59A00006677000067050000356E00001B
:102A4000F56B0000449900005CAF0000143F0000EB
:102A500015DC0000AAB10000341100007C11000058
:102A6000B7C20000FB8B00006821000086990000BF
:102A70004FEF000034210000E6FF00007D2E000033
:102A8000B0A2000066C70000ECBF000039060000DD
:102A90003954000015FC0000EC610000FFF100005B
:102AA000E1EB0000B7820000677400001BBD00006E
:102AB000923C000059760000CC2D0000F724000065
:102AC000BA4B0000D171000042CE00004C1700004C
:102AD000144E000027D200009AD900002F7D00007C
:102AE0005D4E00007F0B0000BF4D0000CEB800001F
:102AF0000308000077BE000064EC000098BC0000F2
:102B0000DCA700002E300000468600007D4000005B
:102B1000866800002D430000DAFC00004ACC00006B
:102B200055D000005D6C00001902000033D4000095
:102B3000302A0000D5E90000A11800003C0E00007A
:102B400010FA000056AD000070EF00007F4B00004F
:102B50001F040000C8180000C8D7000095740000CA
:102B60007F9900002D020000DBA90000A64B0000A9
:102B70000C3200009D810000024A0000ECC1000000
:102B8000077F00005EBB0000B4580000F99F000002
:102B9000C383000018B60000EB23000096C30000BA
:102BA000BEBF0000D5A70000EB020000594700009F
:102BB000E77B000086080000E3770000784B000008
:102BC000C02C00003D4A00002BB60000375A000020
:102BD000DE230000AF44000074F6000063CE000066
:102BE0002E0000006EB30000F4BD000052990000FA
:102BF00009BA00000C22000044890000A4B00000C3
:102C0000DFCF000062F00000AE880000775E0000B9
:102C10008350000020610000F0B7000024D70000BE
:102C20008F1200008A1F00000E6F0000B4390000F0
:102C3000CC9D0000DEB30000B25D0000D6F50000C0
:102C4000293B0000DBF90000815500005EAA00006E
:102C50006C680000FACD000045180000FEB50000C9
:102C600051CA0000D8B00000A09A00006192000094
:102C7000E9780000F9C0000077BE00009EBF0000A8
:102C8000A60B0000A9F400003F9500004B4A00008D
:102C90001C8C0000E06C0000022A0000AAA00000CA
:102CA00050BD0000F5FB00004850000085DC00002E
:102CB0005B520000771E00002E9000005B33000086
:102CC000A5BD00000A180000B96C00003A620000BF
:102CD000E4380000ABAA00008EE30000ABAA0000BD
:102CE000E43800000000000055550000398E000057
:102CF000ABAA0000398E000055550000E4380000F2
:102D0000C7710000398E0000398E0000C7710000C5
:102D10005555000055550000C77100000000010026
:102D200033330000000000000A000000DD0E000048
:102D3000E10E0000020000009600000061000000AB
:102D40005102000003000000C800000079000000EC
:102D5000890200000400000096000000590A0000EB
:102D6000A10E000005000000C80000009905000049
:102D7000BD060000060000002C010000F901000063
:102D800095000000070000002C010000C50B0000AA
:102D90005D0A0000010000002C010000090F000086
:102DA000D110000000000000000000000000000042
:102DB00000000000010000000800000040000000CA
:102DC00000020000000001000000080002000000F6
:102DD000100000008000000000040000000002005D
:102DE000000040000400000020000000000100007E
:102DF0000008000000000400000080000000000146
:102E000001070603040205000000010000000100A4
:102E100000000100CDCC00009A9900000080000065
:102E200066660000CD4C0000CD4C0000333300003E
:102E3000333300009A1900009A1900009A19000013
:102E40000000000000000000000000000000000082
:102E50000000000000000000000000000000000072
:102E60000000000000000000000000000000000062
:102E70000000000000000000000000000000000052
:102E80000000000000000000000000000000000042
:102E90000000000000000000000000000000000032
:102EA0000000000000000000000000000000000022
:102EB0000000000000000000000000000000000012
:102EC0000000000000000000000000000000000002
:102ED00000000000000000000000000000000000F2
:102EE00000000000000000000080000033B300007C
:102EF0009A99000066660000008000006666000087
:102F000033B300009A990000008000009A990000F5
:102F1000008000006666000033B3000066660000B3
:102F20009A990000008000000000000000000000EE
:102F30000000000000000000000000000000000091
:102F40000000000000000000000000000000000081
:102F50000000000000000000000000000000000071
:102F60000000000000000000000000000000000061
:102F70000000000000000000000000000000000051
:102F80000000000000000000D4230000A423000083
:102F9000B6230000F8220000B62300009A230000A8
:102FA000B6230000F8220000A4230000A4230000A0
:102FB0009A230000F82200000023000000230000F4
:102FC00000230000BC230000A4230000A423000071
:102FD000782300005C240000782300009A2300007E
:102FE000782300005C240000A4230000A423000038
:102FF0009A2300005C24000000230000002300004E
:103000000023000066240000042600005425000070
:103010005425000052250000F6250000F62500008A
:10302000EC25000052250000F6250000EC250000EC
:10303000F625000052250000FC250000FC250000BC
:10304000FC2500008C260000F8B5C046F8BC08BC82
:103050009E4670472900000049090000811A0000BF
:10306000391B0000B51B0000311C0000F8B5C0463C
:0C307000F8BC08BC9E4670470100000040
:10307C000400002000000000482F0000682F000012
:10308C00282F0000000000000000000000000000DD
:10309C000000000000000000000000000000000024
:1030AC000000000000000000000000000000000014
:1030BC000000000000000000000000000000000004
:1030CC0000000000000000000000000000000000F4
:0430DC0000000000F0
:00000001FF
