:10000000D8150020090100000501000005010000CD
:1000100000000000000000000000000000000000E0
:1000200000000000000000000000000005010000CA
:10003000000000000000000005010000A5160000FF
:100040000501000005010000050100000501000098
:10005000ED0A000005010000050100000501000097
:10006000050100000501000005010000000000007E
:1000700000000000A90F00000501000005010000BC
:10008000E10B000005010000050100000000000078
:10009000000000000501000005010000050100004E
:1000A0000501000010B5064C2378002B07D1054B45
:1000B000002B02D0044800E000BF0123237010BDD4
:1000C00068000020000000003C4D0000084B10B507
:1000D000002B03D00749084800E000BF0748036829
:1000E000002B00D110BD064B002BFBD09847F9E741
:1000F000000000006C0000203C4D00003C4D000062
:1001000000000000FEE700001148124970B5884267
:1001100004D00023104CCA18A24213D300210F4B65
:100120000F4A934212D3FF210E4B0F4A8B43936029
:1001300080230E4A51680B4353600D4B98470D4B7B
:100140009847FEE7C55804331560E4E702C3E8E7C3
:100150003C4D0000000000206800002068000020E6
:10016000D40500200000000000ED00E00040004148
:1001700091400000DD180000014A024B1A607047F0
:1001800040420F0000000020054A030C1B0493426C
:1001900005D1C2B2034B000AC0B21A705870704742
:1001A000000014A5840000200222014B5A60704711
:1001B00084000020F8B50700084E094D094C402185
:1001C0003800B047A847FA204000A0473800002177
:1001D000B047A847FA204000A047F0E7010E000012
:1001E000310E000039160000F0B5C6463A4B00B596
:1001F00098473A4B98473A4B98473A4B98473A4B6F
:1002000098473A4B98473A4B984700285FD0394B6C
:1002100098469847002853D10A24374B0020984726
:10022000C0474021354DA847354F364E402112205A
:10023000A847B847C820B04700211220A847013C72
:10024000B847C820B047002CF0D1C047002806D0DE
:10025000002100202C4B984704BC9046F0BD2B4D4C
:100260000321A8472A4CFF2120700020A847607076
:100270003220B0472278274B60781343000218439E
:10028000254B9847254B98473220B047244B984739
:10029000002100201C4B98472378224A6178D05CCB
:1002A000C9B25022204B98472000204B0830984775
:1002B0001F4C204D00E0A847A0470128FBD0CBE70A
:1002C0001D481E4B98471E481E4B9847A4E71E4BDF
:1002D00098471E4B9847C046B9140000D51500003A
:1002E000050D00008D0400001D1E0000B91A00005D
:1002F0001509000075090000C50D0000010E000081
:10030000310E000039160000891C0000851600001F
:1003100084000020000014A5810900009D0A00004F
:10032000250A0000B4410000E51C0000B50F0000E4
:10033000511D0000591C000089010000E10A000065
:10034000A9010000D50A000069090000B5010000FC
:10035000F8B52A4B4E469946294B57469A46294BA3
:10036000DE469B46082345469846274CE0B5274E77
:10037000274D284FA044B0476368002B1AD063680C
:10038000012B31D06368022BF5D1234B984700280D
:10039000F1D05A4623786178D05CC9B250221F4B05
:1003A00098470023404663601D4B9847B0476368F9
:1003B000002BE4D14046C8471A4B9842DFD90321AD
:1003C0000020A84723788342F9D02070FF21002025
:1003D000A847607022781448637810431B021843C2
:1003E000B84701236360C6E74046C8470F4B9842B1
:1003F000C8D9D04702236360BDE7C046C50F0000DF
:10040000250A0000B441000084000020591C0000AF
:1004100085160000810900008D0A0000E51C00001F
:10042000B50F00002EEA0000000014A55FEA0000EE
:10043000F0B5C646094B0026984600B5084D094C54
:10044000094FA8476368022BFBD1424623786178A5
:10045000D05CC9B25022B8476660F2E7B4410000F0
:10046000591C000084000020E51C000010B5044B5E
:100470009847002801D1034B9847034B9847C04643
:1004800075090000510300003104000070B500221E
:1004900001210F204F4DA84700210F204E4CA047AF
:1004A000022202211920A84701211920A04740213A
:1004B0004A4A93690B439361494A4A4B53805378A4
:1004C000DB09FCD10121484A13780B4313701378E0
:1004D000DB07FCD45378DB09F9D1B023D1691B04C5
:1004E0000B43D361404A5378DB09FCD13F4B136186
:1004F00080239B01D3603C4A5378DB09FCD1022165
:1005000013780B431370384A5378DB09FCD18023EE
:10051000324A1B01116A0B431362314A344B538038
:100520005378DB09FCD1AC23324ADB001380D37B48
:10053000DB09FCD1043353712E4AD37BDB09FCD198
:10054000A0231B0113832B4AD37BDB09FCD180231F
:100550001B015383274AD37BDB09FCD10121537B49
:100560000B435373234AD37BDB09FCD1022113884D
:100570000B4313801F4AD37BDB09FCD140335371FB
:100580001C4AD37BDB09FCD18021C420FF241A4AFA
:1005900081334902FF33D15080001358A3433F3CBD
:1005A00023431350802311600C4ADB00116A0B4374
:1005B0001362A023114ADB001380D37BDB09FCD13B
:1005C000022113880B4313800C4AD37BDB09FCD137
:1005D00070BDC046E51400003D1500000004004059
:1005E000000C00400340000000180040FFFF000026
:1005F00014400000002C004200E100E0002800420E
:10060000F0B5002183B00F20434B98470022002112
:100610000F20424B98470521414B0F20984732202D
:10062000404FB84701A8404EB047404C404D04E011
:100630004F2101A8A847002855D16378002BF7D196
:100640003C4B3D4A63606368DB0751D48023DB0089
:100650001383D37BDB09FCD180239B005383364A71
:10066000D37BDB09FCD140335371334AD37BDB09A5
:10067000FCD1CF20636840005B086360637801337E
:10068000DBB26370B84701A8B047294D04E04F21A1
:1006900001A8A847002826D16378002BF7D1212391
:1006A00063709023244A5B011383D37BDB09FCD165
:1006B00080235B015383204AD37BDB09FCD1403389
:1006C00053711D4AD37BDB09FCD101A8B047184DFB
:1006D00004E04F2101A8A847002804D16378002B2B
:1006E000F7D1012002E003230020237203B0F0BD04
:1006F000C023DB001383D37BDB09FCD18023DB0029
:1007000053830D4AD37BDB09FCD1403353710A4A32
:10071000D37BDB09FCD1ACE7A5150000E514000094
:100720003D15000039160000B50F000090000020B4
:10073000D90F00000100721B002C0042F0B5CE461C
:10074000474680B583B001A8674FB847674D684EEC
:1007500005E0E12101A84900B047002844D1192053
:10076000A84704000128F4D000210F20614B9847CE
:10077000614B002200210F20994698475F4B0521CD
:100780000F209846984772B6C0231021C120FF243D
:100790005B4A5B00D15080001358A3433F3C234386
:1007A0001350116062B60023564D01A86B61EB60D7
:1007B0006B722B746B72B8474D4E06E0CF2101A8C7
:1007C0004900B047002800D073E06C7AE4B2002CF6
:1007D000F4D06C69FF2322009A434B4B9A420CD011
:1007E000052300242B7202E0464B1C7200242000DB
:1007F00003B00CBC90469946F0BDE3B2AB72013B2E
:100800003E2BEDD801A8B847394E04E04F2101A88E
:10081000B047002826D16B78002BF7D1FF231C406E
:100820003A4B3B4A9C4664446C606B68DB0747D498
:100830008023DB001383D37BDB09FCD180239B0067
:100840005383334AD37BDB09FCD140335371304AA5
:10085000D37BDB09FCD16B685B086B606B78013381
:10086000DBB26B7001A8B847214E04E04F2101A80C
:10087000B047002820D16C78E4B2002CF6D10022D9
:1008800001210F20C84700210F20C047012301A8E4
:100890002B70EC72B847164EEC7AE4B2002CA6D15D
:1008A000E42101A8FF31B0470028F5D004232B72C2
:1008B0009DE702232B729AE7032300242B7296E70D
:1008C000C023DB001383D37BDB09FCD18023DB0057
:1008D00053830F4AD37BDB09FCD1403353710C4A5D
:1008E000D37BDB09FCD1B6E7B50F0000BD150000D6
:1008F000D90F0000A5150000E51400003D1500000B
:1009000000E100E0900000200000721B0100721B5B
:10091000002C004230B5012183B00F200C4B9847CA
:1009200001A80C4B98470C4C0C4D05E0C82101A8C0
:100930004900A847002807D11920A0470028F5D072
:10094000074B984703B030BD064B9847FAE7C046BF
:10095000A5150000B50F0000BD150000D90F00005F
:100960003D07000001060000014B187A7047C046A1
:1009700090000020014B987A7047C04690000020FC
:1009800070B582B00600234B01A89847224C234D36
:1009900004E04F2101A8A847002838D16378002B34
:1009A000F7D1666063681E4ADB071CD48023DB0036
:1009B0001383D37BDB09FCD180239B005383184A2C
:1009C000D37BDB09FCD140335371154AD37BDB0960
:1009D000FCD1012063685B08636063780133DBB29C
:1009E000637002B070BDC023DB001383D37BDB09CF
:1009F000FCD18023DB005383094AD37BDB09FCD184
:100A000040335371064AD37BDB09FCD1E1E7002078
:100A1000E7E7C046B50F000090000020D90F0000A6
:100A2000002C004230B583B001A8144B9847144CF9
:100A3000144D04E04F2101A8A84700281BD163787A
:100A4000002BF7D12123637090230F4A5B0113839E
:100A5000D37BDB09FCD180235B0153830A4AD37B20
:100A6000DB09FCD140335371074AD37BDB09FCD14E
:100A7000012003B030BD0020FBE7C046B50F0000E9
:100A800090000020D90F0000002C0042024B587843
:100A900043425841C0B270479000002030B583B047
:100AA00001A8094B9847094C094D04E04F2101A8C2
:100AB000A847002805D16378002BF7D1012003B0A7
:100AC00030BD0020FBE7C046B50F000090000020BD
:100AD000D90F0000014B98617047C046900000207C
:100AE000014BD8617047C04690000020802370B54C
:100AF000324A9B01116919200B431361304B98470F
:100B0000304C05002378002B1FD12F4A012D23D014
:100B10002E4B5380D37BDB09FCD1138A927B9BB293
:100B2000D20711D41A00C23AFF3A7E2A1ED9284AA7
:100B30009A187E2A21D8E3685A0880231B0613439B
:100B4000E360237C0133237470BD0100214B0F202F
:100B500098471D4A012DDBD140235371D37BDB091C
:100B6000FCD10121937B0B439373EDE7E3685B08B2
:100B7000E360237C01332374E6E7174A9A187E2A40
:100B800006D8237C202B0FD000232374E360DBE7FF
:100B9000124A944663447E2BD6D8A369002B00D01A
:100BA00098470123E372EFE7E3686361012363720F
:100BB000E369002BE8D060699847E5E7001800403A
:100BC000BD15000090000020002800421080FFFFAB
:100BD0003FFCFFFFA51500003FF8FFFF3FF0FFFFC0
:100BE0000121334B01209A7B0A439A73314A517891
:100BF0001F2924DD5178202906D05378202B02DDCF
:100C0000002353705360704751780131C9B251705D
:100C100000215160A02212011A831A00D37BDB0944
:100C2000FCD180231B015383214AD37BDB09FCD1F8
:100C3000403353711E4AD37BDB09FCD1E3E7516893
:100C400008421AD18021C9001983D97BC909FCD176
:100C50008021890059831649CB7BDB09FCD14033C5
:100C60004B711349CB7BDB09FCD153685B085360A4
:100C700053780133DBB25370C5E7C021C900198333
:100C8000D97BC909FCD18021C90059830849CB7B94
:100C9000DB09FCD140334B710549CB7BDB09FCD12F
:100CA00053685B08536053780133DBB25370AAE793
:100CB000002C004290000020F0B5C6460F4B104FAC
:100CC0009846431CFF333E0000249C4600B54C363A
:100CD00062463B00002511780132A14201DD19680E
:100CE0000D430433B342F6D14246A300AA43013474
:100CF000C250402CECD104BC9046F0BDFF0FCF0198
:100D0000B84100008A2210B5234C92000021234BE9
:100D100020009847224B20009847224B22491A680E
:100D20000A431A6099618023204A5B00116A0B43D1
:100D300013621F4A1F4B53805378DB09FCD1C82331
:100D40001D4A9B001380D37BDB09FCD17823FF3342
:100D50001383194AD37BDB09FCD10121537B0B435D
:100D60005373154AD37BDB09FCD1C324134BA40076
:100D70001959134808408021C901014319518021A4
:100D800089011960022113880B4313800A4AD37B1F
:100D9000DB09FCD110BDC046B4000020EB400000D0
:100DA000B90C000000440041FF0FCF0100040040D7
:100DB000000C0040134000000020004200E100E071
:100DC000FF00FFFFF0B54021402800DC011C8A2015
:100DD000002228250124084F084EC9B240007B5D3F
:100DE0006340DBB24343F3189B180133FF330132F6
:100DF0001970132AF3D1F0BDB4020020B400002012
:100E00000200402900DD402128230748C35C01205F
:100E100058408A235B005843044B1818801801304F
:100E2000FF3001707047C046B4020020B4000020BB
:100E300028238A2070B5194C4000E65C273B5E40B1
:100E40007043174D174B281898472C23E35C5B071A
:100E500004D12C210722635C1A42FCD02C210722EA
:100E6000635C1A42FCD12823E654E25CE15C273B38
:100E70005A401433FF335A434B4301320133FF329C
:100E8000FF33AA18EB1813CB13C211001A680A60BB
:100E90009A888A809B798B7170BDC046B40200200D
:100EA000B4000020B90C0000384AF0B54646904620
:100EB0004F46D646302341464C25C0B5C95C344B1D
:100EC0004E009B19C0205D5B28244346314FC0056E
:100ED0003A001C5D0669304BE4B23D831E40D37B73
:100EE000DB09FCD1002933D18A22520062432B4D09
:100EF000C0335159DB0531431961AC186168314386
:100F00001961C046C046C046254FA1683C00314328
:100F10009A461961234B0C3200209946AD185C3477
:100F20007C3700E001CCC847524608CD33431361FB
:100F3000BC42F7D130230C224146CA540121154A44
:100F4000937B0B4393731CBC90469946A246F0BD1D
:100F5000C020220112199200121952180F4C92004F
:100F6000125901311643C005C9B206613F2909DD96
:100F70002C21424644463020525C23540132D3B2E5
:100F80006354DBE730234246D154D7E7B402002054
:100F9000B84100000020004200F030FEB400002004
:100FA000384200001116000010B5014B984710BDE3
:100FB000A90E000010B5024B04009847206010BD38
:100FC0005916000010B50400024B98472368C01A58
:100FD00010BDC0465916000070B50500044B0C004A
:100FE00098472B68C31A0020A3424041C0B270BD8D
:100FF000591600000B6803607047C0460B68126802
:101000009B1A03607047C04670B50A6804681314E1
:10101000251412042404240C120C11002600694328
:101020005E43624389190C14090489189142924164
:101030006B4352421B199B18DA17DC13A2420CD1E6
:10104000074C0C1912199142894149425B1A1B0441
:10105000120C13430133036070BD80231B06FAE7B3
:101060000080FFFF70B512680C6813142514120479
:101070002404240C120C1100260069435E436243D1
:1010800089190C1409048918914292416B43524208
:101090001B199B18DA17DC13A2420CD1074C0C1950
:1010A00012199142894149425B1A1B04120C1343E5
:1010B0000133036070BD80231B06FAE70080FFFF49
:1010C00070B516680D68002E35D0EA17AB1853407E
:1010D000F217B1185140802252028B4205D94900C3
:1010E00052008B42FBD8002A25D00024002907DAC1
:1010F00016E08B4201D314435B1A5B00520801D007
:10110000002BF6D100228B425241A418754001D425
:10111000046070BD80231B069C42F9D06442F7E74F
:101120008B4205D249085208ECD0002BE1D1EDE703
:101130005B1A1400F6E780242406E9E700680A68D1
:101140000123904200DC0023D8B2704700680A688F
:101150000123904200DB0023D8B270470B6812686D
:101160009B1803607047C0460B6803607047C04619
:1011700010B504004C220021014B9847200010BDFF
:10118000EB400000F0B5C64680464646444600B5F2
:101190000F004C220021074B9847074D4C3620008A
:1011A00039000434A847B442F9D1404604BC904603
:1011B000F0BDC046EB40000019190000F0B5CE4666
:1011C000474680B50D0083B0184B4C220021814664
:1011D00098476B46DE1C00233370AB68002B23D08E
:1011E0003200290001A8EB689847114B01A9484635
:1011F000984698474B4601241F1DAB683470002B5E
:1012000012D03200290001A8EB6801349847E4B2FB
:10121000380001A9C0470437132CEED1484603B06B
:101220000CBC90469946F0BD024B9847EB4000003D
:1012300019190000FD3300007047C046F8B50500DD
:101240000024064F064E2800B84701002000013454
:10125000E4B2B0470435132CF5D1F8BDB119000044
:10126000010E0000F0B5CE464746904680B587B0E7
:10127000194F04000D0004A81100B847174E04A927
:1012800005A8B047164B05A901A89847414605A8EF
:10129000B84705A902A8B0474C239946114B124EF6
:1012A0009846124FA144210001AA03A8B047290083
:1012B00002AA04A8B04704AA03A905A8C0472000B1
:1012C00005A90434B84704354C45ECD107B00CBC33
:1012D00090469946F0BDC046F50F00000919000080
:1012E00021190000B9190000011A000019190000A5
:1012F000F8B5070004000D00044E4C37290020000B
:101300000434B0470435BC42F8D1F8BD491A000096
:101310004C23F0B54746CE4699460E4B04000D00CF
:10132000984680B50C4E0D4F83B081442A002100B1
:101330006846C047694601A8B847200001A904349F
:10134000B04704354C45F1D103B00CBC90469946EA
:10135000F0BDC046B9190000191900004D19000070
:101360004C23F0B54746CE4699460E4B04000D007F
:10137000984680B50C4E0D4F83B081442A00210061
:101380006846C047694601A8B847200001A904344F
:10139000B04704354C45F1D103B00CBC904699469A
:1013A000F0BDC046DD190000191900004D190000FC
:1013B0001E213A4A53688B431C390B435360384A09
:1013C000063193690B4301219361364A13780B432D
:1013D00013701378DB0702D55378DB09F9D180212C
:1013E000314A136A8B4313622E4B304A9A60304A5B
:1013F0005A605A78D209FCD18622D2015A80294AF1
:101400005378DB09FCD18021274A938C8B4393844A
:10141000D368DB06FCD5C021D36A09011B0C1B0471
:101420000B438021D362D36AC9049B019B090B4300
:10143000D362D36A1F49194080235B020B43D362F6
:10144000194AD368DB06FCD58123918C9B000B43A2
:101450009384154AD368DB06FCD5802193680B433F
:101460009360936840390B439360936830390B4322
:1014700002219360938C0B4393840B4AD368DB0661
:10148000FCD5094A93681B06FCD593685B06F9D521
:10149000054A9368DB06FCD57047C0460040004112
:1014A00000040040000C0040000800400340000021
:1014B00003060100FFFF00FC074B10B5984700230F
:1014C000064A93605378DB09FCD1054B5360034A0D
:1014D0005378DB09FCD110BDB1130000000C0040B3
:1014E00000070300012330B5834001291BD0114CB4
:1014F000636002290ED004240021002A0ED00E4D74
:101500000C49AC4660440470012A11D0022A00D173
:101510004B6130BD06240221002AF0D1064B9C46C7
:1015200060440170F5E7034904248B600021E4E77F
:101530008B61EEE7004400414044004130B5002992
:1015400022D00239C9B20023052918D9C20713D500
:101550000F210425104CAB40A44642086244147885
:1015600021400B43DBB213700C4B01229C466044BC
:1015700003781343037030BDF0210025EAE7084BE0
:101580005B5CC207F8D5E3E7044B01229C4660444C
:10159000037893430370EEE7304400414044004138
:1015A000B44200000123044A8340002901D0936122
:1015B00070475361FCE7C04600440041020001202F
:1015C0009040034B1B6A1840431E9841C0B27047BD
:1015D00000440041C0200B490B4B0C4A4B60136A7E
:1015E00000061B021B0A0343136200238B600733B0
:1015F0000B608021136A09061B021B0A0B4313624E
:101600007047C04610E000E07FBB000000ED00E046
:1016100080B584B000AF78600023FB60FA687B6817
:101620009A4204D2C046FB680133FB60F6E7C0462D
:10163000BD4604B080BDC046002809D0054A936E5F
:10164000C018936E984203D0C046936E9842FBD167
:101650007047C04618030020014B986E7047C04683
:101660001803002000B583B0009001916A46034939
:101670006846034B984780B203B000BD18030020B2
:10168000B516000000B583B0009001916A46034989
:101690006846034B9847C0B203B000BD1803002052
:1016A000B5160000024A936E013393667047C04638
:1016B00018030020F0B557464546DE464E46130057
:1016C000E0B590461B68526885B0D31A0C000193B0
:1016D0001900594B8246994249D80E000136310013
:1016E000564B5748984780235B049A4601239946F6
:1016F0000023010083469C467143666E0A235B42C9
:10170000F31815D4B50065199B002F68226E1B597C
:10171000D01998420FD8DB1B9B1A6246013622660D
:101720002B60172E11D962466266994210D80026A6
:1017300033000E33E6E75046801A4A46C01BC318F2
:10174000013622662B60172EEDD866669942D5D9F0
:1017500018005946394B984703004246106818183C
:1017600005B03CBC90469946A246AB46F0BD344B12
:1017700099423BD00B0E994600239B465B46029351
:101780004B462100039302AA2E4B504698470A234A
:10179000616E5B420006CB1826D48E009B00A61912
:1017A0001F59226E33689D18AF4210D3FB1A9B1A43
:1017B0005A46013122663360172913D95A466266A8
:1017C000019AC3189A42D9D39842D7D8C5E7802541
:1017D0006D04AA1AD31A0122DB1901312266336083
:1017E0001729EBD86166EBE71833D6E70A23656E55
:1017F0005B42EB181DD4AE00A6199B003268216E27
:101800001859531898420AD3831A00225B1A226689
:1018100001353360172D0AD9002262669DE78023C7
:101820005B045B1A9B1A01221B182266F0E76566AF
:1018300093E71833DFE7C046FEFFFF006D36000078
:10184000FFFFFF00B5160000F0B557464E46DE46D6
:1018500045466022E0B5194E9446330063449B46EA
:10186000174B184C9A46184B184F9946184B83B093
:10187000984620001749D047454620004D4315495A
:10188000C8477843144A2B1AAC18241A854200D34F
:101890001C0023021B0A08C65E45EAD1074BDB6D1C
:1018A00001935A425341054A13660023536603B01D
:1018B0003CBC90469946A246AB46F0BD18030020BA
:1018C0007937000097D32D016D360000B32F00004B
:1018D0004E9C0000A4D10000ABFFFF7F10B5034B6E
:1018E0009847034B9847034B9847C046790100003F
:1018F000E90100006D04000010B50400014B984799
:10190000200010BDF50F000010B50400014B9847F2
:10191000200010BDF50F00000B6803607047C04643
:10192000802310B5040082B05B020A000093694670
:1019300001A8044B984701A92000034B98472000B9
:1019400002B010BDFD0F0000F50F000070B50E00D5
:10195000002582B00400019501A930000A4B984788
:10196000002803D02560200002B070BD80256D02E4
:10197000019501A93000054B98470028F2D13100AC
:101980002000034B9847EEE74D1100003D11000089
:10199000F50F000010B504000B8882B0019301A977
:1019A000024B9847200002B010BDC046F50F000062
:1019B00000688012C0B2704710B5040082B001A860
:1019C000044B984701A92000034B9847200002B020
:1019D00010BDC0465D110000F50F000010B50400F9
:1019E00082B001A8044B984701A92000034B9847F7
:1019F000200002B010BDC046FD0F0000F50F000032
:101A000010B5040082B001A8044B984701A920003A
:101A1000034B9847200002B010BDC046651000007F
:101A2000F50F000010B5040082B001A8044B9847E0
:101A300001A92000034B9847200002B010BDC0460A
:101A4000C1100000F50F000010B50400014B9847CD
:101A5000200010BD0910000070B5802684B0B602C9
:101A6000114B02AA0400029603A8984703A901A8F3
:101A70000E4DA84780235B02039303A901A80C4BDA
:101A8000984700280BD102A903A8029601AA094B86
:101A9000984703A92000A847200004B070BD01A901
:101AA0002000A847F8E7C04665100000F50F0000C9
:101AB0004D110000FD0F000070B50B4C00252600F5
:101AC00084B001A8C4360021084B2560984701A9BD
:101AD0003000074B9847211D00223000054B9847E6
:101AE000054B1D6504B070BD84030020211E00005D
:101AF000C51D0000D51D000004040020F0B54646B9
:101B0000D6464F462023C0B5464CA8B0E55C80467B
:101B1000002D24D1444C15AF2200210008CAC43145
:101B20003800424EB047C4222368A25801332360D4
:101B300093426BD245463C003D4E21002800B04701
:101B4000043428AB04359C42F7D13800394B984710
:101B5000404628B01CBC90469946A246F0BD324E85
:101B6000324D3200310008CAC43102A8A847A94644
:101B7000314D15AF29002A00153154322B6DFF313C
:101B80003800C847C4223368B258013333609342E7
:101B900001D3002333608A222B6D5200AA580133EF
:101BA0002B65934201D300232B65244B606A994631
:101BB00098478246A06AC847214B011C5046984767
:101BC0008F21204BC9059847FC211F4B8905984759
:101BD0001E4B984701AA01901D4B390002A8984757
:101BE000636AA26A01336362934211D24546104E82
:101BF00002AC210028000434B0470435BC42F8D1BF
:101C000020000C4CA04702A8A047A1E7256091E75F
:101C10002900D0220F4B503130009847002220235A
:101C2000E254E3E70405002084030020E51D0000E2
:101C3000F91800003912000004040020B93F000028
:101C4000A93A0000393D000085370000793F0000C7
:101C500065120000D940000000B595B001A8064B00
:101C6000984701A8054B9847054B984701A8054B95
:101C7000984715B000BDC046FD1A00003D12000097
:101C8000310E000039120000F0B5C6460F4C002698
:101C9000250080460F0000B540C584B028000C4BDD
:101CA0009847C434414601A80A4B984701A920002F
:101CB000094B98473A0029002000084B98472023F9
:101CC000074AD65404B004BC9046F0BD84030020FB
:101CD0000D1E0000211E0000C51D0000D51D0000C6
:101CE00004050020F0B5CE464746134C00252600DB
:101CF0008146884680B5543685B0256530000F4B47
:101D000015341700FF349847494601A80C4B9847F3
:101D100001A920000B4B98474246310020000A4B96
:101D2000984701212022094B5D629F62995405B0BA
:101D30000CBC90469946F0BD040400200D1E000026
:101D4000211E0000C51D0000D51D00000405002057
:101D50002023014AD05C70470405002070B5084C70
:101D6000084E201DB0472000074DC430A847074C3F
:101D700020005430B04720001530FF30A84770BD18
:101D800084030020F91D0000A51D000004040020AC
:101D90007047C04610B50400014B9847200010BDA5
:101DA000711100000A230360024B4360024B836001
:101DB0007047C046911D0000951D00000160426003
:101DC000836070470B6803604B6843608B68836077
:101DD00008007047030010B508005B6811009847C1
:101DE00010BDC04670B504000800110085681A00D7
:101DF0002000A847200070BD10B50400C0220021BB
:101E0000014B9847200010BDEB40000010B5C022E8
:101E10000021014B984710BDEB4000007047C046C1
:101E200070B50D4A04000A2003E010325068002803
:101E30000AD013788B42F8D1D36801009268200051
:101E4000064DA847200070BD054B064A0A21200018
:101E5000024DA847F6E7C04614440000BD1D00002F
:101E60006D1E0000691E00007047C04610B50400DA
:101E7000014B9847200010BD71110000012A00D1CC
:101E8000016000207047C046F0B5CE46474680B599
:101E9000157804228B5E8BB01B040893C8230E6850
:101EA0001B04099309AA08A9374B040004A8984702
:101EB00032793100D3009B185B009B18334A05A888
:101EC000D3185D5D324BAD0098469847314905AA5D
:101ED000691806A8304EB04706A908A8C04708A947
:101EE00009A82E4FB84709AA04A907A82C4B984760
:101EF0002C4B07A901A8984701A902A8C047C023F5
:101F000009AADB0202A904A80993B047049B1D1487
:101F10001B041B0CAAB20593002B2CD0224B994614
:101F2000052A26D06B1CDBB29B004B4498468023CD
:101F30002D045B02079305AA1C4B07A908A8AD0B4B
:101F40009847290008AA494409A8B04705AA41466C
:101F500006A8B04703AE06AA09A93000144B98475B
:101F600031002000B84720000BB00CBC90469946C9
:101F7000F0BD9846DBE72D040B49AD0B03AE4919C4
:101F80003000C047ECE7C046251A0000BC42000004
:101F9000F50F000030430000651000000919000033
:101FA000DD19000095190000D4440000FD0F000069
:101FB0005D110000012A05D0022A01D10CC90CC014
:101FC000002070470160FBE770B588B00500110084
:101FD000144C01A8A04701A905A8A047802307AA7F
:101FE0005B0405A906A8104E0793B047069B04A8FA
:101FF000190C0E4B8900C918A0470D4B06AA04A95D
:1020000003A80693B0470B4B07AA079303A902A89E
:10201000094B984702A92800084B9847280008B0A8
:1020200070BDC046F50F000065100000E4470000D9
:10203000CD4C000033B300005D1100000919000011
:10204000072210B50A40084982B0920018310400F6
:10205000891801A8054B9847002301A92371200086
:10206000034B984702B010BDD4440000F50F0000A8
:1020700069110000F0B5DE46574645464E46E0B5CC
:102080003C4BA1B00C933C4B83460B930DA83B4BB0
:102090000C0002910392984720AB9946384B394F78
:1020A0009A46394B083498460DAD2688002E5CD0F0
:1020B0000222A35E07A91B0407933304089308AA0E
:1020C00006A8D04706A905A8B84705A907A8B84794
:1020D0000B9B002B4BD00C9B07AA09A908A80193C6
:1020E000984708A92800C047638801339BB2B342D0
:1020F0002DDA043563800434A945D6D10B9B002B1F
:1021000003D009A9032208009847029B09A9099353
:10211000039B58460A931D4B0C931D4B0B931D4B71
:1021200098470B9B002B03D009A90322080098476E
:102130000DA95846184B98470DA8184B9847584674
:1021400021B03CBC90469946A246AB46F0BD002368
:10215000134963806420134B98470435208004346E
:10216000A945CBD02688002EA2D10696AAE70E4B11
:102170009847C046C91F00007D1E00007111000075
:10218000251A0000F50F000019190000891E000033
:10219000B51F0000BD110000F1120000391200004F
:1021A000C409000065160000FD330000012A00D1BB
:1021B000016000207047C046012A00D10160002064
:1021C0007047C046F0B5CE46474680B51578042224
:1021D0008B5E8BB01B04089396230E685B040993F7
:1021E00009AA08A9374B040004A89847327931009E
:1021F000D3009B185B009B18334A05A8D3185D5D7C
:10220000324BAD0098469847314905AA691806A88F
:10221000304EB04706A908A8C04708A909A82E4F04
:10222000B84709AA04A907A82C4B98472C4B07A923
:1022300001A8984701A902A8C047E02309AA9B0367
:1022400002A904A80993B047049B1D141B041B0C8E
:10225000AAB20593002B2CD0224B9946372A26D0C0
:102260006B1CDBB29B004B44984680232D045B0221
:10227000079305AA1C4B07A908A8AD0B984729008E
:1022800008AA494409A8B04705AA414606A8B0478C
:1022900003AE06AA09A93000144B9847310020006C
:1022A000B84720000BB00CBC90469946F0BD98464C
:1022B000DBE72D040B49AD0B03AE49193000C047D5
:1022C000ECE7C046251A0000BC420000F50F0000F4
:1022D0007C4300006510000009190000DD190000B2
:1022E000951900000C450000FD0F00005D11000075
:1022F000012A05D0022A01D10CC90CC00020704768
:102300000160FBE7F0B5C64600B58AB01100284F62
:10231000060001A8B84701A903A8B847802309AA65
:102320005B0303A904A8234D0993A847049B1C142D
:102330001B041B0CA2B20593002B30D01E4F0F2A9A
:1023400029D03A0060329046631CDBB29B0098446F
:1023500080235B02079305AA184B07A908A8984792
:10236000390024046031A40B091908AA09A8A84758
:1023700005AA414606A8A84702AD06AA09A9280051
:102380000F4B9847290030000E4B984730000AB099
:1023900004BC9046F0BD60239846B844D8E706498F
:1023A0002404A40B02AD603109192800B847E9E7FD
:1023B000F50F0000651000008C450000FD0F0000C7
:1023C0005D1100000919000070B588B0050011000A
:1023D000154C01A8A04701A905A8A047802307AA7A
:1023E0005B0405A906A8114E0793B047069B04A8F5
:1023F000190C0F4B8900C918A047802306AA1B029D
:1024000004A903A80693B0478023DB01079307AA1A
:1024100003A902A8074B984702A92800064B984732
:10242000280008B070BDC046F50F00006510000020
:10243000E4470000FD0F000009190000F0B5474611
:10244000CE46040080B5070080468946114E83B011
:10245000083454379621C82089004000B047411EF7
:10246000050089B20020B047258060800434A7426F
:10247000F0D1094B2B2101934846084B984743461E
:1024800001A918714046064B984703B00CBC904612
:102490009946F0BD651600009A1900006D360000DF
:1024A00069110000F0B5DE4657464E464546E0B598
:1024B0000D0006006D4BB3B00B936D4B01900A936A
:1024C0006C4B0291039298476B4B2C009B466B4BD5
:1024D0005435AA4699463500694F08342688002E9F
:1024E00000D1ADE00222A35E0CA91B040C933304BF
:1024F0001F931FAA07A8D84707A904A8B84704A98B
:1025000006A8B8470A9B002B00D1ACE01FAB984649
:102510000B9B06AA08A9404600939847414628000D
:10252000C847638801339BB2B34200DB76E0638027
:10253000043404355445D1D10A9B55464646002BF8
:1025400003D008A90322080098474E4B0CA8F3605B
:102550004D4B0CACB360474B9847474B1FAE9A4668
:102560004A4BB0469B462E88002E00D179E00222CD
:10257000AB5E07A91B0407933304089308AA06A8B7
:10258000D04706A905A8B84705A907A8B847219BC1
:10259000002B68D0414607AACB6808A8984708A92D
:1025A0002000C8476B8801339BB2B3424ADA043437
:1025B0006B800435A045D6D14646B368002B03D0C6
:1025C0000322414640469847029B08A90893039B73
:1025D000300009932E4B0B932E4B0A932E4B9847AA
:1025E0002E4B31000CA8984730002D4CA0470A9B79
:1025F000002B03D008A9032208009847019D0CA9CD
:102600002800284B98470CAB1800A047280033B08F
:102610003CBC90469946A246AB46F0BD00239621AD
:10262000C820638089004000184B984720800434FC
:102630000435544500D17FE72688002E00D051E7AD
:10264000079659E7002380216B8089002820D8470E
:10265000043428800435A045AED02E88002E00D04A
:1026600085E706968DE7104B9847C0460523000086
:10267000AD21000071110000251A00001919000099
:10268000F50F0000C9230000B92100006516000005
:10269000C5210000F1220000BD110000F112000070
:1026A0003912000011130000FD330000012A05D08B
:1026B000022A01D10B680360002070470160FBE72C
:1026C000F0B5CE46474680B5147800228B5E8BB0BD
:1026D0001B04089396231B04099309AA08A9314BEC
:1026E000060007A898473049304BA400611806AA95
:1026F00008A82F4D0693A84708A909A82D4FB84749
:1027000009AA07A968462C4B9847694601A82B4B94
:1027100098472B4B01A902A898469847802309AAFD
:102720009B0202A904A80993A847049B1C141B043C
:102730001B0CA2B20593002B2CD0224B9946012AE8
:1027400026D0631CDBB29B004B44984680232404B4
:102750005B02079305AA1C4B07A908A8A40B98477E
:10276000210008AA494409A8A84705AA414606A885
:10277000A84703AD06AA09A92800144B98472900C9
:102780003000B84730000BB00CBC90469946F0BD05
:102790009846DBE724040B49A40B03AD0919280074
:1027A000C047ECE7251A00007C43000033330100EA
:1027B0006510000009190000DD19000095190000DE
:1027C000F50F00002C460000FD0F00005D11000019
:1027D0007047C04610B50A4B84B00393094B009272
:1027E00002936946084B04009847029B002B03D0D4
:1027F0000322694668469847200004B010BDC046D1
:10280000C1260000AD260000BD1100007047C04683
:10281000C82310B5040084B012041B040292039371
:1028200003AA02A901A8064B984701A903A8054BD2
:10283000984703A92000044B9847200004B010BD1E
:10284000251A0000591A000085110000012A00D144
:10285000016000207047C04670B588B005001100C7
:10286000154C01A8A04701A905A8A047802307AAE5
:102870005B0405A906A8114E0793B047069B04A860
:10288000190C0F4B8900C918A047802306AA1B0208
:1028900004A903A80693B0478023DB01079307AA86
:1028A00003A902A8074B984702A92800064B98479E
:1028B000280008B070BDC046F50F0000651000008C
:1028C000E44700005D11000009190000F8B5070099
:1028D0000400084E4C3780210A208900B047411E71
:1028E000050089B20020B047258060800434A742EB
:1028F000F1D1F8BD65160000F0B5DE4657464E46EC
:102900004546E0B52E4B8BB009932E4B834608937A
:102910002D4B0C0098474C2399462C4B5E469A460B
:102920002B4B2C4F9846A1442588002D43D00222E2
:10293000A35E04A91B0404932B04059305AA03A812
:10294000D04703A902A8B84702A904A8B847089B22
:10295000002B32D0099B04AA06A905A80193984729
:1029600005A93000C047638801339BB2AB4213DA3C
:10297000638004340436A145D6D1089B002B03D0D4
:1029800006A903220800984758460BB03CBC904665
:102990009946A246AB46F0BD0023802163808900A2
:1029A0000A200D4B9847208004340436A145E4D01A
:1029B0002588002DBBD10395C3E7084B9847C04637
:1029C000592800004D28000071110000251A000050
:1029D00019190000F50F000065160000FD33000016
:1029E000012A00D1016000207047C046F0B5C646FC
:1029F00000B58AB01100254F060001A8B84701A90B
:102A000003A8B847C02309AA5B0303A904A8204D63
:102A10000993A847049B1C141B041B0CA2B205932A
:102A2000002B2BD01B4B9846172A25D0671CFFB2D2
:102A3000BF004744802324045B02079305AA164B7A
:102A400007A908A8A40B9847210008AA414409A88F
:102A5000A84705AA390006A8A84702AD06AA09A9F1
:102A600028000E4B9847290030000D4B9847300046
:102A70000AB004BC9046F0BD1F00DBE72404054902
:102A8000A40B02AD09192800B847ECE7F50F0000C8
:102A90006510000034460000FD0F00005D110000CD
:102AA00009190000F8B507000400084E4C37C8218A
:102AB000C8204900B047411E050089B20020B04738
:102AC000258060800434A742F1D1F8BD651600006E
:102AD000F0B5DE4657464E464546E0B52E4B8BB028
:102AE00009932E4B834608932D4B0C0098474C239B
:102AF00099462C4B5E469A462B4B2C4F9846A14448
:102B00002588002D43D00222A35E04A91B04049350
:102B10002B04059305AA03A8D04703A902A8B84728
:102B200002A904A8B847089B002B32D0099B04AA2D
:102B300006A905A80193984705A93000C0476388F6
:102B400001339BB2AB4213DA638004340436A145EF
:102B5000D6D1089B002B03D006A903220800984772
:102B600058460BB03CBC90469946A246AB46F0BDD9
:102B70000023C82163804900C8200D4B984720805E
:102B800004340436A145E4D02588002DBBD103953B
:102B9000C3E7084B9847C046ED290000E129000033
:102BA00071110000251A000019190000F50F00002E
:102BB00065160000FD330000012A05D0022A01D16C
:102BC0000B680360002070470160FBE7F0B5CE465C
:102BD000474680B5147800228B5E8BB01B040893A7
:102BE000C8231B0409AA099308A9304B060007A8AB
:102BF00098472F492F4BA400611808A8984698477A
:102C000008A909A82C4FB84709AA07A968462B4B61
:102C100098472B4B694601A8984701A902A8C047CD
:102C2000802309AA5B0302A904A8264D0993A8479B
:102C3000049B1C141B041B0CA2B20593002B2CD06C
:102C4000214B99460F2A26D0631CDBB29B004B44D4
:102C50009846802324045B02079305AA1B4B07A90F
:102C600008A8A40B9847210008AA494409A8A84726
:102C700005AA414606A8A84703AD06AA09A9280047
:102C8000134B984729003000B84730000BB00CBCFC
:102C900090469946F0BD9846DBE724040A49A40B08
:102CA00003AD09192800C047ECE7C046251A00000B
:102CB000C8430000F50F000009190000DD190000ED
:102CC000951900006510000094460000FD0F0000FB
:102CD0005D1100007047C04610B50A4B84B00393E5
:102CE000094B009202936946084B04009847029BE7
:102CF000002B03D00322694668469847200004B0A1
:102D000010BDC046CD2B0000B92B0000BD11000046
:102D1000012A05D0022A01D10B6803600020704708
:102D20000160FBE770B5147800228B5E84B01B0451
:102D3000029396231B040500039303AA02A901A88A
:102D40000D4EB047982324045B03039303AA02A902
:102D500068460294B0476A4601A902A8074B984703
:102D600002A903A8064B9847280003A9054B9847DA
:102D7000280004B070BDC046251A0000B919000033
:102D800095190000591A00007047C04610B50A4B4B
:102D900084B00393094B009202936946084B0400E8
:102DA0009847029B002B03D0032269466846984748
:102DB000200004B010BDC046252D0000112D0000DC
:102DC000BD110000012A00D1016000207047C046FB
:102DD000012A00D1016000207047C046F0B5C64608
:102DE00000B58AB01100254F060001A8B84701A917
:102DF00003A8B847802309AADB0303A904A8204D30
:102E00000993A847049B1C141B041B0CA2B2059336
:102E1000002B2BD01B4B98463F2A25D0671CFFB2B6
:102E2000BF004744802324045B02079305AA164B86
:102E300007A908A8A40B9847210008AA414409A89B
:102E4000A84705AA390006A8A84702AD06AA09A9FD
:102E500028000E4B9847290030000D4B9847300052
:102E60000AB004BC9046F0BD1F00DBE7240405490E
:102E7000A40B02AD09192800B847ECE7F50F0000D4
:102E800065100000D4460000FD0F00005D11000039
:102E90000919000070B586B005001100104C01A89A
:102EA000A04701A903A8A047802305AA5B0403A9A2
:102EB00004A80C4E0593B047049B02A8190C0A4BBA
:102EC0008900C918A047094B05AA02A904A80593BF
:102ED000B04704A92800064B9847280006B070BDEB
:102EE000F50F000065100000E44700009A1900008B
:102EF00009190000F8B507000400084E4C370849CE
:102F00000848B047411E050089B20020B04725801F
:102F100060800434A742F2D1F8BDC04665160000B7
:102F2000C4090000DC050000F0B5DE464546574602
:102F30004E460C00E0B583462500584BA3B00A93DB
:102F4000574BD8460993574B9847574B4C35574EDC
:102F50009A4606E0638004239C460434E044AC4275
:102F600034D02788002F00D182E00222A35E0BA973
:102F70001B040B933B040F930FAA06A8D04706A986
:102F800003A8B04703A905A8B047099B002B00D1AF
:102F900082E00A9B05AA07A90FA801939847444B12
:102FA0000FA9404699469847638801339BB2BB42BC
:102FB000D0DB00233F4963803F48404B98470423C0
:102FC0009C4620800434E044AC42CAD1099B002BCB
:102FD00003D007A9032208009847394B0FA80E9386
:102FE000384B0FAC0D932F4B984722AB98462E4B86
:102FF0009A462F88002F4DD00222AB5E06A91B04F3
:1030000006933B04079307AA05A8D04705A904A87F
:10301000B04704A906A8B0470D9B002B3CD00E9BDF
:1030200006AA0BA907A80193984707A92000C8473B
:103030006B8801339BB2BB421CDA04346B800435CD
:10304000A045D6D10D9B002B03D00BA9032208006D
:1030500098470FA958461C4B98470FA81B4B9847F9
:10306000584623B03CBC90469946A246AB46F0BDBC
:10307000069784E700239621C8206B800901C000D1
:103080000E4B9847043428800435A045DAD02F88A9
:10309000002FB1D10597B9E70D4B9847DD2D000002
:1030A000C52D000071110000251A0000F50F000069
:1030B00019190000C4090000DC05000065160000B5
:1030C000952E0000D12D0000611300003912000080
:1030D000FD330000012A00D1016000207047C04686
:1030E000F0B5CE46474680B5157804228B5E8BB08E
:1030F0001B040893C8230E681B04099309AA08A996
:10310000374B040004A8984732793100D3009B184C
:103110005B009B18334A05A8D3185D5D324BAD00A8
:1031200098469847314905AA691806A8304EB04715
:1031300006A908A8C04708A909A82E4FB84709AA98
:1031400004A907A82C4B98472C4B07A901A898471E
:1031500001A902A8C047802309AADB0202A904A88A
:103160000993B047049B1D141B041B0CAAB20593C2
:10317000002B2CD0224B9946032A26D06B1CDBB2A5
:103180009B004B44984680232D045B02079305AABD
:103190001C4B07A908A8AD0B9847290008AA494469
:1031A00009A8B04705AA414606A8B04703AE06AA3B
:1031B00009A93000144B984731002000B84720007F
:1031C0000BB00CBC90469946F0BD9846DBE72D0449
:1031D0000B49AD0B03AE49193000C047ECE7C046C0
:1031E000251A0000BC420000F50F00007C430000DF
:1031F0006510000009190000DD1900009519000094
:10320000D4470000FD0F00005D110000012A05D029
:10321000022A01D10CC90CC0002070470160FBE7F5
:1032200070B588B005001100144C01A8A04701A991
:1032300005A8A047802307AA5B0405A906A8104E8D
:103240000793B047069B04A8190C0E4B8900C918B8
:10325000A0470D4B06AA04A903A80693B0470B4B41
:1032600007AA079303A902A8094B984702A92800B7
:10327000084B9847280008B070BDC046F50F000005
:1032800065100000E4470000CD4C000033B300009F
:103290005D1100000919000010B5074B82B0040051
:1032A00001930800054B2B21984701A92071044B7D
:1032B0002000984702B010BD333301006D36000086
:1032C00069110000F0B5DE46574645464E46E0B56A
:1032D0003C4BA1B00C933C4B83460B930DA83B4B4E
:1032E0000C0002910392984720AB9946384B394F16
:1032F0009A46394B083498460DAD2688002E5CD08E
:103300000222A35E07A91B0407933304089308AAAB
:1033100006A8D04706A905A8B84705A907A8B84731
:103320000B9B002B4BD00C9B07AA09A908A8019363
:10333000984708A92800C047638801339BB2B3426D
:103340002DDA043563800434A945D6D10B9B002BBC
:1033500003D009A9032208009847029B09A90993F1
:10336000039B58460A931D4B0C931D4B0B931D4B0F
:1033700098470B9B002B03D009A90322080098470C
:103380000DA95846184B98470DA8184B9847584612
:1033900021B03CBC90469946A246AB46F0BD002306
:1033A000134963806420134B98470435208004340C
:1033B000A945CBD02688002EA2D10696AAE70E4BAF
:1033C0009847C04621320000D5300000711100003E
:1033D000251A0000F50F000019190000E130000067
:1033E0000D320000BD110000F11200003912000082
:1033F000C409000065160000FD33000010B500F0A0
:103400003FFE00000123214A1168194200D11360D8
:103410001F4A1168194200D1136001231D4A116827
:10342000194200D113601C4A1168194200D113607F
:1034300001231A4A1168194200D11360184A116811
:10344000194200D113600123164A1168194200D1B4
:103450001360154A1168194200D113600123134A01
:103460001168194200D11360114A1168194200D144
:10347000136001230F4A1168194200D113600E4AEC
:103480001168194200D113607047C0465C050020E6
:103490005805002054050020500500204C05002050
:1034A0004805002044050020400500203C05002080
:1034B0003805002034050020300500200123164A7D
:1034C0001168194200D11360144A1168194200D1E1
:1034D00013600123124A1168194200D11360114A86
:1034E0001168194200D1136001230F4A1168194273
:1034F00000D113600D4A1168194200D113600123F5
:103500000B4A1168194200D113600A4A1168194226
:1035100000D113607047C0467C050020780500206C
:1035200074050020700500206C050020680500204F
:1035300064050020600500200123164A1168194225
:1035400000D11360144A1168194200D1136001239D
:10355000124A1168194200D11360114A11681942C8
:1035600000D1136001230F4A1168194200D1136082
:103570000D4A1168194200D1136001230B4A1168EA
:10358000194200D113600A4A1168194200D1136030
:103590007047C0469C050020980500209405002037
:1035A000900500208C05002088050020840500205F
:1035B000800500200123214A1168194200D11360BF
:1035C0001F4A1168194200D1136001231D4A116876
:1035D000194200D113601C4A1168194200D11360CE
:1035E00001231A4A1168194200D11360184A116860
:1035F000194200D113600123164A1168194200D103
:103600001360154A1168194200D113600123134A4F
:103610001168194200D11360114A1168194200D192
:10362000136001230F4A1168194200D113600E4A3A
:103630001168194200D113607047C046CC050020C4
:10364000C8050020C4050020C0050020BC050020DE
:10365000B8050020B4050020B0050020AC0500200E
:10366000A8050020A4050020A00500200022430892
:103670008B4274D303098B425FD3030A8B4244D33A
:10368000030B8B4228D3030C8B420DD3FF2209027C
:1036900012BA030C8B4202D31212090265D0030B3B
:1036A0008B4219D300E0090AC30B8B4201D3CB0331
:1036B000C01A5241830B8B4201D38B03C01A524173
:1036C000430B8B4201D34B03C01A5241030B8B4275
:1036D00001D30B03C01A5241C30A8B4201D3CB0260
:1036E000C01A5241830A8B4201D38B02C01A524145
:1036F000430A8B4201D34B02C01A5241030A8B4248
:1037000001D30B02C01A5241CDD2C3098B4201D35F
:10371000CB01C01A524183098B4201D38B01C01ADD
:10372000524143098B4201D34B01C01A5241030954
:103730008B4201D30B01C01A5241C3088B4201D303
:10374000CB00C01A524183088B4201D38B00C01AB0
:10375000524143088B4201D34B00C01A5241411AD7
:1037600000D20146524110467047FFE701B50020E4
:1037700000F006F802BDC0460029F7D076E7704792
:103780007047C046F0B5C6464E024702760A7B0A2D
:103790004400C50FF7004800984600B5240E2A00E3
:1037A000DB00000EC90FBC468D4267D0221A002AEA
:1037B00000DCA5E000283AD1002F00D193E0511E93
:1037C000002900D0BCE00124DB1B5A0146D59B0137
:1037D0009E09300000F036FC05388640844200DD4A
:1037E0009DE0041B320020200134E240041BA6406F
:1037F00033005E1EB341002413435A0704D00F2246
:103800001A40042A00D004335A0129D50134FF2C70
:1038100000D181E02A009B015B0AE4B25B02E4056F
:10382000580AD2072043104304BC9046F0BDFF2C39
:10383000E3D080213800C904084384461B2A00DDF8
:1038400082E020206146D140821A6046904002000A
:10385000501E82410A439B1A5A01B8D45A07CED14E
:10386000DE082A00FF2C3AD1002E00D1AEE08023E2
:10387000DB0333435B025B0AFF24CFE7211A0029F5
:1038800052DD002831D0FF2CB7D080203E00C0048C
:103890000643B4461B2900DDAAE020266046C84046
:1038A000711A66468E4031004E1EB14101435B18CD
:1038B0005901D3D50134FF2C00D187E0012278498A
:1038C0001A405B080B40134397E7002C00D0A7E099
:1038D000002B00D0B6E03B1E62D10026002273020E
:1038E0005B0AE4B29AE7140087E7002F4DD0481E28
:1038F000002857D1634401245A01AFD50224DDE7E3
:10390000002A24D1621CD2B2012ADEDDDE1B720144
:1039100035D5FE1A0D005CE72A0000237EE7330050
:10392000604A241A134068E7002963D1611CC8B2B9
:1039300001284EDDFF2949D063445B080C005CE799
:10394000FF2A41D00A0079E701229B1A84E7002C64
:103950001DD0FF2822D08024E404524223431B2A96
:1039600000DD8AE01C002025D440AA1A93405A1E8C
:103970009341234362460400D31A0D0025E7002E2D
:1039800000D026E700220024A9E70C0035E7002B31
:103990004DD0D243002AEDD0FF28E0D16346FF246A
:1039A0000D002AE7FF290FD0010073E7002B61D03B
:1039B000FF24002F00D120E780224146D20311428C
:1039C00002D0164200D13B00FF2416E7FF2400235B
:1039D00024E7002CEAD1002B58D0002F00D10CE7AF
:1039E00063445A0100D439E72E4A0C00134004E71F
:1039F00001215CE7002C1ED1002B40D0C9430029D7
:103A00000BD0FF2836D01B2947DC1C002026CC40D9
:103A1000711A8B40591E8B4123436344040047E7CE
:103A2000002B18D13B1E2DD00D00FF24E5E63B00F6
:103A300004000D00E1E6FF281CD08024E404494284
:103A40002343E0E7002F00D1D7E6DE1B72011FD52C
:103A5000FB1A0D00D1E6FF24002F00D1CDE6802215
:103A60004046D2031042AFD01642ADD13B000D000C
:103A7000FF24C2E66346FF24BFE601237AE73B004A
:103A80000400BAE680260022F603F0E63B00B4E626
:103A9000331E00D0E2E6002221E70123BDE7C04645
:103AA000FFFFFF7DFFFFFFFBF0B557464E46DE46AA
:103AB0004546E0B544024300C60F83B00F1C640ABC
:103AC0001B0EB24653D0FF2B27D08022E400D20435
:103AD00014437F22524290469844002399469B46C5
:103AE0007D027800FB0F6D0A000E009324D0FF28A2
:103AF00046D080230021ED00DB041D437F3847467C
:103B0000381A4F460F43BF00B9463300009A874F1B
:103B100053404A46BA5801939746002C4ED1082389
:103B20009946F7339846FD3B9B467D027800FB0F94
:103B30006D0A000E0093DAD1002D26D1002001215C
:103B40003300009A7A4F53404246101A4A460A43BD
:103B50009200BA581D009746009B2C009A468B464F
:103B60005B46022B31D15346FF21002438E0002C64
:103B700017D1042399460023984601339B46AFE7AB
:103B8000FF20002D0BD10221DAE7280000F05AFABD
:103B9000431F9D4076235B42181A0021AFE70321A3
:103BA000ADE7200000F04EFA431F9C4076235B42B5
:103BB0001B1A9846002399469B4691E70C23994689
:103BC000F3339846FC3B9B468AE7032B00D1A5E0E4
:103BD0005546012B00D081E00123002100242B4019
:103BE0006402C905600ADB070843184303B03CBC04
:103BF00090469946A246AB46F0BD80240023E403DC
:103C0000FF21EDE7FF210024EAE70123591A1B29D0
:103C100066DD019A134000210024E1E78023DB03E5
:103C20001C4238D01D4251D01C436402640A330048
:103C3000FF21D5E763016C01A3423BD21B26002183
:103C4000013801251F0049005B00002F01DB9C4269
:103C500001D81B1B2943013E002EF3D11C00631E1B
:103C60009C410C4301007F310029CEDD630704D065
:103C70000F232340042B00D00434230103D501007B
:103C80002C4B80311C40FE290DDD0123019AFF21C0
:103C900013400024A4E78023DB031C436402640A6E
:103CA0003300FF219CE70123019AA401640AC9B2F1
:103CB000134095E71B1B1A260121C2E7009B8B4688
:103CC0009A4600244CE76302E5D500258024E403EE
:103CD0002C436402640A009BFF2181E70195C1E740
:103CE00023002020CB40411A8C40611E8C411C4394
:103CF000630704D00F232340042B00D00434630156
:103D000005D50123019A01211340002468E701230E
:103D1000019AA401640A1340002161E78023DB03B8
:103D20001C436402640A5346FF2159E7E44B000038
:103D3000244C0000FFFFFFF7F8B557464E464546B6
:103D4000DE46E0B54702460088467F0A360EC40FBD
:103D5000002E47D0FF2E24D0FB008027FF041F43F6
:103D6000002399469A467F3E43465D025800DB0F8A
:103D70006D0A000E984643D0FF283BD0EB0080250B
:103D80000022ED041D437F383618731C41469B46C4
:103D90004B46614013430F2B64D875489B00C358B2
:103DA0009F46002F42D108239946063BFF269A469C
:103DB000DAE74146022A28D0032A00D1CEE0012AC0
:103DC00000D0ACE0114000200022CCB24002D2056D
:103DD000400AE407104320433CBC90469946A24663
:103DE000AB46F8BD002F15D104239946033B0026AE
:103DF0009A46B9E7FF200222002DC5D00322C3E76F
:103E0000002D19D100200122BEE70124FF220C4021
:103E10000020DBE7380000F015F97626431F9F40AD
:103E200000237642361A99469A469DE70C23994616
:103E3000093BFF269A4697E7280000F003F9431F45
:103E40009D4076235B42181A00229DE780200024C3
:103E5000C003FF22BAE73D005246ABE73D00210018
:103E60005246A7E73B0C9C462A04120C2B0C14006C
:103E7000604665463F043F0C7C4342435D437B43C1
:103E8000270C9B18FF18BA4203D980235B029C467B
:103E9000654424043A04240C121993015C1EA341C6
:103EA0003F0C920E7D191A43AD0115432B0104D529
:103EB00001235E466A081D40154332007F32002A06
:103EC00025DD6B0704D00F232B40042B00D00435D5
:103ED0002B0103D53200274B80321D40FE2A94DC93
:103EE0000124A801400AD2B20C406FE78020C00331
:103EF000074207D0054205D128434002400A444604
:103F0000FF2263E738434002400AFF225EE70124B4
:103F1000A31A1B2B05DD0C400022002056E75E464D
:103F2000CBE72A002020DA40C31A9D402B005D1EFB
:103F3000AB4113435A0704D00F221A40042A00D081
:103F400004335A0104D5012401220C4000203DE72E
:103F500001249B01580A0C40002237E780200124ED
:103F6000C00328434002400A0C40FF222EE7C0460F
:103F7000644C0000FFFFFFF741024300C20F490AF3
:103F80001B0E00207E2B0DDD9D2B0CDC8020000401
:103F90000143952B0ADC9620C31AD9404842002AD7
:103FA00000D108007047034BD018FBE7963B9940BF
:103FB000F4E7C046FFFFFF7F10B5041E27D000F0D6
:103FC00041F89E231B1A962B0ADC9622D21A9440A3
:103FD0006402640ADBB26402DB05600A184310BDA8
:103FE000992B17DC9922D21A002A27DD944022004F
:103FF000134C1440510704D00F210A40042A00D06A
:104000000434620112D4A401640ADBB2E3E70023A2
:104010000024E0E7B9222100D21A91400A00511E83
:104020008A410521091ACC401443DBE7044B1C40AC
:104030009F23A4011B1A640ADBB2CCE72200D7E756
:10404000FFFFFFFB1C2101231B04984201D3000C3E
:1040500010391B0A984201D3000A08391B099842FB
:1040600001D30009043902A2105C40187047C04611
:104070000403020201010101000000000000000031
:1040800010B5062000F064F8012000F091F800005F
:1040900070B500260C4D0D4C641BA410A64209D12E
:1040A000002600F02FFE0A4D0A4C641BA410A64205
:1040B00005D170BDB300EB5898470136EEE7B30069
:1040C000EB5898470136F2E7104D0000104D000004
:1040D000104D00002C4D0000002310B59A4200D175
:1040E00010BDCC5CC4540133F8E70300821893423E
:1040F00000D1704719700133F9E770B504000D0065
:104100001F2904D9162303600120404270BD436C6F
:10411000002B04D08A009B181A68002A08D12000BE
:1041200000F032F82A000100200000F01BF8EDE753
:104130000020012AEAD0511C03D11623013023604C
:10414000E4E7002428001C6090472000DEE7000020
:1041500010B5034B01001868FFF7CFFF10BDC04634
:1041600004000020002370B5064C05000800110073
:10417000236000F015F8431C03D12368002B00D006
:104180002B6070BDD005002010B500F001F810BD07
:1041900058220120014B40421A607047D005002090
:1041A00058220120014B40421A607047D005002080
:1041B000FEE7C04602010304010000000800000001
:1041C00040000000000200000000010000000800A4
:1041D0000200000010000000800000000004000049
:1041E0000000020000004000040000002000000069
:1041F0000001000000080000000004000000800032
:1042000000000001FA0000000000000000000000B3
:1042100000000000000000000000000078008400A2
:104220008A008D00910095009A009E00A300A800CE
:10423000AE00B400BA00C100C800CF00D700DF0054
:10424000E800F200FC00070112011E012B013901F8
:1042500047015701670178018B019E01B301C90134
:10426000E101FA01140231024F026E029002B4021F
:10427000DA0203032E035B038C03BF03F60330044F
:104280006E04B00400000000000000000000000008
:104290000000000002000000080000001000000004
:1042A0001200000014000000200000002C0000009C
:1042B00032000000010203040607000000010203AF
:1042C0000405060708090A0B0C0D0E0F1011120544
:1042D00000010203040B060708090A110C0D0E0F5A
:1042E00010120405000102030A0B06070809101149
:1042F0000C0D0E0F12030405000102090A0B06073C
:10430000080F10110C0D0E1202030405000108091C
:104310000A0B06070E0F10110C0D12010203040503
:10432000000708090A0B060D0E0F10110C120000F1
:1043300000C0000000C0000000C0000000C000007D
:1043400000C0000000C000000080000000800000ED
:10435000008000000080000000800000008000005D
:10436000004000000040000000400000004000004D
:10437000004000000040000000000000E4380000A1
:10438000ABAA00008EE30000ABAA0000E4380000F6
:104390000000000055550000398E0000ABAA000057
:1043A000398E000055550000E4380000C771000048
:1043B000398E0000398E0000C7710000555500008D
:1043C00055550000C771000000000000AB2A000036
:1043D0005555000000800000ABAA000055D5000034
:1043E00000000000AB2A00005555000000800000CE
:1043F000ABAA000055D50000551500000040000094
:10440000AB6A00005595000000C00000ABEA000058
:1044100000000000000000000A000000691E00000B
:104420006D1E00000500000096000000892D0000B0
:104430008D2D000006000000C8000000D52C0000F3
:10444000D92C00000700000096000000D1270000D2
:10445000D527000008000000C80000000D2800005B
:1044600011280000090000002C010000A52A00000E
:10447000D12A00000A0000002C010000CD28000015
:10448000F9280000010000002C0100003D2400007C
:10449000A5240000020000002C010000F52E000001
:1044A000292F000003000000C8000000993200001E
:1044B000C532000004000000C800000041200000D8
:1044C0007520000000000000000000000000000057
:1044D00000000000CDCC0000CDCC0000CDCC000011
:1044E0009A1900009A1900009A19000000C00000F3
:1044F000CDCC000066E600009A19010033330100BC
:1045000033B3030033B30500CD4C0D0000000100B0
:104510000000010000000100CDCC00009A990000CD
:104520000080000066660000CD4C0000CD4C00000D
:1045300033330000333300009A1900009A19000049
:104540009A190000000000000000000000000000B8
:10455000000000000000000000000000000000005B
:10456000000000000000000000000000000000004B
:10457000000000000000000000000000000000003B
:10458000000000000000000000000000000000002B
:10459000000000000000000000000000000000001B
:1045A000000000000000000000000000000000000B
:1045B00000000000000000000000000000000000FB
:1045C00000000000000000000000000000000000EB
:1045D00000000000000000000000000000000000DB
:1045E000000000000000000000000000008000004B
:1045F00033B300009A990000666600000080000056
:104600006666000033B300009A9900000080000045
:104610009A990000008000006666000033B3000035
:10462000666600009A99000000800000000001000A
:1046300033330000333300000080000000800000AE
:1046400000800000000001000080000000800000E9
:104650000080000000800000CD4C000000800000C1
:10466000008000000080000066E60000008000007E
:10467000008000000080000000800000008000003A
:10468000CD4C000000800000CD4C000000800000F8
:104690000080000000000100CDCC000033B300001A
:1046A0009A99000000800000CD4C000033330000D8
:1046B000CD4C000000400000CD4C00003333000022
:1046C000CD4C0000008000009A99000033B3000038
:1046D000CDCC000000800000CDCC0000CDCC00008F
:1046E000CDCC0000CDCC000000800000CD4C0000FF
:1046F0000000000000000000CD4C0000CD4C000088
:1047000000000000333300003333000000000000DD
:104710000000000000000000CD4C0000CD4C000067
:10472000CD4C00000000000000000000333300000A
:104730003333000000000000000000000000000013
:10474000000000000000000000000000666600009D
:10475000666600006666000000000000CD4C0000A8
:10476000008000000080000000800000CD4C0000B0
:10477000000000000000000033330000333300006D
:104780000000000000000000000000000000000029
:104790000000000000000000000000000000000019
:1047A000CD4C0000CD4C0000CD4C000000000000BE
:1047B000000000003333000033330000000000002D
:1047C00000000000008000000080000000000000E9
:1047D000CD4C000000000100333300000000000059
:1047E00033330000997A0000FC6900007523000053
:1047F00041F2000054C400005F9900008E360000B2
:10480000F51A0000B23D00001B5F0000149E00007E
:104810005C7F000060E50000285F0000EEFB000008
:10482000546300008689000049DE000079490000D9
:10483000AEC60000CDFB00007E3D000059F6000032
:1048400074D50000048600004CA700000534000069
:10485000DCC60000648D0000C5BE0000234B0000D4
:1048600025E60000BE110000E5500000C7EA000088
:10487000F6280000E71D000048510000A0CA000013
:10488000A08A0000B1210000B93C000042BE000037
:1048900052E80000716C0000E474000036AD0000C6
:1048A000519B000098AD0000DB09000042CF0000E2
:1048B0000A6700007CF20000575B0000152D000025
:1048C000B2ED000095E5000066760000AE3700000E
:1048D0002B1700006F210000F1030000B2BE0000A2
:1048E0008FB30000B82E000066F60000210F000014
:1048F000A2B50000984C0000DAAB000062C10000D5
:10490000A7C9000098DD0000E96800006C190000EC
:10491000ED5D00009A97000041020000970F000033
:10492000AF350000AEF700007EBD0000F3AF000021
:10493000CCFF000061C2000065190000B6C3000092
:10494000E2480000F59A0000667700006705000065
:10495000356E0000F56B0000449900005CAF00006C
:10496000143F000015DC0000AAB100003411000063
:104970007C110000B7C20000FB8B00006821000022
:10498000869900004FEF000034210000E6FF000090
:104990007D2E0000B0A2000066C70000ECBF000042
:1049A000390600003954000015FC0000EC610000DD
:1049B000FFF10000E1EB0000B78200006774000027
:1049C0001BBD0000923C000059760000CC2D000079
:1049D000F7240000BA4B0000D171000042CE000065
:1049E0004C170000144E000027D200009AD9000096
:1049F0002F7D00005D4E00007F0B0000BF4D0000CA
:104A0000CEB800000308000077BE000064EC000090
:104A100098BC0000DCA700002E3000004686000095
:104A20007D400000866800002D430000DAFC000095
:104A30004ACC000055D000005D6C00001902000057
:104A400033D40000302A0000D5E90000A11800008E
:104A50003C0E000010FA000056AD000070EF0000A0
:104A60007F4B00001F040000C8180000C8D70000DA
:104A7000957400007F9900002D020000DBA9000062
:104A8000A64B00000C3200009D810000024A00008D
:104A9000ECC10000077F00005EBB0000B4580000BE
:104AA000F99F0000C383000018B60000EB2300004C
:104AB00096C30000BEBF0000D5A70000EB020000B7
:104AC00059470000E77B000086080000E3770000FC
:104AD000784B0000C02C00003D4A00002BB60000BF
:104AE000375A0000DE230000AF44000074F60000D7
:104AF00063CE00002E0000006EB30000F4BD000085
:104B00005299000009BA00000C22000044890000FC
:104B1000A4B00000DFCF000062F00000AE8800000B
:104B2000775E00008350000020610000F0B70000B5
:104B300024D700008F1200008A1F00000E6F0000B3
:104B4000B4390000CC9D0000DEB30000B25D00006F
:104B5000D6F50000293B0000DBF90000815500007C
:104B60005EAA00006C680000FACD00004518000045
:104B7000FEB5000051CA0000D8B00000A09A0000A5
:104B800061920000E9780000F9C0000077BE0000E3
:104B90009EBF0000A60B0000A9F400003F95000096
:104BA0004B4A00001C8C0000E06C0000022A000050
:104BB000AAA0000050BD0000F5FB00004850000016
:104BC00085DC00005B520000771E00002E90000084
:104BD0005B330000A5BD00000A180000B96C00009E
:104BE0003A620000343C0000043C0000163C000027
:104BF000583B0000163C0000FA3B0000163C000049
:104C0000583B0000043C0000043C0000FA3B00005C
:104C1000583B0000603B0000603B0000603B000030
:104C20001C3C0000043C0000043C0000D83B000099
:104C3000BC3C0000D83B0000FA3B0000D83B000021
:104C4000BC3C0000043C0000043C0000FA3B0000B7
:104C5000BC3C0000603B0000603B0000603B00008B
:104C6000C63C0000643E0000B43D0000B43D0000BE
:104C7000B23D0000563E0000563E00004C3E000093
:104C8000B23D0000563E00004C3E0000563E000083
:104C9000B23D00005C3E00005C3E00005C3E000057
:104CA000EC3E0000000000000000000000000000DA
:104CB00000000000000000000000000000000000F4
:104CC00000000000000000000000000000000000E4
:104CD00000000000000000000000000000000000D4
:104CE00000000000000000000000000000000000C4
:104CF00000000000000000000000000000000000B4
:104D000000000000F8B5C046F8BC08BC9E467047DD
:104D1000CD000000491800005D1D000005340000B2
:104D2000BD34000039350000B5350000F8B5C04687
:0C4D3000F8BC08BC9E467047A5000000BF
:104D3C0040420F000800002000000000C44C00009E
:104D4C00E44C0000A44C0000000000000000000037
:104D5C000000000000000000000000000000000047
:104D6C000000000000000000000000000000000037
:104D7C000000000000000000000000000000000027
:104D8C000000000000000000000000000000000017
:084D9C0000000000000000000F
:00000001FF
