:10000000300B00200901000005010000050100007F
:1000100000000000000000000000000000000000E0
:1000200000000000000000000000000005010000CA
:10003000000000000000000005010000A11C0000FD
:100040000501000005010000050100000501000098
:10005000DD0F0000050100000501000005010000A2
:10006000050100000501000005010000000000007E
:100070000000000059140000050100000501000007
:1000800091100000050100000501000000000000C3
:10009000000000000501000005010000050100004E
:1000A0000501000010B5064C2378002B07D1054B45
:1000B000002B02D0044800E000BF0123237010BDD4
:1000C0007000002000000000F05F0000084B10B539
:1000D000002B03D00749084800E000BF0748036829
:1000E000002B00D110BD064B002BFBD09847F9E741
:1000F0000000000074000020F05F0000F05F0000CE
:1001000000000000FEE700001148124970B5884267
:1001100004D00023104CCA18A24213D300210F4B65
:100120000F4A934212D3FF210E4B0F4A8B43936029
:1001300080230E4A51680B4353600D4B98470D4B7B
:100140009847FEE7C55804331560E4E702C3E8E7C3
:10015000F05F000000000020700000207000002010
:100160002C0700200000000000ED00E000400041EE
:10017000A5520000D91E0000014A024B1A607047C8
:1001800040420F00000000200A4A030C1B04934267
:1001900008D0094A934200D070470022074B1A70DA
:1001A0005A70F9E7C2B2054B000AC0B21A70587013
:1001B000F2E7C046000014A5000015A58C00002041
:1001C0000222014B9A7070478C00002070B5012804
:1001D0002BD0002835D1334CA378042B3ED0A37804
:1001E000002B2FD0A378022B2CD0A378012B29D061
:1001F000A378072B25D1E378002B37D12379002B67
:1002000041D02379012B21D1274D2B780133DBB24B
:100210002B702E78254BF6B29847864216DB0023CA
:100220006371237101332B7010E01E4CA378072BF0
:1002300017D0A378042B0ED0A378032B0BD0032365
:10024000A37070BD0623A3700023E3702000184B39
:1002500008309847F5E7A378042BF2D10523A37063
:10026000EFE7E378002B0BD1E070EAE70E4A537812
:100270000133DBB253705378052BE7DD5070E5E7AF
:100280000023E370DDE763790133DBB263716379E7
:10029000032BDBDD0023044A6371013323711370E8
:1002A000D4E7C0468C000020040000202924000070
:1002B00065140000F8B50700084E094D094C4021AF
:1002C0003800B047A847FA204000A0473800002176
:1002D000B047A847FA204000A047F0E7B11200005D
:1002E000E1120000351C0000F0B5304FC646FB7827
:1002F00005205A1E93415B42184000B52C4B98478D
:100300002C4B98471426030700D5083E00242A4D9D
:10031000200001343100E4B2A847062CF8D1FB7864
:10032000002B17D0254E1120737800210024244F74
:1003300001E03B19187A14314900C9B2A8470134C9
:100340007378E4B221009C42F3DD1E4B984704BC55
:100350009046F0BD3B79002B1FD03B79012BF4D1A7
:10036000164B06211F78184B013F38009847174B52
:1003700006000621380098469847114C605C2821F9
:10038000A847A319187A0F21A847701C0621C04757
:100390006418207A0F21A847D7E714211220A84714
:1003A0007B79074A2821D05CA847CEE78C00002043
:1003B00075120000551C0000B1120000040000205E
:1003C00008540000E1120000C14700008D49000000
:1003D000F0B5C646454B00B59847454B9847454B49
:1003E0009847454B9847454B9847454B9847454B51
:1003F0009847002800D175E0434B9846984700285D
:1004000028D04248424B98474248434B98470A24D9
:10041000424B00209847C0472021414DA847414FFB
:10042000414E10211220A847B8476420B047002150
:100430001220A847013CB8476420B047002CF0D1F7
:10044000C04700280AD000210020384B984704BC40
:100450009046F0BD3648374B9847D8E7364C23795D
:10046000002B31D0354B364D1B78DBB22370FF218A
:100470000020A8476070277832206578B04731485F
:10048000FFB2EDB22D02384328432F4B98472F4B34
:1004900098473220B0472E4B984700210020234B2D
:1004A000984720786178C0B2C9B25022294B98474A
:1004B0002000294B08309847284C294D00E0A847D8
:1004C000A0470128FBD0C2E76279264BD200103347
:1004D0009B1819791A4D0139C9B21F68A8473B5CAE
:1004E0002370C4E7204B9847204B9847AD19000074
:1004F000251B0000B511000069080000252400003C
:10050000C1200000610D0000C10D00008901000044
:100510002D0F0000C1010000210F00007512000026
:10052000B1120000E1120000351C00009122000011
:10053000CD010000390F00008C00002004000020D5
:10054000811C0000000014A5CD0D0000E90E000084
:10055000710E0000ED220000651400005923000018
:100560006122000008540000B50D0000B502000033
:10057000F8B5954B45469846944B4E469946944B54
:100580005746DE469A46934BE0B59B46924C934FB6
:10059000A378072B00D0C047A378DBB2072BF7D88E
:1005A0004A469B00D3589F463220D8478C4B8D48F3
:1005B00098478D4B98473220D8478C4B9847072354
:1005C000A370E5E72379002B00D1D3E03B78DBB2C1
:1005D0002370FF210020D047607026783220657894
:1005E000D8478048F6B2EDB230432D027C4B284309
:1005F00098477D4B98473220D8477C4B98477C4A98
:100600007B7894469B0063441B6B0021323B7B60EC
:100610000020784B984720786178C0B2C9B2502248
:10062000754B9847754B764898470223A370AFE700
:10063000744B9847744B72489847744B9842A7D9AB
:100640002379002B00D1B1E03B78DBB22370FF218E
:100650000020D0476070267832206578D8476148FE
:10066000F6B2EDB22D023043C0E700232370637071
:10067000267832206578D8475A48F6B2EDB22D0276
:100680003043574B28439847574B98473220D84719
:10069000564B984720786178574BC0B2C9B2502268
:1006A00098470423A37073E7574B554898477B68D6
:1006B000984200D26CE74D4B98470223A37067E73E
:1006C0002379002B00D063E74F4B4D4898477B6858
:1006D000984200D25CE726782379F6B2002B57D0F7
:1006E0003B78DBB22370FF210020D0476070257873
:1006F000EDB2B5420AD020E03B78FF21DBB200200A
:100700002370D047607023789D4216D12379002B47
:10071000F2D13F4A63799446DB00634419790020A3
:100720000139C9B21E68D047335CFF210020237015
:10073000D047607023789D42E8D0227829486378BA
:1007400010431B021843264B98470123A3701FE751
:10075000304B9847002800D11AE720786178C0B262
:10076000C9B25022244B984700232548A370234B3D
:1007700098470DE7264A63799446DB00634419796C
:1007800000200139C9B21D68D0472B5C237020E7D7
:100790001F4A63799446DB006344197900200139CC
:1007A000C9B21D68D0472B5C23709CE7184A637957
:1007B0009446DB006344197900200139C9B21D68F1
:1007C000D0472B5C237042E761220000C853000031
:1007D000811C0000351C00008C000020040000205B
:1007E000CD0D0000000014A5E90E0000710E000000
:1007F0000854000091220000ED2200006514000062
:1008000094000020E9020000751400006F1700003A
:1008100018540000D90E0000F8B50026074D084C0A
:10082000084FA847A378022BFBD120786178C0B28B
:10083000C9B25022B847A670F3E7C0466122000053
:100840008C000020ED22000010B5044B98470028D2
:1008500001D1034B9847034B9847C046C10D000098
:10086000710500001908000070B5002201210F2059
:10087000444DA84700210F20434CA04702220221EB
:100880001920A84701211920A04740213F4A936918
:100890000B4393613E4A3F4B53805378DB09FCD1B5
:1008A00001213D4A13780B4313701378DB07FCD406
:1008B0005378DB09F9D1B023D1691B040B43D36111
:1008C000354A5378DB09FCD1344B136180239B01FB
:1008D000D360314A5378DB09FCD1022113780B43F2
:1008E00013702D4A5378DB09FCD18023274A1B0162
:1008F000116A0B431362264A294B53805378DB0954
:10090000FCD1AC23274ADB001380D37BDB09FCD16D
:1009100004335371234AD37BDB09FCD1A0231B0191
:100920001383204AD37BDB09FCD180231B01538333
:100930001C4AD37BDB09FCD10121537B0B4353734E
:10094000184AD37BDB09FCD1022113880B431380A7
:10095000144AD37BDB09FCD140335371114AD37B5A
:10096000DB09FCD18021C420FF240F4A81334902D6
:10097000FF33D15080001358A3433F3C234313500F
:10098000116070BD351A00008D1A0000000400408F
:10099000000C00400340000000180040FFFF000072
:1009A00014400000002C004200E100E0F0B50021FE
:1009B00083B00F20584B9847002200210F20574B3F
:1009C00098470521564B0F2098473220554FB8477E
:1009D00001A8554EB047554C554D05E04F2101A893
:1009E000A847002800D07DE06378002BF6D1514B5A
:1009F000514A63606368DB0700D578E08023DB0041
:100A00001383D37BDB09FCD180239B0053834A4AA9
:100A1000D37BDB09FCD140335371474AD37BDB09DD
:100A2000FCD1CF20636840005B08636063780133CA
:100A3000DBB26370B84701A8B0473D4D04E04F21D9
:100A400001A8A84700284DD16378002BF7D12123B6
:100A500063709023384A5B011383D37BDB09FCD19D
:100A600080235B015383344AD37BDB09FCD14033C1
:100A70005371314AD37BDB09FCD101A8B0472C4D1F
:100A800004E04F2101A8A84700282BD16378002B50
:100A9000F7D18023294ADB00116A0B431362E0235C
:100AA000274ADB001380D37BDB09FCD102211388AA
:100AB0000B431380224AD37BDB09FCD172B6102191
:100AC000C120FF251F4A8133FF33D15080001358C6
:100AD000AB433F3D2B431350116062B6012301200D
:100AE000237202E003230020637203B0F0BDC02331
:100AF000DB001383D37BDB09FCD18023DB00538332
:100B00000D4AD37BDB09FCD1403353710A4AD37BB6
:100B1000DB09FCD185E7C046F51A0000351A000054
:100B20008D1A0000351C000065140000980000209C
:100B3000891400000100721B002C004200040040D8
:100B40000028004200E100E0F0B5D6464F46464698
:100B5000C0B582B001A8754FB847754D754E05E018
:100B6000E12101A84900B047002858D11920A84721
:100B700004000128F4D000210F206F4B98476F4BE1
:100B8000002200210F20984698476D4B05210F2029
:100B90009A46984780236B4ADB00116A0B43136225
:100BA000A023694ADB001380D37BDB09FCD102213F
:100BB00013880B431380644AD37BDB09FCD172B6E4
:100BC000C0221020C124FF25604952008850A40093
:100BD0000A59AA433F3D2A430A51086062B65C4E57
:100BE00001A87361F360337633743376B847514D9F
:100BF00006E0CF2101A84900A847002800D077E0EF
:100C0000347EE4B2002CF4D07469FF2322009A43AE
:100C1000504B9A420DD005230024737202E04C4BD6
:100C20005C720024200002B01CBC90469946A2468B
:100C3000F0BDE3B27376013B3E2BECD801A8B84778
:100C40003C4B994604E04F2101A8C847002826D113
:100C50007378002BF7D1FF231C403F4B3F4A9C4643
:100C6000644474607368DB0749D48023DB0013831A
:100C7000D37BDB09FCD180239B005383374AD37B92
:100C8000DB09FCD140335371344AD37BDB09FCD1FF
:100C900073685B08736073780133DBB2737001A80B
:100CA000B847244B994604E04F2101A8C8470028C3
:100CB00021D17478E4B2002CF6D1002201210F205A
:100CC000C04700210F20D047012301A83370B4761C
:100CD000B847184D05E0E42101A8FF31A8470028D6
:100CE00021D1B47EE4B2002CF5D00223337299E70F
:100CF0000223737296E703230024737292E7C023E2
:100D0000DB001383D37BDB09FCD18023DB0053831F
:100D1000124AD37BDB09FCD1403353710F4AD37B9A
:100D2000DB09FCD1B4E7042373727BE76514000090
:100D30000D1B000089140000F51A0000351A000090
:100D40008D1A0000000400400028004200E100E08D
:100D5000980000200000721B0100721B002C004252
:100D600030B5012183B00F200C4B984701A80C4BE4
:100D700098470C4C0C4D05E0C82101A84900A84734
:100D8000002807D11920A0470028F5D0074B984725
:100D900003B030BD064B9847FAE7C046F51A00008D
:100DA000651400000D1B000089140000490B0000B1
:100DB000AD090000014B587A7047C04698000020EA
:100DC000014B587E7047C0469800002070B582B035
:100DD0000600234B01A89847224C234D04E04F21E5
:100DE00001A8A847002838D16378002BF7D16660A6
:100DF00063681E4ADB071CD48023DB001383D37B8C
:100E0000DB09FCD180239B005383184AD37BDB0989
:100E1000FCD140335371154AD37BDB09FCD101204F
:100E200063685B08636063780133DBB2637002B0B0
:100E300070BDC023DB001383D37BDB09FCD180238F
:100E4000DB005383094AD37BDB09FCD14033537168
:100E5000064AD37BDB09FCD1E1E70020E7E7C04687
:100E6000651400009800002089140000002C004246
:100E700030B583B001A8144B9847144C144D04E0CE
:100E80004F2101A8A84700281BD16378002BF7D178
:100E90002123637090230F4A5B011383D37BDB090B
:100EA000FCD180235B0153830A4AD37BDB09FCD14D
:100EB00040335371074AD37BDB09FCD1012003B0D7
:100EC00030BD0020FBE7C0466514000098000020FC
:100ED00089140000002C0042024B587843425841CC
:100EE000C0B270479800002030B583B001A8094B0C
:100EF0009847094C094D04E04F2101A8A847002854
:100F000005D16378002BF7D1012003B030BD00205C
:100F1000FBE7C0466514000098000020891400001B
:100F2000014BD8617047C04698000020014B186201
:100F30007047C04698000020014B58627047C04679
:100F4000980000200300823BFF3B10B5FE2B07D822
:100F50001E4BDA685208DA601A7C01321A7410BD2E
:100F60001B4BC318FE2B0BD91A4BC318FE2B12D8E0
:100F7000164C237C202B1ED000232374E360EEE765
:100F8000124BDA685108802212060A43DA601A7C92
:100F900001321A74E3E7104B9C466044FE28DED809
:100FA0000A4CE369002B00D098470123A376002365
:100FB0002374E360D3E7E368636101232376236A44
:100FC000002BD9D060699847D6E7C046980000202A
:100FD0007FFCFFFF7FF8FFFF7FF0FFFF802370B5EE
:100FE000224A9B01116919200B431361204B98473A
:100FF000204C05002378002B23D11F4A012D27D038
:101000001E4B5380D37BDB09FCD1108A937B80B2CB
:10101000DB0700D51A48237A012B02D0194B9847D9
:1010200070BD626A002AFBD003001749813B9BB266
:101030008B4217D980231B029842F1DD0120904793
:10104000EEE70100114B0F2098470B4A012DD7D135
:1010500040235371D37BDB09FCD10121937B0B43EC
:101060009373DDE700209047DAE7C04600180040A0
:101070000D1B000098000020002800421080FFFF98
:10108000FFFF0000450F00007F7F0000F51A000001
:101090000121334B01209A7B0A439A73314A5178DC
:1010A0001F2924DD5178202906D05378202B02DD1A
:1010B000002353705360704751780131C9B25170A9
:1010C00000215160A02212011A831A00D37BDB0990
:1010D000FCD180231B015383214AD37BDB09FCD144
:1010E000403353711E4AD37BDB09FCD1E3E75168DF
:1010F00008421AD18021C9001983D97BC909FCD1C2
:101100008021890059831649CB7BDB09FCD1403310
:101110004B711349CB7BDB09FCD153685B085360EF
:1011200053780133DBB25370C5E7C021C90019837E
:10113000D97BC909FCD18021C90059830849CB7BDF
:10114000DB09FCD140334B710549CB7BDB09FCD17A
:1011500053685B08536053780133DBB25370AAE7DE
:10116000002C004298000020F0B5C6460F4B104FEF
:101170009846431CFF333E0000249C4600B54C3685
:1011800062463B00002511780132A14201DD196859
:101190000D430433B342F6D14246A300AA430134BF
:1011A000C250402CECD104BC9046F0BDFF0FCF01E3
:1011B000505400008A2210B5234C92000021234B8A
:1011C00020009847224B20009847224B22491A685A
:1011D0000A431A6099618023204A5B00116A0B431D
:1011E00013621F4A1F4B53805378DB09FCD1C8237D
:1011F0001D4A9B001380D37BDB09FCD17823FF338E
:101200001383194AD37BDB09FCD10121537B0B43A8
:101210005373154AD37BDB09FCD1C324134BA400C1
:101220001959134808408021C901014319518021EF
:1012300089011960022113880B4313800A4AD37B6A
:10124000DB09FCD110BDC046C4000020FF520000E5
:101250006911000000440041FF0FCF01000400406D
:10126000000C0040134000000020004200E100E0BC
:10127000FF00FFFFF0B54021402800DC011C8A2060
:10128000002228250124084F084EC9B240007B5D8A
:101290006340DBB24343F3189B180133FF33013241
:1012A0001970132AF3D1F0BDC4020020C40000203D
:1012B0000200402900DD402128230748C35C0120AB
:1012C00058408A235B005843044B1818801801309B
:1012D000FF3001707047C046C4020020C4000020E7
:1012E00028238A2070B5194C4000E65C273B5E40FD
:1012F0007043174D174B281898472C23E35C5B0766
:1013000004D12C210722635C1A42FCD02C21072235
:10131000635C1A42FCD12823E654E25CE15C273B83
:101320005A401433FF335A434B4301320133FF32E7
:10133000FF33AA18EB1813CB13C211001A680A6006
:101340009A888A809B798B7170BDC046C402002048
:10135000C400002069110000384AF0B546469046A6
:101360004F46D646302341464C25C0B5C95C344B68
:101370004E009B19C0205D5B28244346314FC005B9
:101380003A001C5D0669304BE4B23D831E40D37BBE
:10139000DB09FCD1002933D18A22520062432B4D54
:1013A000C0335159DB0531431961AC1861683143D1
:1013B0001961C046C046C046254FA1683C00314374
:1013C0009A461961234B0C3200209946AD185C34C3
:1013D0007C3700E001CCC847524608CD3343136147
:1013E000BC42F7D130230C224146CA540121154A90
:1013F000937B0B4393731CBC90469946A246F0BD69
:10140000C020220112199200121952180F4C92009A
:10141000125901311643C005C9B206613F2909DDE1
:101420002C21424644463020525C23540132D3B230
:101430006354DBE730234246D154D7E7C40200208F
:10144000505400000020004200F030FEC400002094
:10145000D05400000D1C000010B5014B984710BD82
:101460005913000010B5024B04009847206010BDCE
:10147000551C000010B50400024B98472368C01AA1
:1014800010BDC046551C000070B50500044B0C0093
:1014900098472B68C31A0020A3424041C0B270BDD8
:1014A000551C00000B6803607047C0460B6812684B
:1014B0009B1A03607047C04670B50A68046813142D
:1014C000251412042404240C120C11002600694374
:1014D0005E43624389190C140904891891429241B0
:1014E0006B4352421B199B18DA17DC13A2420CD132
:1014F000074C0C1912199142894149425B1A1B048D
:10150000120C13430133036070BD80231B06FAE7FE
:101510000080FFFF70B512680C68131425141204C4
:101520002404240C120C1100260069435E4362431C
:1015300089190C1409048918914292416B43524253
:101540001B199B18DA17DC13A2420CD1074C0C199B
:1015500012199142894149425B1A1B04120C134330
:101560000133036070BD80231B06FAE70080FFFF94
:1015700070B516680D68002E35D0EA17AB185340C9
:10158000F217B1185140802252028B4205D949000E
:1015900052008B42FBD8002A25D00024002907DA0C
:1015A00016E08B4201D314435B1A5B00520801D052
:1015B000002BF6D100228B425241A418754001D471
:1015C000046070BD80231B069C42F9D06442F7E79B
:1015D0008B4205D249085208ECD0002BE1D1EDE74F
:1015E0005B1A1400F6E780242406E9E700680A681D
:1015F0000123904200DC0023D8B2704700680A68DB
:101600000123904200DB0023D8B270470B681268B8
:101610009B1803607047C0460B6803607047C04664
:1016200010B504004C220021014B9847200010BD4A
:10163000FF520000F0B5C64680464646444600B517
:101640000F004C220021074B9847074D4C362000D5
:1016500039000434A847B442F9D1404604BC90464E
:10166000F0BDC046FF520000151F0000F0B5CE4689
:10167000474680B50D0083B0184B4C2200218146AF
:1016800098476B46DE1C00233370AB68002B23D0D9
:101690003200290001A8EB689847114B01A9484680
:1016A000984698474B4601241F1DAB683470002BA9
:1016B00012D03200290001A8EB6801349847E4B247
:1016C000380001A9C0470437132CEED1484603B0B7
:1016D0000CBC90469946F0BD024B9847FF52000063
:1016E000151F00003D4400007047C046F8B50500D6
:1016F0000024064F064E2800B847010020000134A0
:10170000E4B2B0470435132CF5D1F8BDAD1F00008D
:10171000B1120000F0B5CE464746904680B587B07E
:10172000194F04000D0004A81100B847174E04A972
:1017300005A8B047164B05A901A89847414605A83A
:10174000B84705A902A8B0474C239946114B124E41
:101750009846124FA144210001AA03A8B0472900CE
:1017600002AA04A8B04704AA03A905A8C0472000FC
:1017700005A90434B84704354C45ECD107B00CBC7E
:1017800090469946F0BDC046A5140000051F000014
:101790001D1F0000B51F0000FD1F0000151F0000E9
:1017A000F8B5070004000D00044E4C372900200056
:1017B0000434B0470435BC42F8D1F8BD51200000D4
:1017C0004C23F0B54746CE4699460E4B04000D001B
:1017D000984680B50C4E0D4F83B081442A002100FD
:1017E0006846C047694601A8B847200001A90434EB
:1017F000B04704354C45F1D103B00CBC9046994636
:10180000F0BDC046B51F0000151F0000491F0000B5
:101810004C23F0B54746CE4699460E4B04000D00CA
:10182000984680B50C4E0D4F83B081442A002100AC
:101830006846C047694601A8B847200001A904349A
:10184000B04704354C45F1D103B00CBC90469946E5
:10185000F0BDC046D91F0000151F0000491F000041
:101860001E213A4A53688B431C390B435360384A54
:10187000063193690B4301219361364A13780B4378
:1018800013701378DB0702D55378DB09F9D1802177
:10189000314A136A8B4313622E4B304A9A60304AA6
:1018A0005A605A78D209FCD18622D2015A80294A3C
:1018B0005378DB09FCD18021274A938C8B43938496
:1018C000D368DB06FCD5C021D36A09011B0C1B04BD
:1018D0000B438021D362D36AC9049B019B090B434C
:1018E000D362D36A1F49194080235B020B43D36242
:1018F000194AD368DB06FCD58123918C9B000B43EE
:101900009384154AD368DB06FCD5802193680B438A
:101910009360936840390B439360936830390B436D
:1019200002219360938C0B4393840B4AD368DB06AC
:10193000FCD5094A93681B06FCD593685B06F9D56C
:10194000054A9368DB06FCD57047C046004000415D
:1019500000040040000C004000080040034000006C
:1019600003060100FFFF00FC70B5202101250224C1
:101970000C4E0D4A137E2B431376137B23431373B4
:10198000537EDB09FCD1137EDB07FCD5508BF30EB5
:1019900070404001034301391E000029EAD11800BC
:1019A00070BDC04619FC27A9004000421A4B10B573
:1019B00098470023194A93605378DB09FCD1184BF0
:1019C0005360164A5378DB09FCD1802315495B022A
:1019D000086A03430B62144B5380104A5378DB09A7
:1019E000FCD1124A5370537EDB09FCD1104B1361BA
:1019F0000E4A537EDB09FCD180239B0093800B4A67
:101A0000537EDB09FCD1022113780B431370074A84
:101A1000537EDB09FCD110BD61180000000C0040B2
:101A2000000703000004004017400000004000428F
:101A300018180000012330B5834001291BD0114C38
:101A4000636002290ED004240021002A0ED00E4D1E
:101A50000C49AC4660440470012A11D0022A00D11E
:101A60004B6130BD06240221002AF0D1064B9C4672
:101A700060440170F5E7034904248B600021E4E72A
:101A80008B61EEE7004400414044004130B500293D
:101A900022D00239C9B20023052918D9C20713D5AB
:101AA0000F210425104CAB40A44642086244147830
:101AB00021400B43DBB213700C4B01229C46604467
:101AC00003781343037030BDF0210025EAE7084B8B
:101AD0005B5CC207F8D5E3E7044B01229C466044F7
:101AE000037893430370EEE73044004140440041E3
:101AF0004C5500000123044A8340002901D0936122
:101B000070475361FCE7C0460044004102000120D9
:101B10009040034B1B6A1840431E9841C0B2704767
:101B200000440041F0B5DE4657464E464546C020CB
:101B30002A492B4B2B4AE0B54B60136A00061B0267
:101B40001B0A0343136200238B6007330B60802161
:101B5000136A09061B021B0A0B4383B01362224B54
:101B60009847002836D0214B21499B4698470C1EA8
:101B700000D1013460221F4E9446330063449A46DC
:101B80001D4B1E4F99461E4B984620001D49D847B5
:101B9000454620004D431B49C8477843144A2B1A39
:101BA000AC18241A854200D31C0023021B0A08C665
:101BB0005645EAD10F4BDB6D01935A4253410D4A12
:101BC00013660023536603B03CBC90469946A24678
:101BD000AB46F0BD054B0C4C9B46CBE710E000E05C
:101BE0007FBB000000ED00E069190000B94700006C
:101BF000ABFFFF7F28030020AD460000B32F00009D
:101C00004E9C0000A4D1000097D32D0180B584B074
:101C100000AF78600023FB60FA687B689A4204D2C8
:101C2000C046FB680133FB60F6E7C046BD4604B022
:101C300080BDC046002809D0054A936EC018936E37
:101C4000984203D0C046936E9842FBD17047C0467D
:101C500028030020014B986E7047C04628030020DF
:101C600000B583B0009001916A4603496846034B72
:101C7000984780B203B000BD28030020B11C0000CB
:101C800000B583B0009001916A4603496846034B52
:101C90009847C0B203B000BD28030020B11C00006B
:101CA000024A936E013393667047C04628030020B2
:101CB000F0B557464546DE464E461300E0B5904621
:101CC0001B68526885B0D31A0C0001931900594B58
:101CD0008246994249D80E0001363100564B57488A
:101CE000984780235B049A4601239946002301000C
:101CF00083469C467143666E0A235B42F31815D4F3
:101D0000B50065199B002F68226E1B59D0199842A7
:101D10000FD8DB1B9B1A6246013622662B60172EFA
:101D200011D962466266994210D8002633000E33FC
:101D3000E6E75046801A4A46C01BC31801362266A1
:101D40002B60172EEDD866669942D5D918005946F2
:101D5000394B9847030042461068181805B03CBC40
:101D600090469946A246AB46F0BD344B99423BD0D3
:101D70000B0E994600239B465B4602934B4621007F
:101D8000039302AA2E4B504698470A23616E5B428A
:101D90000006CB1826D48E009B00A6191F59226E70
:101DA00033689D18AF4210D3FB1A9B1A5A46013173
:101DB00022663360172913D95A466266019AC318FE
:101DC0009A42D9D39842D7D8C5E780256D04AA1A7C
:101DD000D31A0122DB190131226633601729EBD8AF
:101DE0006166EBE71833D6E70A23656E5B42EB18B2
:101DF0001DD4AE00A6199B003268216E18595318E5
:101E000098420AD3831A00225B1A22660135336096
:101E1000172D0AD9002262669DE780235B045B1AB6
:101E20009B1A01221B182266F0E7656693E71833B8
:101E3000DFE7C046FEFFFF00AD460000FFFFFF00EA
:101E4000B11C0000F0B557464E46DE4645466022BE
:101E5000E0B5194E9446330063449B46174B184C2B
:101E60009A46184B184F9946184B83B09846200055
:101E70001749D047454620004D431549C847784388
:101E8000144A2B1AAC18241A854200D31C002302D2
:101E90001B0A08C65E45EAD1074BDB6D01935A4227
:101EA0005341054A13660023536603B03CBC904679
:101EB0009946A246AB46F0BD28030020B947000072
:101EC00097D32D01AD460000B32F00004E9C0000BB
:101ED000A4D10000ABFFFF7F10B5034B9847034B25
:101EE0009847034B9847C04679010000D103000092
:101EF0004908000010B50400014B9847200010BDB0
:101F0000A514000010B50400014B9847200010BD37
:101F1000A51400000B6803607047C046802310B50D
:101F2000040082B05B020A000093694601A8044BDA
:101F3000984701A92000034B9847200002B010BD2C
:101F4000AD140000A514000070B50E00002582B08D
:101F50000400019501A930000A4B9847002803D0DE
:101F60002560200002B070BD80256D02019501A999
:101F70003000054B98470028F2D131002000034B78
:101F80009847EEE7FD150000ED150000A5140000D0
:101F900010B504000B8882B0019301A9024B984749
:101FA000200002B010BDC046A514000000688012D9
:101FB000C0B2704710B5040082B001A8044B984726
:101FC00001A92000034B9847200002B010BDC04675
:101FD0000D160000A514000010B5040082B001A881
:101FE000044B984701A92000034B9847200002B0FA
:101FF00010BDC046AD140000A514000010B50400CB
:1020000082B001A8044B984701A92000034B9847D0
:10201000200002B010BDC04615150000A514000038
:1020200010B5040082B001A8044B984701A9200014
:10203000034B9847200002B010BDC0467115000048
:10204000A514000010B5014B984710BDFD15000008
:1020500010B50400014B9847200010BDB9140000D2
:1020600070B5802684B0B602114B02AA0400029615
:1020700003A8984703A901A80E4DA84780235B0237
:10208000039303A901A80C4B984700280BD102A980
:1020900003A8029601AA094B984703A92000A84764
:1020A000200004B070BD01A92000A847F8E7C04691
:1020B00015150000A5140000FD150000AD1400006A
:1020C00070B50B4C0025260084B001A8C436002151
:1020D000084B2560984701A93000074B9847211D00
:1020E00000223000054B9847054B1D6504B070BDBC
:1020F000D804002055240000CD230000DD2300007B
:1021000058050020F0B54646D6464F462023C0B5B8
:10211000464CA8B0E55C8046002D24D1444C15AF58
:102120002200210008CAC4313800424EB047C42200
:102130002368A2580133236093426BD245463C008A
:102140003D4E21002800B047043428AB04359C42A2
:10215000F7D13800394B9847404628B01CBC904610
:102160009946A246F0BD324E324D3200310008CAC7
:10217000C43102A8A847A946314D15AF29002A004D
:10218000153154322B6DFF313800C847C4223368F3
:10219000B25801333360934201D3002333608A2263
:1021A0002B6D5200AA5801332B65934201D30023B3
:1021B0002B65244B606A994698478246A06AC847B7
:1021C000214B011C504698478F21204BC905984749
:1021D000FC211F4B890598471E4B984701AA019087
:1021E0001D4B390002A89847636AA26A01336362F3
:1021F000934211D24546104E02AC2100280004340F
:10220000B0470435BC42F8D120000C4CA04702A8CE
:10221000A047A1E7256091E72900D0220F4B50315C
:102220003000984700222023E254E3E758060020BC
:10223000D8040020ED230000F51E0000E916000080
:1022400058050020CD510000BD4C00004D4F00004E
:10225000994900008D51000015170000ED52000053
:1022600000B595B001A8064B984701A8054B9847C3
:10227000054B984701A8054B984715B000BDC046CF
:1022800005210000ED160000E1120000E916000033
:10229000F0B5C6460F4C0026250080460F0000B55D
:1022A00040C584B028000C4B9847C434414601A86F
:1022B0000A4B984701A92000094B98473A0029008A
:1022C0002000084B98472023074AD65404B004BC8A
:1022D0009046F0BDD80400201524000055240000CD
:1022E000CD230000DD23000058060020F0B5CE46C7
:1022F0004746134C002526008146884680B5543653
:1023000085B0256530000F4B15341700FF34984712
:10231000494601A80C4B984701A920000B4B984750
:102320004246310020000A4B984701212022094BE8
:102330005D629F62995405B00CBC90469946F0BD11
:10234000580500201524000055240000CD2300006E
:10235000DD230000580600202023014AD05C70478E
:102360005806002070B5084C084E201DB0472000CC
:10237000074DC430A847074C20005430B047200018
:102380001530FF30A84770BDD8040020012400009C
:10239000AD230000580500207047C04610B504006A
:1023A000014B9847200010BD211600000A2303604E
:1023B000024B4360024B83607047C0469923000084
:1023C0009D23000001604260836070470B680360DA
:1023D0004B6843608B68836008007047030010B54A
:1023E00008005B681100984710BDC04670B5040036
:1023F0000800110085681A002000A847200070BD61
:1024000010B50400C0220021014B9847200010BDE8
:10241000FF52000010B5C0220021014B984710BDAB
:10242000FF5200007047C04610B5084908780028E0
:102430000AD10130064A00E0180010325468431CEB
:10244000DBB2002CF8D1087010BDC0468406002015
:10245000D456000070B50D4A04000A2003E0103283
:10246000506800280AD013788B42F8D1D368010055
:1024700092682000064DA847200070BD054B064A13
:102480000A212000024DA847F6E7C046D4560000B6
:10249000C5230000A12400009D2400007047C04611
:1024A00010B50400014B9847200010BD2116000014
:1024B000012A00D1016000207047C046F0B5CE4629
:1024C000474680B5157804228B5E8BB01B040893B9
:1024D000C8230E681B04099309AA08A9374B0400F6
:1024E00004A8984732793100D3009B185B009B18F1
:1024F000334A05A8D3185D5D324BAD009846984726
:10250000314905AA691806A8304EB04706A908A89F
:10251000C04708A909A82E4FB84709AA04A907A8C7
:102520002C4B98472C4B07A901A8984701A902A852
:10253000C047C02309AADB0202A904A80993B04737
:10254000049B1D141B041B0CAAB20593002B2CD05A
:10255000224B9946052A26D06B1CDBB29B004B44CC
:10256000984680232D045B02079305AA1C4B07A9FC
:1025700008A8AD0B9847290008AA494409A8B04704
:1025800005AA414606A8B04703AE06AA09A930002D
:10259000144B984731002000B84720000BB00CBC0A
:1025A00090469946F0BD9846DBE72D040B49AD0BEC
:1025B00003AE49193000C047ECE7C04621200000B7
:1025C0007C550000A5140000F05500001515000012
:1025D000051F0000D91F0000911F0000A457000034
:1025E000AD1400000D160000012A05D0022A01D109
:1025F0000CC90CC0002070470160FBE770B588B0C3
:1026000005001100144C01A8A04701A905A8A04786
:10261000802307AA5B0405A906A8104E0793B047BC
:10262000069B04A8190C0E4B8900C918A0470D4B36
:1026300006AA04A903A80693B0470B4B07AA079361
:1026400003A902A8094B984702A92800084B9847FC
:10265000280008B070BDC046A51400001515000084
:10266000985A0000CD4C000033B300000D16000056
:10267000051F0000072210B50A40084982B09200E9
:1026800018310400891801A8054B9847002301A9B7
:1026900023712000034B984702B010BDA4570000DF
:1026A000A514000019160000F0B5DE465746454651
:1026B0004E46E0B53C4BA1B00C933C4B83460B938C
:1026C0000DA83B4B0C0002910392984720AB994612
:1026D000384B394F9A46394B083498460DAD268809
:1026E000002E5CD00222A35E07A91B0407933304CB
:1026F000089308AA06A8D04706A905A8B84705A9BF
:1027000007A8B8470B9B002B4BD00C9B07AA09A925
:1027100008A80193984708A92800C0476388013397
:102720009BB2B3422DDA043563800434A945D6D177
:102730000B9B002B03D009A9032208009847029B9A
:1027400009A90993039B58460A931D4B0C931D4BF3
:102750000B931D4B98470B9B002B03D009A9032219
:10276000080098470DA95846184B98470DA8184BD4
:102770009847584621B03CBC90469946A246AB4685
:10278000F0BD0023134963806420134B9847043540
:1027900020800434A945CBD02688002EA2D10696ED
:1027A000AAE70E4B9847C046FD250000B124000063
:1027B0002116000021200000A5140000151F0000B4
:1027C000BD240000E92500006D160000A1170000DF
:1027D000E9160000C4090000611C00003D4400002F
:1027E000012A00D1016000207047C046012A00D1B3
:1027F000016000207047C046F0B5CE46474680B520
:10280000167804228B5E8BB01B04089396230F006E
:102810000D685B04099309AA08A9414B040004A8A8
:1028200098472A792900D3009B185B009B183D4AE2
:102830003D4DD3189E5D05A8A8473C49B60005AAA2
:10284000711806A83A4EB04706A908A8A847394B00
:1028500008A909A89846984709AA04A907A8364BC9
:102860009847364B07A901A899469847396806A8A2
:10287000A031A84706A907A8C04707AA304B01A95D
:1028800008A8984708A909A8C8472E4B09A901A874
:10289000984701A902A8A847E02309AA9B0302A917
:1028A00004A80993B047049B1F141B041B0CBAB265
:1028B0000593002B2BD0244B9946372A25D07D1C1D
:1028C000EDB2AD004D4480233F045B02079305AA9F
:1028D0001E4B07A908A8BF0B9847390008AA49440E
:1028E00009A8B04705AA290006A8B04703AE06AA62
:1028F00009A93000164B984731002000C04720003E
:102900000BB00CBC90469946F0BD1D00DBE73F04C0
:102910000D49BF0B03AEC9193000A847ECE7C0460C
:10292000212000007C550000A51400003C5600004A
:1029300015150000051F0000D91F0000911F0000A1
:10294000B51F0000151F0000DC570000AD1400008B
:102950000D160000012A05D0022A01D10CC90CC0B5
:10296000002070470160FBE7F0B5DE4657464E4653
:102970004546E0B58BB01100344D070001A8A847CB
:1029800001A903A8A847802309AA9B0303A904A8B7
:102990002F4E0993B047049B1C141B041B0CA2B2BE
:1029A0000593002B42D01F2A3CD02A4B651C984629
:1029B000EDB2AD00454407AB994680235B02079317
:1029C000240408AB18009A4605AA234B4946A40BD9
:1029D000984721005246414409A806ACB04705AAD1
:1029E00029002000B04702AB984618001B4B22007C
:1029F00009A99B4698471A4D5246414648460895B4
:102A0000B04709AA494620000995D8472100380057
:102A1000144B984738000BB03CBC90469946A246F0
:102A2000AB46F0BD0B4B98461D00C4E72104094C92
:102A300002AB890B091918009846A84707AB9946BD
:102A400008AB9A46054B06AC9B46D4E7A51400009C
:102A500015150000185B0000AD1400000D160000F5
:102A6000CD4C0000051F000070B588B005001100B6
:102A7000144C01A8A04701A905A8A047802307AAD4
:102A80005B0405A906A8104E0793B047069B04A84F
:102A9000190C0E4B8900C918A0470D4B06AA04A9B2
:102AA00003A80693B0470B4B07AA079303A902A8F4
:102AB000094B984702A92800084B9847280008B0FE
:102AC00070BDC046A514000015150000985A0000FE
:102AD000CDCC000066660000AD140000051F0000AC
:102AE000F0B54746CE46040080B5070080468946CB
:102AF000254E87B0083454379621C82089004000FD
:102B0000B047411E050089B20020B0472580608093
:102B10000434A742F0D11D4B2B21059348461C4B92
:102B20009847434605A918711A4C4046A0471A4BCE
:102B30009847A023DB020193184B000402934B46F5
:102B4000009001AA6946DB0715D503A8144B9847E6
:102B500002AA03A904A8134B9847134B04AA02A97D
:102B600005A89847404605A9A030A04707B00CBC6F
:102B700090469946F0BD04A8094B984702AA04A9BB
:102B800005A8084BEDE7C046611C00009A1900003B
:102B9000AD46000019160000C10D000033330000DF
:102BA0007115000015150000AD140000F0B5DE46EB
:102BB00057464E464546E0B50D0006006D4BB3B096
:102BC0000B936D4B01900A936C4B029103929847C3
:102BD0006B4B2C009B466B4B5435AA4699463500EF
:102BE000694F08342688002E00D1ADE00222A35E92
:102BF0000CA91B040C9333041F931FAA07A8D847E2
:102C000007A904A8B84704A906A8B8470A9B002B3F
:102C100000D1ACE01FAB98460B9B06AA08A9404622
:102C20000093984741462800C847638801339BB208
:102C3000B34200DB76E06380043404355445D1D1DF
:102C40000A9B55464646002B03D008A903220800DC
:102C500098474E4B0CA8F3604D4B0CACB360474B00
:102C60009847474B1FAE9A464A4BB0469B462E8824
:102C7000002E00D179E00222AB5E07A91B04079366
:102C80003304089308AA06A8D04706A905A8B847A0
:102C900005A907A8B847219B002B68D0414607AA81
:102CA000CB6808A8984708A92000C8476B8801335B
:102CB0009BB2B3424ADA04346B800435A045D6D1C6
:102CC0004646B368002B03D003224146404698474E
:102CD000029B08A90893039B300009932E4B0B938A
:102CE0002E4B0A932E4B98472E4B31000CA8984739
:102CF00030002D4CA0470A9B002B03D008A90322CB
:102D000008009847019D0CA92800284B98470CAB58
:102D10001800A047280033B03CBC90469946A24614
:102D2000AB46F0BD00239621C82063808900400097
:102D3000184B9847208004340435544500D17FE770
:102D40002688002E00D051E7079659E700238021FE
:102D50006B8089002820D847043428800435A0459A
:102D6000AED02E88002E00D085E706968DE7104B5A
:102D70009847C04669290000E1270000211600009D
:102D800021200000151F0000A5140000692A000082
:102D9000ED270000611C0000F92700005529000004
:102DA0006D160000A1170000E9160000C117000011
:102DB0003D440000F0B5DE4657464E464546A22249
:102DC000E0B50C0093B0059004915200694B0021CE
:102DD0006948984720222300944680330393674B29
:102DE000A1469A46664B63449846664B9B464A46C4
:102DF0004B4694785B7824021C43D3781C19624BB1
:102E0000A4B29C4203D9614B9C466444A4B24B4695
:102E1000250A9D705C708023049A07A9D65C773BD5
:102E20009C46B44463464A460293127823061B0C20
:102E3000019208A80793ADB2554A9047EF1F07A922
:102E400009A8D047BE4200DD85E0029BBB4200DC02
:102E500081E04B46DB7811AA103B1B041093C02382
:102E60009B03119310A90AA84A4B984780239B0201
:102E70000F930FAA0AA910A8464B98478023F64340
:102E80001B022412119310A9A41911AA0BA8424BDA
:102E90009847E4B23A49414E04E0013CE4B23900BB
:102EA000B84532D00F1D082CF7D80CA8D0473900F0
:102EB0000DA8D04708AA0CA90FA8D84709AA0DA9A0
:102EC00010A8D847344B10AA0FA911A8984711A9E8
:102ED0000EA80BAAD847019BE5009C46264B2D194E
:102EE00065449C46AD0065440EA92800B047002803
:102EF000D3D00EA911A8D047013C11A92800284B16
:102F00009847E4B23900B845CCD104239C46039BD2
:102F1000E1444B4500D06AE7059D224B28009847C5
:102F2000214C2600263663782800D900C91823785A
:102F30000234C918104B89009C46194B61449847CC
:102F40000435A642EFD1059813B03CBC9046994693
:102F5000A246AB46F0BDB542D7DB029B9D4200DAEC
:102F600077E704239C46039BE1444B4500D03EE7B2
:102F7000D2E7C046FF52000094030020F51E000077
:102F8000BC580000FD1F0000FF3F000000C0FFFF15
:102F90001D1F000021200000B51F0000452000007B
:102FA000151F00002116000054550000F0B54E46D4
:102FB0004546DE465746E0B55678137885B0F31A95
:102FC000019200931A00484B80460C009A4247D960
:102FD000464B03AD994600239B465B462B70FF236F
:102FE00021002A0040466B70C8470A23616E5B428D
:102FF0000006CB1832D49B001B598E009C46A619A4
:103000003368226E9F18BC451BD36746FB1A9B1A78
:10301000002201312266336017291DD95A466266A3
:10302000009AC3189A42D8D39842D6D8019A1078F9
:10303000C018C0B205B03CBC90469946A246AB460B
:10304000F0BD80277F04BA1AD31A012263440131EC
:10305000226633601729E1D86166E1E71833CAE7D1
:103060001600234B0136310022489A4698478023A8
:103070005B0498460023010081469C467143276EFD
:10308000656E0A235B42EB1813D49B001A59AB0000
:10309000E3181868C619964215D8101AC01B0135D6
:1030A00000271860172D17D963466366814216D82A
:1030B00000252B000E339B001A59AB00E31818684B
:1030C000C6199642E9D94646F71B381A80180135C9
:1030D00001271860172DE7D865668142D1D9276688
:1030E0004946D0470300A1E7FEFFFF00AD2F0000D7
:1030F000AD460000FFFFFF00F0B54546DE465746EF
:103100004E461300E0B585B05D880192494B1288A8
:1031100083460C009046AD1A9D423FD9464B009520
:103120009846FF231B049A4680235B049946534626
:103130002100039303AA5846C0470A23616E5B42ED
:103140000006CB1828D48E009B00A6191F59226EAA
:1031500033689D18AF4213D3FB1A9B1A002201312A
:1031600022663360172915D900226266009AC318B7
:103170009A42DCD39842DAD8019A128890464FE0FE
:103180004D46AA1AD31A0122DB1901312266336097
:103190001729E9D86166E9E71833D4E7274B0135E9
:1031A000290027489946984703006B439C46802393
:1031B0005B0483469A466146276E626E0A235B4231
:1031C000D31813D49B001E599300E3181868C5192F
:1031D000B54215D8301AC01B013200271860172AD3
:1031E00017D900236366814216D8002213000E33DC
:1031F0009B001E599300E3181868C519B542E9D918
:103200005546EF1B381A8019013201271860172A1A
:10321000E7D862668142D1D927665946C84703007C
:10322000434498B205B03CBC90469946A246AB4692
:10323000F0BDC046FEFFFF00F9300000AD460000C3
:10324000FFFFFF00F0B557464546DE464E46E0B567
:10325000A3B020AB9B46D14B08AC9946D04B4D4612
:103260009846D04B27009A46A1460390009128002B
:10327000CD49C047564628004E43CC4BCA499847D3
:10328000CB4BCC4A5843B518331A2D1A864200D37B
:103290001D002B021B0A08C7BB45E8D1002363664B
:1032A000009B3E009B464F46002B01D1BB4B9B46EB
:1032B000BC4B5D469A46BE4BB34699462800BA4978
:1032C000C047564628004E43B84BB74998474B462F
:1032D0005843B84A331AB5182D1A864200D31D0038
:1032E0002B021B0A08C75F45E8D1E36D08255A4247
:1032F00053412366002304AA137008335370AE4B66
:103300002E0006931023137130335371039BAB4A85
:1033100001938033029300239A465346F31A009395
:10332000934200D8D2E000239946FF339A46802387
:103330005B049B4607AD4B462B7053462A006B70CF
:1033400021009F4B04A89847030698460A23676EFE
:103350005B42FB1800D51FE19B00B900E658226EC6
:1033600063589818864200D205E1F31A9B1A00228E
:10337000013722666350172F00D807E1494600271E
:103380006166009943449942D5D39845D3D8904675
:1033900004AA12789246019A5344137004AB1B8915
:1033A000864A994604AB5E894B46F31A00939342D2
:1033B00000D80BE1834B07AD9A46FF231B049946C7
:1033C00080235B049B46A8464B4642460793210058
:1033D00006A8D0470A23676E5B420006FB1800D59B
:1033E000D8E09B00B900E658226E63589D18AE42A3
:1033F00000D2B3E0F31A9B1A002201372266635011
:10340000172F00D8B5E00021002761660099C31886
:103410009942D9D39842D7D8904604AA12899146A6
:103420004B44019A9BB253701B0A937004AB1B79F7
:10343000994604AB5E794B46F31A9A465F4B9A4520
:1034400000D8FCE05E4B07AD9946FF239846002369
:103450002B70434621002A0005A86B70C8470A2339
:10346000616E5B420006CB1800D591E09B00E358EB
:103470008E009C46226EA3599F18BC4561D36746B7
:10348000FB1A9B1A002201312266A351172963D926
:1034900000226266C3189A45D9D39842D7D804AAA5
:1034A00012799146019A4B44D370131D029A0193ED
:1034B0009A4200D104E104AB5E781B783F4A9A46F9
:1034C0005346F31A0093934200D92CE71E000136AD
:1034D0003100364B3C489847236E4643984680233C
:1034E0005B04414681469C46B046676E3A003B000D
:1034F0000E320A3B009300D4009AB8009200235881
:10350000A2585E18D51A63466D1A5B1A21585B1AC9
:103510009B18B24200D32B00B242924155427A1C12
:10352000290023500027172A00D817009845DDD915
:10353000180088461D4B2566676649469847030074
:1035400029E780277F04BA1AD31A01226344013184
:103550002266A35117299BD861669BE75D46AA1A8C
:10356000D31A01229B19013722666350172F00D905
:1035700049E767664AE75846821AD31A01229B191F
:10358000013722666350172F00D9F7E66766F8E621
:1035900018336BE7183324E71833DDE697D32D0192
:1035A000B94700004E9C0000A4D10000AD460000C9
:1035B000B32F0000ABFFFF7F0000FF3FFEFFFF00C7
:1035C000AD2F0000F9300000FFFFFF001E000136A4
:1035D0003100434B434898470100802371435B040B
:1035E00082469C46404688463A003B000E320A3BE3
:1035F000009300D4009ABE009200A359A258191853
:10360000D51A63462D1A1B1AA0591B1A9B188A42F9
:1036100000D32B008A42924155427A1C2800A351C4
:103620000027172A00D817009845DDD9804625665F
:10363000180067662A4B514698470300F0E6564645
:1036400001363100264B27489847010080237143FB
:103650005B0482469C46404688463A003B000E3258
:103660000A3B009300D4009ABE009200A359A258CE
:103670001918D51A63462D1A1B1AA0591B1A9B1824
:103680008A4200D32B008A429241013755422800DA
:10369000A3510022172F00D83A0017009845DCD913
:1036A0006266180025660E4B514698470300019A42
:1036B0004B44D370131D029A01939A4200D0FAE64C
:1036C000094B984701308300C0188023039A4000BB
:1036D000D05423B03CBC90469946A246AB46F0BDC0
:1036E000AD460000FFFFFF00C10D0000012A05D01C
:1036F000022A01D10B680360002070470160FBE7DC
:10370000F0B5CE46474680B5147800228B5E8BB06C
:103710001B04089396231B04099309AA08A9314B9B
:10372000060007A898473049304BA400611806AA44
:1037300008A82F4D0693A84708A909A82D4FB847F8
:1037400009AA07A968462C4B9847694601A82B4B44
:1037500098472B4B01A902A898469847802309AAAD
:103760009B0202A904A80993A847049B1C141B04EC
:103770001B0CA2B20593002B2CD0224B9946012A98
:1037800026D0631CDBB29B004B4498468023240464
:103790005B02079305AA1C4B07A908A8A40B98472E
:1037A000210008AA494409A8A84705AA414606A835
:1037B000A84703AD06AA09A92800144B9847290079
:1037C0003000B84730000BB00CBC90469946F0BDB5
:1037D0009846DBE724040B49A40B03AD0919280024
:1037E000C047ECE7212000003C56000033330100C5
:1037F00015150000051F0000D91F0000911F0000D3
:10380000A5140000E0580000AD1400000D160000E3
:103810007047C04610B50A4B84B00393094B009221
:1038200002936946084B04009847029B002B03D083
:103830000322694668469847200004B010BDC04680
:1038400001370000ED3600006D1600007047C046DD
:10385000C82310B5040084B012041B040292039321
:1038600003AA02A901A8064B984701A903A8054B82
:10387000984703A92000044B9847200004B010BDCE
:10388000212000006120000035160000012A00D12F
:10389000016000207047C04670B588B00500110077
:1038A000154C01A8A04701A905A8A047802307AA95
:1038B0005B0405A906A8114E0793B047069B04A810
:1038C000190C0F4B8900C918A047802306AA1B02B8
:1038D00004A903A80693B0478023DB01079307AA36
:1038E00003A902A8074B984702A92800064B98474E
:1038F000280008B070BDC046A514000015150000D2
:10390000985A00000D160000051F0000F8B50700CA
:103910000400084E4C3780210A208900B047411E20
:10392000050089B20020B047258060800434A7429A
:10393000F1D1F8BD611C0000F0B5DE4657464E4699
:103940004546E0B52E4B8BB009932E4B834608932A
:103950002D4B0C0098474C2399462C4B5E469A46BB
:103960002B4B2C4F9846A1442588002D43D0022292
:10397000A35E04A91B0404932B04059305AA03A8C2
:10398000D04703A902A8B84702A904A8B847089BD2
:10399000002B32D0099B04AA06A905A801939847D9
:1039A00005A93000C047638801339BB2AB4213DAEC
:1039B000638004340436A145D6D1089B002B03D084
:1039C00006A903220800984758460BB03CBC904615
:1039D0009946A246AB46F0BD002380216380890052
:1039E0000A200D4B9847208004340436A145E4D0CA
:1039F0002588002DBBD10395C3E7084B9847C046E7
:103A0000993800008D3800002116000021200000A8
:103A1000151F0000A5140000611C00003D440000BB
:103A2000012A00D1016000207047C046F0B5C646AB
:103A300000B58AB01100254F060001A8B84701A9BA
:103A400003A8B847C02309AA5B0303A904A8204D13
:103A50000993A847049B1C141B041B0CA2B20593DA
:103A6000002B2BD01B4B9846172A25D0671CFFB282
:103A7000BF004744802324045B02079305AA164B2A
:103A800007A908A8A40B9847210008AA414409A83F
:103A9000A84705AA390006A8A84702AD06AA09A9A1
:103AA00028000E4B9847290030000D4B98473000F6
:103AB0000AB004BC9046F0BD1F00DBE724040549B2
:103AC000A40B02AD09192800B847ECE7A5140000C3
:103AD00015150000E8580000AD1400000D16000098
:103AE000051F0000F8B507000400084E4C37C82138
:103AF000C8204900B047411E050089B20020B047E8
:103B0000258060800434A742F1D1F8BD611C00001B
:103B1000F0B5DE4657464E464546E0B52E4B8BB0D7
:103B200009932E4B834608932D4B0C0098474C234A
:103B300099462C4B5E469A462B4B2C4F9846A144F7
:103B40002588002D43D00222A35E04A91B04049300
:103B50002B04059305AA03A8D04703A902A8B847D8
:103B600002A904A8B847089B002B32D0099B04AADD
:103B700006A905A80193984705A93000C0476388A6
:103B800001339BB2AB4213DA638004340436A1459F
:103B9000D6D1089B002B03D006A903220800984722
:103BA00058460BB03CBC90469946A246AB46F0BD89
:103BB0000023C82163804900C8200D4B984720800E
:103BC00004340436A145E4D02588002DBBD10395EB
:103BD000C3E7084B9847C0462D3A0000213A000041
:103BE0002116000021200000151F0000A514000070
:103BF000611C00003D440000012A05D0022A01D1C9
:103C00000B680360002070470160FBE7F0B5CE460B
:103C1000474680B5147800228B5E8BB01B04089356
:103C2000C8231B0409AA099308A9304B060007A85A
:103C300098472F492F4BA400611808A89846984729
:103C400008A909A82C4FB84709AA07A968462B4B11
:103C500098472B4B694601A8984701A902A8C0477D
:103C6000802309AA5B0302A904A8264D0993A8474B
:103C7000049B1C141B041B0CA2B20593002B2CD01C
:103C8000214B99460F2A26D0631CDBB29B004B4484
:103C90009846802324045B02079305AA1B4B07A9BF
:103CA00008A8A40B9847210008AA494409A8A847D6
:103CB00005AA414606A8A84703AD06AA09A92800F7
:103CC000134B984729003000B84730000BB00CBCAC
:103CD00090469946F0BD9846DBE724040A49A40BB8
:103CE00003AD09192800C047ECE7C04621200000B9
:103CF00088560000A5140000051F0000D91F000011
:103D0000911F00001515000048590000AD14000077
:103D10000D1600007047C04610B50A4B84B00393DF
:103D2000094B009202936946084B04009847029B96
:103D3000002B03D00322694668469847200004B050
:103D400010BDC0460D3C0000F93B00006D160000A0
:103D5000012A05D0022A01D10B68036000207047B8
:103D60000160FBE770B5147800228B5E84B01B0401
:103D7000029396231B040500039303AA02A901A83A
:103D80000D4EB047982324045B03039303AA02A9B2
:103D900068460294B0476A4601A902A8074B9847B3
:103DA00002A903A8064B9847280003A9054B98478A
:103DB000280004B070BDC04621200000B51F0000DF
:103DC000911F0000612000007047C04610B50A4BEB
:103DD00084B00393094B009202936946084B040098
:103DE0009847029B002B03D00322694668469847F8
:103DF000200004B010BDC046653D0000513D0000EC
:103E00006D160000012A00D1016000207047C046F5
:103E1000012A00D1016000207047C046F0B5C646B7
:103E200000B58AB01100254F060001A8B84701A9C6
:103E300003A8B847802309AADB0303A904A8204DDF
:103E40000993A847049B1C141B041B0CA2B20593E6
:103E5000002B2BD01B4B98463F2A25D0671CFFB266
:103E6000BF004744802324045B02079305AA164B36
:103E700007A908A8A40B9847210008AA414409A84B
:103E8000A84705AA390006A8A84702AD06AA09A9AD
:103E900028000E4B9847290030000D4B9847300002
:103EA0000AB004BC9046F0BD1F00DBE724040549BE
:103EB000A40B02AD09192800B847ECE7A5140000CF
:103EC0001515000088590000AD1400000D16000003
:103ED000051F000070B586B005001100104C01A848
:103EE000A04701A903A8A047802305AA5B0403A952
:103EF00004A80C4E0593B047049B02A8190C0A4B6A
:103F00008900C918A047094B05AA02A904A805936E
:103F1000B04704A92800064B9847280006B070BD9A
:103F2000A514000015150000985A00009A19000009
:103F3000051F0000F8B507000400084E4C3708497B
:103F40000848B047411E050089B20020B0472580CF
:103F500060800434A742F2D1F8BDC046611C000065
:103F6000C4090000DC050000F0B5DE4645465746B2
:103F70004E460C00E0B583462500584BA3B00A938B
:103F8000574BD8460993574B9847574B4C35574E8C
:103F90009A4606E0638004239C460434E044AC4225
:103FA00034D02788002F00D182E00222A35E0BA923
:103FB0001B040B933B040F930FAA06A8D04706A936
:103FC00003A8B04703A905A8B047099B002B00D15F
:103FD00082E00A9B05AA07A90FA801939847444BC2
:103FE0000FA9404699469847638801339BB2BB426C
:103FF000D0DB00233F4963803F48404B9847042370
:104000009C4620800434E044AC42CAD1099B002B7A
:1040100003D007A9032208009847394B0FA80E9335
:10402000384B0FAC0D932F4B984722AB98462E4B35
:104030009A462F88002F4DD00222AB5E06A91B04A2
:1040400006933B04079307AA05A8D04705A904A82F
:10405000B04704A906A8B0470D9B002B3CD00E9B8F
:1040600006AA0BA907A80193984707A92000C847EB
:104070006B8801339BB2BB421CDA04346B8004357D
:10408000A045D6D10D9B002B03D00BA9032208001D
:1040900098470FA958461C4B98470FA81B4B9847A9
:1040A000584623B03CBC90469946A246AB46F0BD6C
:1040B000069784E700239621C8206B800901C00081
:1040C0000E4B9847043428800435A045DAD02F8859
:1040D000002FB1D10597B9E70D4B98471D3E000061
:1040E000053E00002116000021200000A51400005C
:1040F000151F0000C4090000DC050000611C000061
:10410000D53E0000113E000011180000E916000025
:104110003D440000012A00D1016000207047C046E4
:10412000F0B5CE46474680B5157804228B5E8BB03D
:104130001B040893C8230E681B04099309AA08A945
:10414000374B040004A8984732793100D3009B18FC
:104150005B009B18334A05A8D3185D5D324BAD0058
:1041600098469847314905AA691806A8304EB047C5
:1041700006A908A8C04708A909A82E4FB84709AA48
:1041800004A907A82C4B98472C4B07A901A89847CE
:1041900001A902A8C047802309AADB0202A904A83A
:1041A0000993B047049B1D141B041B0CAAB2059372
:1041B000002B2CD0224B9946032A26D06B1CDBB255
:1041C0009B004B44984680232D045B02079305AA6D
:1041D0001C4B07A908A8AD0B9847290008AA494419
:1041E00009A8B04705AA414606A8B04703AE06AAEB
:1041F00009A93000144B984731002000B84720002F
:104200000BB00CBC90469946F0BD9846DBE72D04F8
:104210000B49AD0B03AE49193000C047ECE7C0466F
:10422000212000007C550000A51400003C56000031
:1042300015150000051F0000D91F0000911F000088
:10424000885A0000AD1400000D160000012A05D0A8
:10425000022A01D10CC90CC0002070470160FBE7A5
:1042600070B588B005001100144C01A8A04701A941
:1042700005A8A047802307AA5B0405A906A8104E3D
:104280000793B047069B04A8190C0E4B8900C91868
:10429000A0470D4B06AA04A903A80693B0470B4BF1
:1042A00007AA079303A902A8094B984702A9280067
:1042B000084B9847280008B070BDC046A514000000
:1042C00015150000985A0000CD4C000033B30000D3
:1042D0000D160000051F000010B5074B82B004004A
:1042E00001930800054B2B21984701A92071044B2D
:1042F0002000984702B010BD33330100AD460000E6
:1043000019160000F0B5DE46574645464E46E0B564
:104310003C4BA1B00C933C4B83460B930DA83B4BFD
:104320000C0002910392984720AB9946384B394FC5
:104330009A46394B083498460DAD2688002E5CD03D
:104340000222A35E07A91B0407933304089308AA5B
:1043500006A8D04706A905A8B84705A907A8B847E1
:104360000B9B002B4BD00C9B07AA09A908A8019313
:10437000984708A92800C047638801339BB2B3421D
:104380002DDA043563800434A945D6D10B9B002B6C
:1043900003D009A9032208009847029B09A90993A1
:1043A000039B58460A931D4B0C931D4B0B931D4BBF
:1043B00098470B9B002B03D009A9032208009847BC
:1043C0000DA95846184B98470DA8184B98475846C2
:1043D00021B03CBC90469946A246AB46F0BD0023B6
:1043E000134963806420134B9847043520800434BC
:1043F000A945CBD02688002EA2D10696AAE70E4B5F
:104400009847C04661420000154100002116000097
:1044100021200000A5140000151F0000214100000C
:104420004D4200006D160000A1170000E9160000C3
:10443000C4090000611C00003D44000010B500F0FC
:1044400029FF00000123214A1168194200D113609D
:104450001F4A1168194200D1136001231D4A1168D7
:10446000194200D113601C4A1168194200D113602F
:1044700001231A4A1168194200D11360184A1168C1
:10448000194200D113600123164A1168194200D164
:104490001360154A1168194200D113600123134AB1
:1044A0001168194200D11360114A1168194200D1F4
:1044B000136001230F4A1168194200D113600E4A9C
:1044C0001168194200D113607047C046B40600203D
:1044D000B0060020AC060020A8060020A40600209C
:1044E000A00600209C0600209806002094060020CC
:1044F000900600208C060020880600200123164A22
:104500001168194200D11360144A1168194200D190
:1045100013600123124A1168194200D11360114A35
:104520001168194200D1136001230F4A1168194222
:1045300000D113600D4A1168194200D113600123A4
:104540000B4A1168194200D113600A4A11681942D6
:1045500000D113607047C046D4060020D00600206A
:10456000CC060020C8060020C4060020C00600209B
:10457000BC060020B80600200123164A1168194223
:1045800000D11360144A1168194200D1136001234D
:10459000124A1168194200D11360114A1168194278
:1045A00000D1136001230F4A1168194200D1136032
:1045B0000D4A1168194200D1136001230B4A11689A
:1045C000194200D113600A4A1168194200D11360E0
:1045D0007047C046F4060020F0060020EC060020DC
:1045E000E8060020E4060020E0060020DC060020AB
:1045F000D80600200123214A1168194200D1136016
:104600001F4A1168194200D1136001231D4A116825
:10461000194200D113601C4A1168194200D113607D
:1046200001231A4A1168194200D11360184A11680F
:10463000194200D113600123164A1168194200D1B2
:104640001360154A1168194200D113600123134AFF
:104650001168194200D11360114A1168194200D142
:10466000136001230F4A1168194200D113600E4AEA
:104670001168194200D113607047C046240700201A
:10468000200700201C070020180700201407002026
:10469000100700200C070020080700200407002056
:1046A00000070020FC060020F80600200022430836
:1046B0008B4274D303098B425FD3030A8B4244D3EA
:1046C000030B8B4228D3030C8B420DD3FF2209022C
:1046D00012BA030C8B4202D31212090265D0030BEB
:1046E0008B4219D300E0090AC30B8B4201D3CB03E1
:1046F000C01A5241830B8B4201D38B03C01A524123
:10470000430B8B4201D34B03C01A5241030B8B4224
:1047100001D30B03C01A5241C30A8B4201D3CB020F
:10472000C01A5241830A8B4201D38B02C01A5241F4
:10473000430A8B4201D34B02C01A5241030A8B42F7
:1047400001D30B02C01A5241CDD2C3098B4201D30F
:10475000CB01C01A524183098B4201D38B01C01A8D
:10476000524143098B4201D34B01C01A5241030904
:104770008B4201D30B01C01A5241C3088B4201D3B3
:10478000CB00C01A524183088B4201D38B00C01A60
:10479000524143088B4201D34B00C01A5241411A87
:1047A00000D20146524110467047FFE701B5002094
:1047B00000F0F0F802BDC0460029F7D076E7704758
:1047C00003460B437FD4002243088B4274D3030972
:1047D0008B425FD3030A8B4244D3030B8B4228D313
:1047E000030C8B420DD3FF22090212BA030C8B4239
:1047F00002D31212090265D0030B8B4219D300E0D9
:10480000090AC30B8B4201D3CB03C01A5241830B5D
:104810008B4201D38B03C01A5241430B8B4201D30D
:104820004B03C01A5241030B8B4201D30B03C01A36
:104830005241C30A8B4201D3CB02C01A5241830AB0
:104840008B4201D38B02C01A5241430A8B4201D3DF
:104850004B02C01A5241030A8B4201D30B02C01A09
:104860005241CDD2C3098B4201D3CB01C01A524170
:1048700083098B4201D38B01C01A524143098B42F9
:1048800001D34B01C01A524103098B4201D30B01E2
:10489000C01A5241C3088B4201D3CB00C01A524107
:1048A00083088B4201D38B00C01A524143088B42CC
:1048B00001D34B00C01A5241411A00D20146524165
:1048C000104670475DE0CA0F00D04942031000D384
:1048D0004042534000229C4603098B422DD3030AD9
:1048E0008B4212D3FC22890112BA030A8B420CD3E9
:1048F000890192118B4208D3890192118B4204D312
:1049000089013AD0921100E08909C3098B4201D391
:10491000CB01C01A524183098B4201D38B01C01ACB
:10492000524143098B4201D34B01C01A5241030942
:104930008B4201D30B01C01A5241C3088B4201D3F1
:10494000CB00C01A524183088B4201D38B00C01A9E
:104950005241D9D243088B4201D34B00C01A524175
:10496000411A00D20146634652415B10104601D302
:104970004042002B00D54942704763465B1000D38C
:10498000404201B5002000F005F802BD0029F8D032
:1049900016E770477047C046F0B5C6464E0247025C
:1049A000760A7B0A4400C50FF7004800984600B518
:1049B000240E2A00DB00000EC90FBC468D4267D0D2
:1049C000221A002A00DCA5E000283AD1002F00D1ED
:1049D00093E0511E002900D0BCE00124DB1B5A01EA
:1049E00046D59B019E09300000F036FC0538864014
:1049F000844200DD9DE0041B320020200134E240AF
:104A0000041BA64033005E1EB341002413435A0723
:104A100004D00F221A40042A00D004335A0129D5A9
:104A20000134FF2C00D181E02A009B015B0AE4B233
:104A30005B02E405580AD2072043104304BC9046A9
:104A4000F0BDFF2CE3D080213800C9040843844620
:104A50001B2A00DD82E020206146D140821A604698
:104A600090400200501E82410A439B1A5A01B8D45A
:104A70005A07CED1DE082A00FF2C3AD1002E00D1F1
:104A8000AEE08023DB0333435B025B0AFF24CFE706
:104A9000211A002952DD002831D0FF2CB7D0802008
:104AA0003E00C0040643B4461B2900DDAAE02026D0
:104AB0006046C840711A66468E4031004E1EB141B4
:104AC00001435B185901D3D50134FF2C00D187E095
:104AD000012278491A405B080B40134397E7002CEA
:104AE00000D0A7E0002B00D0B6E03B1E62D100262C
:104AF000002273025B0AE4B29AE7140087E7002FF2
:104B00004DD0481E002857D1634401245A01AFD527
:104B10000224DDE7002A24D1621CD2B2012ADEDDA4
:104B2000DE1B720135D5FE1A0D005CE72A0000235A
:104B30007EE73300604A241A134068E7002963D1F6
:104B4000611CC8B201284EDDFF2949D063445B08CF
:104B50000C005CE7FF2A41D00A0079E701229B1A8A
:104B600084E7002C1DD0FF2822D08024E404524288
:104B700023431B2A00DD8AE01C002025D440AA1A0A
:104B800093405A1E9341234362460400D31A0D00FA
:104B900025E7002E00D026E700220024A9E70C001C
:104BA00035E7002B4DD0D243002AEDD0FF28E0D1CD
:104BB0006346FF240D002AE7FF290FD0010073E7A9
:104BC000002B61D0FF24002F00D120E78022414636
:104BD000D203114202D0164200D13B00FF2416E757
:104BE000FF24002324E7002CEAD1002B58D0002F0B
:104BF00000D10CE763445A0100D439E72E4A0C0077
:104C0000134004E701215CE7002C1ED1002B40D0AB
:104C1000C94300290BD0FF2836D01B2947DC1C00D4
:104C20002026CC40711A8B40591E8B41234363448C
:104C3000040047E7002B18D13B1E2DD00D00FF24A8
:104C4000E5E63B0004000D00E1E6FF281CD08024CF
:104C5000E40449422343E0E7002F00D1D7E6DE1BFE
:104C600072011FD5FB1A0D00D1E6FF24002F00D1E1
:104C7000CDE680224046D2031042AFD01642ADD1DD
:104C80003B000D00FF24C2E66346FF24BFE601237C
:104C90007AE73B000400BAE680260022F603F0E63D
:104CA0003B00B4E6331E00D0E2E6002221E70123F8
:104CB000BDE7C046FFFFFF7DFFFFFFFBF0B5574696
:104CC0004E46DE464546E0B544024300C60F83B07B
:104CD0000F1C640A1B0EB24653D0FF2B27D0802234
:104CE000E400D20414437F225242904698440023A9
:104CF00099469B467D027800FB0F6D0A000E0093DB
:104D000024D0FF2846D080230021ED00DB041D4382
:104D10007F384746381A4F460F43BF00B946330025
:104D2000009A874F53404A46BA5801939746002C41
:104D30004ED108239946F7339846FD3B9B467D02AA
:104D40007800FB0F6D0A000E0093DAD1002D26D1FA
:104D5000002001213300009A7A4F53404246101A36
:104D60004A460A439200BA581D009746009B2C0001
:104D70009A468B465B46022B31D15346FF210024D5
:104D800038E0002C17D104239946002398460133BC
:104D90009B46AFE7FF20002D0BD10221DAE7280068
:104DA00000F05AFA431F9D4076235B42181A0021F7
:104DB000AFE70321ADE7200000F04EFA431F9C400F
:104DC00076235B421B1A9846002399469B4691E73F
:104DD0000C239946F3339846FC3B9B468AE7032B0A
:104DE00000D1A5E05546012B00D081E00123002130
:104DF00000242B406402C905600ADB0708431843FE
:104E000003B03CBC90469946A246AB46F0BD802418
:104E10000023E403FF21EDE7FF210024EAE701235B
:104E2000591A1B2966DD019A134000210024E1E78D
:104E30008023DB031C4238D01D4251D01C43640246
:104E4000640A3300FF21D5E763016C01A3423BD222
:104E50001B260021013801251F0049005B00002F9F
:104E600001DB9C4201D81B1B2943013E002EF3D1DC
:104E70001C00631E9C410C4301007F310029CEDDE4
:104E8000630704D00F232340042B00D004342301F4
:104E900003D501002C4B80311C40FE290DDD012380
:104EA000019AFF2113400024A4E78023DB031C4365
:104EB0006402640A3300FF219CE70123019AA401E4
:104EC000640AC9B2134095E71B1B1A260121C2E7E9
:104ED000009B8B469A4600244CE76302E5D50025EB
:104EE0008024E4032C436402640A009BFF2181E7D1
:104EF0000195C1E723002020CB40411A8C40611E60
:104F00008C411C43630704D00F232340042B00D0A3
:104F10000434630105D50123019A012113400024C3
:104F200068E70123019AA401640A1340002161E7A4
:104F30008023DB031C436402640A5346FF2159E7C4
:104F4000985E0000D85E0000FFFFFFF7F8B55746F7
:104F50004E464546DE46E0B54702460088467F0A93
:104F6000360EC40F002E47D0FF2E24D0FB00802722
:104F7000FF041F43002399469A467F3E43465D0245
:104F80005800DB0F6D0A000E984643D0FF283BD037
:104F9000EB0080250022ED041D437F383618731C7A
:104FA00041469B464B46614013430F2B64D87548DE
:104FB0009B00C3589F46002F42D108239946063BC9
:104FC000FF269A46DAE74146022A28D0032A00D172
:104FD000CEE0012A00D0ACE0114000200022CCB28B
:104FE0004002D205400AE407104320433CBC9046EF
:104FF0009946A246AB46F8BD002F15D10423994629
:10500000033B00269A46B9E7FF200222002DC5D0B7
:105010000322C3E7002D19D100200122BEE701249D
:10502000FF220C400020DBE7380000F015F976265F
:10503000431F9F4000237642361A99469A469DE7C1
:105040000C239946093BFF269A4697E7280000F073
:1050500003F9431F9D4076235B42181A00229DE707
:1050600080200024C003FF22BAE73D005246ABE790
:105070003D0021005246A7E73B0C9C462A04120C37
:105080002B0C1400604665463F043F0C7C434243B2
:105090005D437B43270C9B18FF18BA4203D980233A
:1050A0005B029C46654424043A04240C12199301C3
:1050B0005C1EA3413F0C920E7D191A43AD011543AE
:1050C0002B0104D501235E466A081D4015433200BA
:1050D0007F32002A25DD6B0704D00F232B40042BE1
:1050E00000D004352B0103D53200274B80321D4000
:1050F000FE2A94DC0124A801400AD2B20C406FE7DA
:105100008020C003074207D0054205D12843400252
:10511000400A4446FF2263E738434002400AFF2228
:105120005EE70124A31A1B2B05DD0C4000220020A2
:1051300056E75E46CBE72A002020DA40C31A9D409E
:105140002B005D1EAB4113435A0704D00F221A40B7
:10515000042A00D004335A0104D5012401220C4052
:1051600000203DE701249B01580A0C40002237E74C
:1051700080200124C00328434002400A0C40FF2243
:105180002EE7C046185F0000FFFFFFF74102430013
:10519000C20F490A1B0E00207E2B0DDD9D2B0CDC5F
:1051A000802000040143952B0ADC9620C31AD940C5
:1051B0004842002A00D108007047034BD018FBE793
:1051C000963B9940F4E7C046FFFFFF7F10B5041EF1
:1051D00027D000F041F89E231B1A962B0ADC96225A
:1051E000D21A94406402640ADBB26402DB05600AEE
:1051F000184310BD992B17DC9922D21A002A27DDFB
:1052000094402200134C1440510704D00F210A404F
:10521000042A00D00434620112D4A401640ADBB26F
:10522000E3E700230024E0E7B9222100D21A9140ED
:105230000A00511E8A410521091ACC401443DBE7BC
:10524000044B1C409F23A4011B1A640ADBB2CCE769
:105250002200D7E7FFFFFFFB1C2101231B0498421C
:1052600001D3000C10391B0A984201D3000A0839F7
:105270001B09984201D30009043902A2105C4018AE
:105280007047C04604030202010101010000000052
:105290000000000010B5062000F064F8012000F0C6
:1052A00091F8000070B500260C4D0D4C641BA41045
:1052B000A64209D1002600F07FFE0A4D0A4C641B6D
:1052C000A410A64205D170BDB300EB589847013633
:1052D000EEE7B300EB5898470136F2E7C45F0000F1
:1052E000C45F0000C45F0000E05F0000002310B551
:1052F0009A4200D110BDCC5CC4540133F8E70300DE
:105300008218934200D1704719700133F9E770B5E4
:1053100004000D001F2904D9162303600120404218
:1053200070BD436C002B04D08A009B181A68002AB9
:1053300008D1200000F032F82A000100200000F01F
:105340001BF8EDE70020012AEAD0511C03D11623F7
:1053500001302360E4E7002428001C60904720000F
:10536000DEE7000010B5034B01001868FFF7CFFF20
:1053700010BDC0460C000020002370B5064C05008F
:1053800008001100236000F015F8431C03D12368C6
:10539000002B00D02B6070BD2807002010B500F056
:1053A00001F810BD58220120014B40421A6070479D
:1053B0002807002058220120014B40421A60704704
:1053C00028070020FEE7C046C0060000A80600002F
:1053D000500700006A06000090050000C4050000A8
:1053E000A8050000300600000201030405000000CB
:1053F0000B0A07080609000002010304050B0A074F
:105400000806090002010304060708090A0B000048
:10541000110C0D0E0F1000000454000004000000D9
:10542000F85300000B000000F053000006000000DD
:10543000E853000005000000983A000030750000B5
:1054400060EA0000C0D40100407E0500C0270900CA
:105450000100000008000000400000000002000001
:105460000000010000000800020000001000000021
:105470008000000000040000000002000000400066
:1054800004000000200000000001000000080000EF
:10549000000004000000800000000001FA0000008D
:1054A00000000000000000000000000000000000FC
:1054B00000000000780084008A008D0091009500B3
:1054C0009A009E00A300A800AE00B400BA00C1007C
:1054D000C800CF00D700DF00E800F200FC000701A1
:1054E00012011E012B0139014701570167017801A3
:1054F0008B019E01B301C901E101FA0114023102DD
:105500004F026E029002B402DA0203032E035B0321
:105510008C03BF03F60330046E04B00400000000E7
:105520000000000000000000000000000200000079
:10553000080000001000000012000000140000002D
:10554000200000002C0000003200000001020304D3
:10555000060700000400080208060408000600020E
:1055600004020703070504060105010305030604F9
:1055700005050305020403030404000000010203FF
:105580000405060708090A0B0C0D0E0F1011120571
:1055900000010203040B060708090A110C0D0E0F87
:1055A00010120405000102030A0B06070809101176
:1055B0000C0D0E0F12030405000102090A0B060769
:1055C000080F10110C0D0E1202030405000108094A
:1055D0000A0B06070E0F10110C0D12010203040531
:1055E000000708090A0B060D0E0F10110C1200001F
:1055F00000C0000000C0000000C0000000C00000AB
:1056000000C0000000C0000000800000008000001A
:10561000008000000080000000800000008000008A
:10562000004000000040000000400000004000007A
:10563000004000000040000000000000E4380000CE
:10564000ABAA00008EE30000ABAA0000E438000023
:105650000000000055550000398E0000ABAA000084
:10566000398E000055550000E4380000C771000075
:10567000398E0000398E0000C771000055550000BA
:1056800055550000C771000000000000AB2A000063
:105690005555000000800000ABAA000055D5000061
:1056A00000000000AB2A00005555000000800000FB
:1056B000ABAA000055D500005515000000400000C1
:1056C000AB6A00005595000000C00000ABEA000086
:1056D00000000000000000000A0000009D240000FF
:1056E000A12400000600000096000000C93D000053
:1056F000CD3D000007000000C8000000153D00007F
:10570000193D00000800000096000000113800005C
:105710001538000009000000C80000004D380000E6
:10572000513800000A0000002C010000E53A00009A
:10573000113B00000B0000002C0100000D3900009F
:1057400039390000010000002C010000E12A0000AE
:10575000AD2B0000020000002C010000353F0000CE
:10576000693F000003000000C8000000D9420000AB
:105770000543000004000000C8000000752600007A
:10578000A926000005000000960000004532000038
:10579000B52D000000000000000000000000000027
:1057A00000000000CDCC0000CDCC0000CDCC00002E
:1057B0009A1900009A1900009A19000000C0000010
:1057C000CDCC000066E600009A19010033330100D9
:1057D00033B3030033B30500CD4C0D0000000100CE
:1057E0000000010000000100CDCC00009A990000EB
:1057F0000080000066660000CD4C0000CD4C00002B
:1058000033330000333300009A1900009A19000066
:105810009A190000000000000000000000000000D5
:105820000000000000000000000000000000000078
:105830000000000000000000000000000000000068
:105840000000000000000000000000000000000058
:105850000000000000000000000000000000000048
:105860000000000000000000000000000000000038
:105870000000000000000000000000000000000028
:105880000000000000000000000000000000000018
:105890000000000000000000000000000000000008
:1058A00000000000000000000000000000000000F8
:1058B00000000000000000000000000000000000E8
:1058C0000000010033B300000080000066660000A5
:1058D000CD4C0000333300009A190000CD0C0000BD
:1058E000000001003333000033330000008000006B
:1058F0000080000000800000000001000080000027
:10590000008000000080000000800000CD4C0000FE
:1059100000800000008000000080000066E60000BB
:105920000080000000800000008000000080000077
:1059300000800000CD4C000000800000CD4C000035
:10594000008000000080000000000100CDCC0000BD
:1059500033B300009A99000000800000CD4C000095
:1059600033330000CD4C000000400000CD4C00005F
:1059700033330000CD4C0000008000009A990000F5
:1059800033B30000CDCC000000800000CDCC00007F
:10599000CDCC0000CDCC0000CDCC000000800000BC
:1059A000CD4C00000000000000000000CD4C0000C5
:1059B000CD4C000000000000333300003333000002
:1059C000000000000000000000000000CD4C0000BE
:1059D000CD4C0000CD4C0000000000000000000095
:1059E00033330000333300000000000000000000EB
:1059F00000000000000000000000000000000000A7
:105A00006666000066660000666600000000000032
:105A1000CD4C0000008000000080000000800000ED
:105A2000CD4C0000000000000000000033330000F7
:105A30003333000000000000000000000000000000
:105A40000000000000000000000000000000000056
:105A500000000000CD4C0000CD4C0000CD4C0000FB
:105A6000000000000000000033330000333300006A
:105A70000000000000000000008000000080000026
:105A800000000000CD4C0000000001003333000096
:105A90000000000033330000997A0000FC69000028
:105AA0007523000041F2000054C400005F9900001B
:105AB0008E360000F51A0000B23D00001B5F0000AA
:105AC000149E00005C7F000060E50000285F00007D
:105AD000EEFB0000546300008689000049DE0000F0
