:10000000C8150020090100000501000005010000DD
:1000100000000000000000000000000000000000E0
:1000200000000000000000000000000005010000CA
:100030000000000000000000050100003D0D000070
:100040000501000005010000050100000501000098
:10005000F903000005010000050100000501000092
:10006000050100000501000005010000000000007E
:1000700000000000890700000501000005010000E4
:10008000C50400000501000005010000000000009B
:10009000000000000501000005010000050100004E
:1000A0000501000010B5064C2378002B07D1054B45
:1000B000002B02D0044800E000BF0123237010BDD4
:1000C0006800002000000000E03B0000084B10B575
:1000D000002B03D00749084800E000BF0748036829
:1000E000002B00D110BD064B002BFBD09847F9E741
:1000F000000000006C000020E03B0000E03B00003E
:1001000000000000FEE700001148124970B5884267
:1001100004D00023104CCA18A24213D300210F4B65
:100120000F4A934212D3FF210E4B0F4A8B43936029
:1001300080230E4A51680B4353600D4B98470D4B7B
:100140009847FEE7C55804331560E4E702C3E8E7C3
:10015000E03B000000000020680000206800002054
:10016000C80500200000000000ED00E00040004154
:1001700061300000750F0000014A024B1A607047A1
:1001800040420F000000002070B5124B9847124B00
:100190009847124B9847124B9847124B9847124B6F
:1001A00098470020114B98470721114B0020984792
:1001B000104B114E50213070185C104B9847104C6A
:1001C000104D00E0A847A0470128FBD00E4B9847F0
:1001D000706070BD510C00008D0C00002105000006
:1001E000750200009D140000511100002113000051
:1001F0001D0D0000843100008400002071130000F8
:10020000D5130000F1120000F10C0000F8B5124BFC
:100210004E469946114B45469846114B5746DE4689
:100220009B46104BE0B59A460F4C104F104EC847F6
:10023000C04763680500C31AB342F8D907210020FC
:10024000B84723788342F9D05B4620705021185C70
:10025000D0476560EBE7C046F1120000F10C0000EA
:100260008431000071130000840000201D0D000087
:100270002F75000010B572B68021544B09021A6820
:100280000F200A431A6059614F22002199541A68BD
:100290004F490A401A6080223C2192045A615A5CFC
:1002A00082435A5459223539995462B6494A3931F0
:1002B00093690B439361484A484B53805378DB0959
:1002C000FCD10121464A13780B4313701378DB07E6
:1002D000FCD45378DB09F9D1B023D1691B040B435B
:1002E000D3613F4A5378DB09FCD13E4B1361802335
:1002F0009B01D3603A4A5378DB09FCD10221137881
:100300000B431370364A5378DB09FCD11021C1200E
:10031000FF24354A8133FF33D15080001358A34363
:100320003F3C23431350802311602A4A1B01116A6A
:100330000B431362284A2D4B53805378DB09FCD1C1
:10034000A0232B4ADB001380D37BDB09FCD10421E3
:1003500053790B435371102301215383F133FF333E
:100360001383537B0B435373214AD37BDB09FCD1AB
:10037000022113880B4313801D4AD37BDB09FCD178
:100380008021C420FF24184A81334902FF33D15011
:1003900080001358A3433F3C234313508023116034
:1003A0000C4ADB00116A0B431362A023114ADB00E5
:1003B0001380D37BDB09FCD1022113880B4313800C
:1003C0000C4AD37BDB09FCD110BDC0460044004180
:1003D000FFFFFFFD00040040000C00400340000050
:1003E00000180040FFFF000000E100E014400000A2
:1003F000002C004200280042802310B5294A9B01AE
:1004000011690B431361284B284A1B6A9B0108D5CD
:10041000274B5380D37BDB09FCD1128A254B1A82F0
:1004200010BD234B5380D37BDB09FCD1214C138AB5
:10043000228A9B1A9BB21A00C23AFF3A7E2A0ED930
:100440001D4A9A187E2A11D91C4A9A187E2A17D852
:10045000237E202B1ED0002323766361E0E76369AF
:100460005B086361237E01332376D9E763695A0809
:1004700080231B0613436361237E01332376CFE77A
:100480000F4A944663447E2BE5D8A368002BE2D044
:100490009847E0E763696360E368002BDBD060683E
:1004A0009847D8E700180040004400410028004267
:1004B0001080FFFF8C0000203FFCFFFF3FFAFFFF92
:1004C0003FF8FFFF0121024A937B0B439373704770
:1004D000002C0042F0B5C6460F4B104F9846431C07
:1004E000FF333E0000249C4600B54C3662463B007C
:1004F000002511780132A14201DD19680D43043352
:10050000B342F6D14246A300AA430134C250402C64
:10051000ECD104BC9046F0BDFF0FCF018C31000040
:100520008A2210B5234C92000021234B20009847CB
:10053000224B20009847224B22491A680A431A602E
:1005400099618023204A5B00116A0B4313621F4AA2
:100550001F4B53805378DB09FCD1C8231D4A9B00F5
:100560001380D37BDB09FCD17823FF331383194A33
:10057000D37BDB09FCD10121537B0B435373154A19
:10058000D37BDB09FCD1C324134BA40019591348B6
:1005900008408021C9010143195180218901196056
:1005A000022113880B4313800A4AD37BDB09FCD159
:1005B00010BDC046A8000020BB300000D5040000DC
:1005C00000440041FF0FCF0100040040000C004038
:1005D000134000000020004200E100E0FF00FFFFA8
:1005E0000200402900DD402128230748C35C012088
:1005F00058408A235B005843044B18188018013078
:10060000FF3001707047C046A8020020A8000020FB
:1006100028238A2070B5194C4000E65C273B5E40D9
:100620007043174D174B281898472C23E35C5B0742
:1006300004D12C210722635C1A42FCD02C21072212
:10064000635C1A42FCD12823E654E25CE15C273B60
:100650005A401433FF335A434B4301320133FF32C4
:10066000FF33AA18EB1813CB13C211001A680A60E3
:100670009A888A809B798B7170BDC046A802002041
:10068000A8000020D5040000374AF0B54646904641
:100690004F46D64630234146C0B54C26C95C334B45
:1006A0004D005B199F5B28204346314C314D2200A1
:1006B000185C2E69304BC0B227831E40D37BDB0908
:1006C000FCD1002932D18A22520042432B4D294BC2
:1006D0005159AC1831431961616831431961C04601
:1006E000C046C046264FA1683C0031439A46196176
:1006F000244B0C3200209946AD185C347C3700E066
:1007000001CCC847524608CD33431361BC42F7D1F0
:1007100030230C224146CA540121154A937B0B43D6
:1007200093731CBC90469946A246F0BD0201121874
:1007300092001218521811489200105801310D4AB7
:100740000643C9B216613F2909DD2C2142464446C1
:100750003020525C23540132D3B26354DCE730239F
:100760004246D154D8E7C046A80200208C31000090
:10077000002000420044004100F030FEA8000020AC
:100780000C320000C90C000010B5014B984710BD99
:10079000890600000B6803607047C0460B6812684A
:1007A0009B1A03607047C04670B50A68046813144A
:1007B000251412042404240C120C11002600694391
:1007C0005E43624389190C140904891891429241CD
:1007D0006B4352421B199B18DA17DC13A2420CD14F
:1007E000074C0C1912199142894149425B1A1B04AA
:1007F000120C13430133036070BD80231B06FAE71C
:100800000080FFFF70B512680C68131425141204E1
:100810002404240C120C1100260069435E43624339
:1008200089190C1409048918914292416B43524270
:100830001B199B18DA17DC13A2420CD1074C0C19B8
:1008400012199142894149425B1A1B04120C13434D
:100850000133036070BD80231B06FAE70080FFFFB1
:1008600070B516680D68002E35D0EA17AB185340E6
:10087000F217B1185140802252028B4205D949002B
:1008800052008B42FBD8002A25D00024002907DA29
:1008900016E08B4201D314435B1A5B00520801D06F
:1008A000002BF6D100228B425241A418754001D48E
:1008B000046070BD80231B069C42F9D06442F7E7B8
:1008C0008B4205D249085208ECD0002BE1D1EDE76C
:1008D0005B1A1400F6E780242406E9E700680A683A
:1008E0000123904200DC0023D8B2704700680A68F8
:1008F0000123904200DB0023D8B270470B681268D6
:100900009B1803607047C04610B504004C220021BC
:10091000014B9847200010BDBB300000F0B5C64623
:1009200080464646444600B50F004C220021074B46
:100930009847074D4C36200039000434A847B4428C
:10094000F9D1404604BC9046F0BDC046BB30000023
:10095000B10F0000F0B5CE46474680B50D0083B01C
:10096000184B4C220021814698476B46DE1C002321
:100970003370AB68002B23D03200290001A8EB684C
:100980009847114B01A94846984698474B46012481
:100990001F1DAB683470002B12D03200290001A853
:1009A000EB6801349847E4B2380001A9C047043726
:1009B000132CEED1484603B00CBC90469946F0BDCE
:1009C000024B9847BB300000B10F0000CD23000060
:1009D0007047C046F8B505000024064F064E2800B3
:1009E000B847010020000134E4B2B0470435132CAD
:1009F000F5D1F8BD49100000E1050000F0B5CE4684
:100A00004746904680B587B0194F04000D0004A8F2
:100A10001100B847174E04A905A8B047164B05A901
:100A200001A89847414605A8B84705A902A8B047BC
:100A30004C239946114B124E9846124FA144210067
:100A400001AA03A8B047290002AA04A8B04704AA33
:100A500003A905A8C047200005A90434B8470435F8
:100A60004C45ECD107B00CBC90469946F0BDC04651
:100A700095070000A10F0000B90F00005110000001
:100A800099100000B10F0000F8B5070004000D0038
:100A9000044E4C37290020000434B0470435BC42D2
:100AA000F8D1F8BDE11000004C23F0B54746CE4622
:100AB00099460E4B04000D00984680B50C4E0D4F24
:100AC00083B081442A0021006846C047694601A8D6
:100AD000B847200001A90434B04704354C45F1D192
:100AE00003B00CBC90469946F0BDC04651100000C2
:100AF000B10F0000E50F00004C23F0B54746CE468D
:100B000099460E4B04000D00984680B50C4E0D4FD3
:100B100083B081442A0021006846C047694601A885
:100B2000B847200001A90434B04704354C45F1D141
:100B300003B00CBC90469946F0BDC046751000004D
:100B4000B10F0000E50F00001E213A4A53688B43A5
:100B50001C390B435360384A063193690B4301211A
:100B60009361364A13780B4313701378DB0702D571
:100B70005378DB09F9D18021314A136A8B43136220
:100B80002E4B304A9A60304A5A605A78D209FCD1CA
:100B90008622D2015A80294A5378DB09FCD1802170
:100BA000274A938C8B439384D368DB06FCD5C02102
:100BB000D36A09011B0C1B040B438021D362D36A47
:100BC000C9049B019B090B43D362D36A1F49194097
:100BD00080235B020B43D362194AD368DB06FCD542
:100BE0008123918C9B000B439384154AD368DB06C9
:100BF000FCD5802193680B439360936840390B4385
:100C00009360936830390B4302219360938C0B43BC
:100C100093840B4AD368DB06FCD5094A93681B060C
:100C2000FCD593685B06F9D5054A9368DB06FCD5CD
:100C30007047C0460040004100040040000C0040E6
:100C4000000800400340000003060100FFFF00FC15
:100C500010B50948094B9847094B98470023094AA2
:100C600093605378DB09FCD1074B5360054A5378F6
:100C7000DB09FCD110BDC046204E0000C90C0000AD
:100C8000490B0000000C004000070300C0200B4986
:100C90000B4B0C4A4B60136A00061B021B0A0343F2
:100CA000136200238B6007330B608021136A0906EF
:100CB0001B021B0A0B4313627047C04610E000E0A2
:100CC0007FBB000000ED00E080B584B000AF78602D
:100CD0000023FB60FA687B689A4204D2C046FB6836
:100CE0000133FB60F6E7C046BD4604B080BDC04698
:100CF000014B986E7047C0460C03002000B583B0CE
:100D0000009001916A4603496846034B984780B2B8
:100D100003B000BD0C0300204D0D000000B583B0F2
:100D2000009001916A4603496846034B9847C0B258
:100D300003B000BD0C0300204D0D0000024A936E6D
:100D4000013393667047C0460C030020F0B5574648
:100D50004546DE464E461300E0B590461B68526895
:100D600085B0D31A0C0001931900594B8246994261
:100D700049D80E0001363100564B5748984780231A
:100D80005B049A46012399460023010083469C4652
:100D90007143666E0A235B42F31815D4B5006519DA
:100DA0009B002F68226E1B59D01998420FD8DB1B6D
:100DB0009B1A6246013622662B60172E11D96246B5
:100DC0006266994210D8002633000E33E6E750469B
:100DD000801A4A46C01BC318013622662B60172EA4
:100DE000EDD866669942D5D918005946394B9847CF
:100DF000030042461068181805B03CBC904699465E
:100E0000A246AB46F0BD344B99423BD00B0E9946FF
:100E100000239B465B4602934B462100039302AAA4
:100E20002E4B504698470A23616E5B420006CB1852
:100E300026D48E009B00A6191F59226E33689D1878
:100E4000AF4210D3FB1A9B1A5A4601312266336017
:100E5000172913D95A466266019AC3189A42D9D300
:100E60009842D7D8C5E780256D04AA1AD31A012263
:100E7000DB190131226633601729EBD86166EBE795
:100E80001833D6E70A23656E5B42EB181DD4AE001B
:100E9000A6199B003268216E1859531898420AD33C
:100EA000831A00225B1A226601353360172D0AD996
:100EB000002262669DE780235B045B1A9B1A012275
:100EC0001B182266F0E7656693E71833DFE7C04634
:100ED000FEFFFF003D260000FFFFFF004D0D00005C
:100EE000F0B557464E46DE4645466022E0B5194EFF
:100EF0009446330063449B46174B184C9A46184B54
:100F0000184F9946184B83B0984620001749D04790
:100F1000454620004D431549C8477843144A2B1ACB
:100F2000AC18241A854200D31C0023021B0A08C6F1
:100F30005E45EAD1074BDB6D01935A425341054AA6
:100F400013660023536603B03CBC90469946A24604
:100F5000AB46F0BD0C0300204927000097D32D01BC
:100F60003D260000B32F00004E9C0000A4D10000DD
:100F7000ABFFFF7F10B5034B9847034B9847034BDC
:100F80009847C04679010000890100000D02000069
:100F900010B50400014B9847200010BD95070000D4
:100FA00010B50400014B9847200010BD95070000C4
:100FB0000B6803607047C046802310B5040082B000
:100FC0005B020A000093694601A8044B984701A9F7
:100FD0002000034B9847200002B010BD9D07000081
:100FE0009507000070B50E00002582B00400019541
:100FF00001A930000A4B9847002803D02560200043
:1010000002B070BD80256D02019501A93000054B2D
:1010100098470028F2D131002000034B9847EEE7B3
:10102000ED080000DD0800009507000010B5040081
:101030000B8882B0019301A9024B9847200002B0AF
:1010400010BDC0469507000000688012C0B270470E
:1010500010B5040082B001A8044B984701A92000F4
:10106000034B9847200002B010BDC046FD080000A9
:101070009507000010B5040082B001A8044B984702
:1010800001A92000034B9847200002B010BDC046C4
:101090009D0700009507000010B5040082B001A86C
:1010A000044B984701A92000034B9847200002B049
:1010B00010BDC046050800009507000010B50400EB
:1010C00082B001A8044B984701A92000034B984720
:1010D000200002B010BDC046610800009507000066
:1010E00010B50400014B9847200010BDA90700006F
:1010F00070B5802684B0B602114B02AA0400029695
:1011000003A8984703A901A80E4DA84780235B02B6
:10111000039303A901A80C4B984700280BD102A9FF
:1011200003A8029601AA094B984703A92000A847E3
:10113000200004B070BD01A92000A847F8E7C04610
:101140000508000095070000ED0800009D0700005D
:1011500070B50B4C0025260084B001A8C4360021D0
:10116000084B2560984701A93000074B9847211D7F
:101170003000064B9847064B1D6504B070BDC04655
:1011800078030020A1140000491400005914000045
:10119000F8030020F0B54646D6464F462023C0B59A
:1011A000464CA8B0E55C8046002D24D1444C15AFD8
:1011B0002200210008CAC4313800424EB047C42280
:1011C0002368A2580133236093426BD245463C000A
:1011D0003D4E21002800B047043428AB04359C4222
:1011E000F7D13800394B9847404628B01CBC904690
:1011F0009946A246F0BD324E324D3200310008CA47
:10120000C43102A8A847A946314D15AF29002A00CC
:10121000153154322B6DFF313800C847C422336872
:10122000B25801333360934201D3002333608A22E2
:101230002B6D5200AA5801332B65934201D3002332
:101240002B65244B606A994698478246A06AC84736
:10125000214B011C504698478F21204BC9059847C8
:10126000FC211F4B890598471E4B984701AA019006
:101270001D4B390002A89847636AA26A0133636272
:10128000934211D24546104E02AC2100280004348E
:10129000B0470435BC42F8D120000C4CA04702A84E
:1012A000A047A1E7256091E72900D0220F4B5031DC
:1012B0003000984700222023E254E3E7F80400209E
:1012C0007803002065140000910F0000D109000090
:1012D000F8030020892F0000792A0000092D000062
:1012E00055270000492F0000FD090000A93000002B
:1012F00000B595B001A8064B984701A8054B984743
:10130000054B984701A8054B984715B000BDC0464E
:1013100095110000D509000011060000D109000058
:10132000F0B50D4C00262500070040C585B028000B
:101330000A4B9847C434390001A8094B984701A9C2
:101340002000084B984729002000074B984720238E
:10135000064AD65405B0F0BD780300208D14000075
:10136000A11400004914000059140000F8040020E2
:10137000F0B5C646114C00252600804600B554360F
:1013800084B0256530000E4B15340F00FF349847AC
:10139000414601A80B4B984701A920000A4B9847EA
:1013A00031002000094B984701212022084B5D6243
:1013B0009F62995404B004BC9046F0BDF80300202D
:1013C0008D140000A11400004914000059140000FD
:1013D000F80400202023014AD05C7047F804002064
:1013E00070B5084C084E201DB0472000074DC43092
:1013F000A847074C20005430B04720001530FF307C
:10140000A84770BD7803002079140000291400005B
:10141000F80300207047C04610B50400014B984700
:10142000200010BD090900000A230360024B43603D
:10143000024B83607047C046151400001914000069
:1014400001604260836070470B6803604B684360D3
:101450008B6883600800704710B5436808009847A0
:1014600010BDC04670B504000800110085681A0060
:101470002000A847200070BD10B50400C022002144
:10148000014B9847200010BDBB30000010B5C022B2
:101490000021014B984710BDBB3000007047C0468B
:1014A00070B50D4A04000A2003E01032506800288D
:1014B0000AD013788B42F8D1D368010092682000DB
:1014C000064DA847200070BD054B064A0A212000A2
:1014D000024DA847F6E7C046203300004114000043
:1014E000ED140000E91400007047C04610B5040078
:1014F000014B9847200010BD09090000012A00D1C6
:10150000016000207047C046012A00D10160002020
:101510007047C046012A05D0022A01D10B6803603A
:10152000002070470160FBE7F0B5CE46474680B526
:10153000147800228B5E8BB01B04089396235B0407
:10154000099309AA08A9314B060007A89847304912
:10155000304BA400611806AA08A82F4D0693A8478F
:1015600008A909A82D4FB84709AA07A968462C4B16
:101570009847694601A82B4B98472B4B01A902A815
:1015800098469847E02309AA9B0302A904A8099357
:10159000A847049B1C141B041B0CA2B20593002B30
:1015A0002CD0224B9946372A26D0631CDBB29B00F5
:1015B0004B449846802324045B02079305AA1C4BE6
:1015C00007A908A8A40B9847210008AA494409A81C
:1015D000A84705AA414606A8A84703AD06AA09A937
:1015E0002800144B984729003000B84730000BB052
:1015F0000CBC90469946F0BD9846DBE724040B49A5
:10160000A40B03AD09192800C047ECE7BD1000008A
:10161000883200009A19000005080000A10F0000A0
:10162000751000002D10000095070000C033000069
:101630009D070000FD080000F0B5C64600B58AB061
:101640001100284F060001A8B84701A903A8B84710
:10165000802309AA5B0303A904A8234D0993A84783
:10166000049B1C141B041B0CA2B20593002B30D04E
:101670001E4F0F2A29D03A0060329046631CDBB21D
:101680009B00984480235B02079305AA184B07A987
:1016900008A89847390024046031A40B091908AA46
:1016A00009A8A84705AA414606A8A84702AD06AA68
:1016B00009A928000F4B9847290030000E4B984786
:1016C00030000AB004BC9046F0BD60239846B84490
:1016D000D8E706492404A40B02AD6031091928009B
:1016E000B847E9E79507000005080000403400000E
:1016F0009D070000FD080000A10F000070B588B034
:1017000005001100154C01A8A04701A905A8A04794
:10171000802307AA5B0405A906A8114E0793B047CA
:10172000069B04A8190C0F4B8900C918A0478023F9
:1017300006AA1B0204A903A80693B0478023DB0175
:10174000079307AA03A902A8074B984702A92800F4
:10175000064B9847280008B070BDC04695070000AA
:1017600005080000883600009D070000A10F00005A
:10177000F8B507000400094E4C379621C8208900AF
:101780004000B047411E050089B20020B0472580C7
:1017900060800434A742F0D1F8BDC046FD0C0000C3
:1017A000F0B5DE4657464E464546E0B505000C000E
:1017B000AA466C4BB3B00B936B4B02900A936B4BE6
:1017C000039298476A4B25009B466A4B4C359946D5
:1017D0005346AA461D00684F2688002E00D1ABE074
:1017E0000222A35E0CA91B040C9333041F931FAAAF
:1017F00007A8D84707A904A8B84704A906A8B84766
:101800000A9B002B00D1AAE01FAB98460B9B06AAAF
:1018100008A940460193984741462800C847638875
:1018200001339BB2B34200DB74E0638004340435BF
:101830005445D1D10A9B55464646002B03D008A9F2
:101840000322080098474D4B0CA8F3604C4B0CAC9E
:10185000B360464B9847464B1FAE9A46494BB0463D
:101860009B462E88002E00D177E00222AB5E07A9AE
:101870001B0407933304089308AA06A8D04706A9B7
:1018800005A8B84705A907A8B847219B002B66D033
:10189000414607AACB6808A8984708A92000C8476E
:1018A0006B8801339BB2B34248DA04346B80043551
:1018B000A045D6D14646B368002B03D0032241464B
:1018C00040469847039B08A908932F4B30000B9381
:1018D0002E4B0A932E4B98472E4B31000CA898475D
:1018E00030002D4CA0470A9B002B03D008A90322EF
:1018F00008009847029D0CA92800284B98470CAB7C
:101900001800A047280033B03CBC90469946A24638
:10191000AB46F0BD00239621C820638089004000BB
:10192000184B9847208004340435544500D181E792
:101930002688002E00D053E707965BE7002380211E
:101940006B8089002820D847043428800435A045BE
:10195000B0D02E88002E00D087E706968FE7104B78
:101960009847C04639160000FD1400000909000020
:10197000BD100000B10F000095070000FD1600002B
:1019800009150000FD0C00002915000015150000C8
:1019900055090000890A0000D1090000A90A0000C9
:1019A000CD230000012A05D0022A01D10B68036073
:1019B000002070470160FBE7F0B5CE46474680B592
:1019C000147800228B5E8BB01B04089396231B04B3
:1019D000099309AA08A9314B060007A8984730497E
:1019E000304BA400611806AA08A82F4D0693A847FB
:1019F00008A909A82D4FB84709AA07A968462C4B82
:101A00009847694601A82B4B98472B4B01A902A880
:101A100098469847802309AA9B0202A904A8099323
:101A2000A847049B1C141B041B0CA2B20593002B9B
:101A30002CD0224B9946012A26D0631CDBB29B0096
:101A40004B449846802324045B02079305AA1C4B51
:101A500007A908A8A40B9847210008AA494409A887
:101A6000A84705AA414606A8A84703AD06AA09A9A2
:101A70002800144B984729003000B84730000BB0BD
:101A80000CBC90469946F0BD9846DBE724040B4910
:101A9000A40B03AD09192800C047ECE7BD100000F6
:101AA000883200003333010005080000A10F000058
:101AB000751000002D10000095070000E0340000B4
:101AC0009D070000FD0800007047C04610B50A4B96
:101AD00084B00393094B009202936946084B0400BB
:101AE0009847029B002B03D003226946684698471B
:101AF000200004B010BDC046B9190000A5190000AF
:101B0000550900007047C046C82310B5040084B0D2
:101B100012041B040292039303AA02A901A8064B14
:101B2000984701A903A8054B984703A92000044B37
:101B30009847200004B010BDBD100000F110000057
:101B40001D090000012A00D1016000207047C04635
:101B500070B588B005001100154C01A8A04701A977
:101B600005A8A047802307AA5B0405A906A8114E73
:101B70000793B047069B04A8190C0F4B8900C9189E
:101B8000A047802306AA1B0204A903A80693B04716
:101B90008023DB01079307AA03A902A8074B9847F4
:101BA00002A92800064B9847280008B070BDC0461F
:101BB000950700000508000088360000FD080000B9
:101BC000A10F0000F8B507000400084E4C37802133
:101BD0000A208900B047411E050089B20020B047A5
:101BE000258060800434A742F1D1F8BDFD0C0000CF
:101BF000F0B5DE4657464E464546E0B52E4B8BB017
:101C000009932E4B834608932D4B0C0098474C2389
:101C100099462C4B5E469A462B4B2C4F9846A14436
:101C20002588002D43D00222A35E04A91B0404933F
:101C30002B04059305AA03A8D04703A902A8B84717
:101C400002A904A8B847089B002B32D0099B04AA1C
:101C500006A905A80193984705A93000C0476388E5
:101C600001339BB2AB4213DA638004340436A145DE
:101C7000D6D1089B002B03D006A903220800984761
:101C800058460BB03CBC90469946A246AB46F0BDC8
:101C900000238021638089000A200D4B9847208013
:101CA00004340436A145E4D02588002DBBD103952A
:101CB000C3E7084B9847C046511B0000451B000076
:101CC00009090000BD100000B10F000095070000D9
:101CD000FD0C0000CD230000012A00D1016000208E
:101CE0007047C046F0B5C64600B58AB01100254F12
:101CF000060001A8B84701A903A8B847C02309AA4C
:101D00005B0303A904A8204D0993A847049B1C1456
:101D10001B041B0CA2B20593002B2BD01B4B984627
:101D2000172A25D0671CFFB2BF0047448023240434
:101D30005B02079305AA164B07A908A8A40B9847AE
:101D4000210008AA414409A8A84705AA390006A805
:101D5000A84702AD06AA09A928000E4B98472900FA
:101D600030000D4B984730000AB004BC9046F0BDDF
:101D70001F00DBE724040549A40B02AD0919280064
:101D8000B847ECE79507000005080000E8340000BC
:101D90009D070000FD080000A10F0000F8B5070036
:101DA0000400084E4C37C821C8204900B047411EE6
:101DB000050089B20020B047258060800434A74226
:101DC000F1D1F8BDFD0C0000F0B5DE4657464E4699
:101DD0004546E0B52E4B8BB009932E4B83460893B6
:101DE0002D4B0C0098474C2399462C4B5E469A4647
:101DF0002B4B2C4F9846A1442588002D43D002221E
:101E0000A35E04A91B0404932B04059305AA03A84D
:101E1000D04703A902A8B84702A904A8B847089B5D
:101E2000002B32D0099B04AA06A905A80193984764
:101E300005A93000C047638801339BB2AB4213DA77
:101E4000638004340436A145D6D1089B002B03D00F
:101E500006A903220800984758460BB03CBC9046A0
:101E60009946A246AB46F0BD0023C82163804900D5
:101E7000C8200D4B9847208004340436A145E4D097
:101E80002588002DBBD10395C3E7084B9847C04672
:101E9000E51C0000D91C000009090000BD1000006D
:101EA000B10F000095070000FD0C0000CD230000DD
:101EB000012A05D0022A01D10B6803600020704777
:101EC0000160FBE7F0B5CE46474680B514780022A6
:101ED0008B5E8BB01B040893C8231B0409AA0993CB
:101EE00008A9304B060007A898472F492F4BA4009C
:101EF000611808A89846984708A909A82C4FB84720
:101F000009AA07A968462B4B98472B4B694601A89D
:101F1000984701A902A8C047802309AA5B0302A928
:101F200004A8264D0993A847049B1C141B041B0CF2
:101F3000A2B20593002B2CD0214B99460F2A26D014
:101F4000631CDBB29B004B449846802324045B0255
:101F5000079305AA1B4B07A908A8A40B98472100C3
:101F600008AA494409A8A84705AA414606A8A847BF
:101F700003AD06AA09A92800134B98472900300091
:101F8000B84730000BB00CBC90469946F0BD98465F
:101F9000DBE724040A49A40B03AD09192800C04754
:101FA000ECE7C046BD100000D432000095070000E9
:101FB000A10F0000751000002D10000005080000A2
:101FC000483500009D070000FD0800007047C0462E
:101FD00010B50A4B84B00393094B009202936946F3
:101FE000084B04009847029B002B03D0032269464C
:101FF00068469847200004B010BDC046C51E0000CA
:10200000B11E000055090000012A05D0022A01D1A5
:102010000B680360002070470160FBE770B514781F
:1020200000228B5E84B01B04029396231B040500E0
:10203000039303AA02A901A80D4EB04798232404D4
:102040005B03039303AA02A968460294B0476A4659
:1020500001A902A8074B984702A903A8064B984775
:10206000280003A9054B9847280004B070BDC0465E
:10207000BD100000511000002D100000F1100000F4
:102080007047C04610B50A4B84B00393094B0092C9
:1020900002936946084B04009847029B002B03D02B
:1020A0000322694668469847200004B010BDC04628
:1020B0001D2000000920000055090000012A00D160
:1020C000016000207047C046012A00D10160002055
:1020D0007047C046F0B5C64600B58AB01100254F1E
:1020E000060001A8B84701A903A8B847802309AA98
:1020F000DB0303A904A8204D0993A847049B1C14E3
:102100001B041B0CA2B20593002B2BD01B4B984633
:102110003F2A25D0671CFFB2BF0047448023240418
:102120005B02079305AA164B07A908A8A40B9847BA
:10213000210008AA414409A8A84705AA390006A811
:10214000A84702AD06AA09A928000E4B9847290006
:1021500030000D4B984730000AB004BC9046F0BDEB
:102160001F00DBE724040549A40B02AD0919280070
:10217000B847ECE795070000050800008835000027
:102180009D070000FD080000A10F000070B586B09B
:1021900005001100104C01A8A04701A903A8A04701
:1021A000802305AA5B0403A904A80C4E0593B0473D
:1021B000049B02A8190C0A4B8900C918A047094BB7
:1021C00005AA02A904A80593B04704A92800064B54
:1021D0009847280006B070BD95070000050800006C
:1021E000883600009A190000A10F0000F8B507001A
:1021F0000400084E4C3708490848B047411E050006
:1022000089B20020B047258060800434A742F2D113
:10221000F8BDC046FD0C0000C4090000DC0500004C
:10222000F0B5DE46454657464E460C00E0B58346BF
:102230002500584BA3B00A93574BD8460993574BE8
:102240009847574B4C35574E9A4606E06380042317
:102250009C460434E044AC4234D02788002F00D19F
:1022600082E00222A35E0BA91B040B933B040F9395
:102270000FAA06A8D04706A903A8B04703A905A836
:10228000B047099B002B00D182E00A9B05AA07A951
:102290000FA801939847444B0FA940469946984789
:1022A000638801339BB2BB42D0DB00233F4963808C
:1022B0003F48404B984704239C4620800434E04428
:1022C000AC42CAD1099B002B03D007A90322080006
:1022D0009847394B0FA80E93384B0FAC0D932F4BEB
:1022E000984722AB98462E4B9A462F88002F4DD008
:1022F0000222AB5E06A91B0406933B04079307AAC0
:1023000005A8D04705A904A8B04704A906A8B04766
:102310000D9B002B3CD00E9B06AA0BA907A801938E
:10232000984707A92000C8476B8801339BB2BB427E
:102330001CDA04346B800435A045D6D10D9B002BEC
:1023400003D00BA90322080098470FA958461C4B3D
:1023500098470FA81B4B9847584623B03CBC904663
:102360009946A246AB46F0BD069784E70023962126
:10237000C8206B800901C0000E4B984704342880A8
:102380000435A045DAD02F88002FB1D10597B9E7E1
:102390000D4B9847D5200000BD2000000909000022
:1023A000BD10000095070000B10F0000C409000037
:1023B000DC050000FD0C00008D210000C92000009C
:1023C000F90A0000D1090000CD23000010B500F08B
:1023D0003FFE00000123214A1168194200D1136019
:1023E0001F4A1168194200D1136001231D4A116868
:1023F000194200D113601C4A1168194200D11360C0
:1024000001231A4A1168194200D11360184A116851
:10241000194200D113600123164A1168194200D1F4
:102420001360154A1168194200D113600123134A41
:102430001168194200D11360114A1168194200D184
:10244000136001230F4A1168194200D113600E4A2C
:102450001168194200D113607047C0465005002032
:102460004C050020480500204405002040050020C0
:102470003C050020380500203405002030050020F0
:102480002C05002028050020240500200123164AE1
:102490001168194200D11360144A1168194200D121
:1024A00013600123124A1168194200D11360114AC6
:1024B0001168194200D1136001230F4A11681942B3
:1024C00000D113600D4A1168194200D11360012335
:1024D0000B4A1168194200D113600A4A1168194267
:1024E00000D113607047C046700500206C050020C5
:1024F0006805002064050020600500205C050020C0
:1025000058050020540500200123164A116819427D
:1025100000D11360144A1168194200D113600123DD
:10252000124A1168194200D11360114A1168194208
:1025300000D1136001230F4A1168194200D11360C2
:102540000D4A1168194200D1136001230B4A11682A
:10255000194200D113600A4A1168194200D1136070
:102560007047C046900500208C050020880500209B
:1025700084050020800500207C05002078050020CF
:10258000740500200123214A1168194200D113600B
:102590001F4A1168194200D1136001231D4A1168B6
:1025A000194200D113601C4A1168194200D113600E
:1025B00001231A4A1168194200D11360184A1168A0
:1025C000194200D113600123164A1168194200D143
:1025D0001360154A1168194200D113600123134A90
:1025E0001168194200D11360114A1168194200D1D3
:1025F000136001230F4A1168194200D113600E4A7B
:102600001168194200D113607047C046C005002010
:10261000BC050020B8050020B4050020B00500204E
:10262000AC050020A8050020A4050020A00500207E
:102630009C050020980500209405002000224308F6
:102640008B4274D303098B425FD3030A8B4244D37A
:10265000030B8B4228D3030C8B420DD3FF220902BC
:1026600012BA030C8B4202D31212090265D0030B7B
:102670008B4219D300E0090AC30B8B4201D3CB0371
:10268000C01A5241830B8B4201D38B03C01A5241B3
:10269000430B8B4201D34B03C01A5241030B8B42B5
:1026A00001D30B03C01A5241C30A8B4201D3CB02A0
:1026B000C01A5241830A8B4201D38B02C01A524185
:1026C000430A8B4201D34B02C01A5241030A8B4288
:1026D00001D30B02C01A5241CDD2C3098B4201D3A0
:1026E000CB01C01A524183098B4201D38B01C01A1E
:1026F000524143098B4201D34B01C01A5241030995
:102700008B4201D30B01C01A5241C3088B4201D343
:10271000CB00C01A524183088B4201D38B00C01AF0
:10272000524143088B4201D34B00C01A5241411A17
:1027300000D20146524110467047FFE701B5002024
:1027400000F006F802BDC0460029F7D076E77047D2
:102750007047C046F0B5C6464E024702760A7B0A6D
:102760004400C50FF7004800984600B5240E2A0023
:10277000DB00000EC90FBC468D4267D0221A002A2A
:1027800000DCA5E000283AD1002F00D193E0511ED3
:10279000002900D0BCE00124DB1B5A0146D59B0177
:1027A0009E09300000F036FC05388640844200DD8A
:1027B0009DE0041B320020200134E240041BA640AF
:1027C00033005E1EB341002413435A0704D00F2286
:1027D0001A40042A00D004335A0129D50134FF2CB1
:1027E00000D181E02A009B015B0AE4B25B02E405B0
:1027F000580AD2072043104304BC9046F0BDFF2C7A
:10280000E3D080213800C904084384461B2A00DD38
:1028100082E020206146D140821A6046904002004A
:10282000501E82410A439B1A5A01B8D45A07CED18E
:10283000DE082A00FF2C3AD1002E00D1AEE0802322
:10284000DB0333435B025B0AFF24CFE7211A002935
:1028500052DD002831D0FF2CB7D080203E00C004CC
:102860000643B4461B2900DDAAE020266046C84086
:10287000711A66468E4031004E1EB14101435B180D
:102880005901D3D50134FF2C00D187E001227849CA
:102890001A405B080B40134397E7002C00D0A7E0D9
:1028A000002B00D0B6E03B1E62D10026002273024E
:1028B0005B0AE4B29AE7140087E7002F4DD0481E68
:1028C000002857D1634401245A01AFD50224DDE723
:1028D000002A24D1621CD2B2012ADEDDDE1B720185
:1028E00035D5FE1A0D005CE72A0000237EE7330091
:1028F000604A241A134068E7002963D1611CC8B2FA
:1029000001284EDDFF2949D063445B080C005CE7D9
:10291000FF2A41D00A0079E701229B1A84E7002CA4
:102920001DD0FF2822D08024E404524223431B2AD6
:1029300000DD8AE01C002025D440AA1A93405A1ECC
:102940009341234362460400D31A0D0025E7002E6D
:1029500000D026E700220024A9E70C0035E7002B71
:102960004DD0D243002AEDD0FF28E0D16346FF24AA
:102970000D002AE7FF290FD0010073E7002B61D07B
:10298000FF24002F00D120E780224146D2031142CC
:1029900002D0164200D13B00FF2416E7FF2400239B
:1029A00024E7002CEAD1002B58D0002F00D10CE7EF
:1029B00063445A0100D439E72E4A0C00134004E75F
:1029C00001215CE7002C1ED1002B40D0C943002917
:1029D0000BD0FF2836D01B2947DC1C002026CC401A
:1029E000711A8B40591E8B4123436344040047E70F
:1029F000002B18D13B1E2DD00D00FF24E5E63B0037
:102A000004000D00E1E6FF281CD08024E4044942C4
:102A10002343E0E7002F00D1D7E6DE1B72011FD56C
:102A2000FB1A0D00D1E6FF24002F00D1CDE6802255
:102A30004046D2031042AFD01642ADD13B000D004C
:102A4000FF24C2E66346FF24BFE601237AE73B008A
:102A50000400BAE680260022F603F0E63B00B4E666
:102A6000331E00D0E2E6002221E70123BDE7C04685
:102A7000FFFFFF7DFFFFFFFBF0B557464E46DE46EA
:102A80004546E0B544024300C60F83B00F1C640AFC
:102A90001B0EB24653D0FF2B27D08022E400D20475
:102AA00014437F22524290469844002399469B4605
:102AB0007D027800FB0F6D0A000E009324D0FF28E2
:102AC00046D080230021ED00DB041D437F384746BC
:102AD000381A4F460F43BF00B9463300009A874F5C
:102AE00053404A46BA5801939746002C4ED10823CA
:102AF0009946F7339846FD3B9B467D027800FB0FD5
:102B00006D0A000E0093DAD1002D26D1002001219C
:102B10003300009A7A4F53404246101A4A460A43FD
:102B20009200BA581D009746009B2C009A468B468F
:102B30005B46022B31D15346FF21002438E0002CA4
:102B400017D1042399460023984601339B46AFE7EB
:102B5000FF20002D0BD10221DAE7280000F05AFAFD
:102B6000431F9D4076235B42181A0021AFE70321E3
:102B7000ADE7200000F04EFA431F9C4076235B42F5
:102B80001B1A9846002399469B4691E70C239946C9
:102B9000F3339846FC3B9B468AE7032B00D1A5E024
:102BA0005546012B00D081E00123002100242B4059
:102BB0006402C905600ADB070843184303B03CBC44
:102BC00090469946A246AB46F0BD80240023E4031C
:102BD000FF21EDE7FF210024EAE70123591A1B2911
:102BE00066DD019A134000210024E1E78023DB0326
:102BF0001C4238D01D4251D01C436402640A330089
:102C0000FF21D5E763016C01A3423BD21B260021C3
:102C1000013801251F0049005B00002F01DB9C42A9
:102C200001D81B1B2943013E002EF3D11C00631E5B
:102C30009C410C4301007F310029CEDD630704D0A5
:102C40000F232340042B00D00434230103D50100BB
:102C50002C4B80311C40FE290DDD0123019AFF2100
:102C600013400024A4E78023DB031C436402640AAE
:102C70003300FF219CE70123019AA401640AC9B231
:102C8000134095E71B1B1A260121C2E7009B8B46C8
:102C90009A4600244CE76302E5D500258024E4032E
:102CA0002C436402640A009BFF2181E70195C1E780
:102CB00023002020CB40411A8C40611E8C411C43D4
:102CC000630704D00F232340042B00D00434630196
:102CD00005D50123019A01211340002468E701234F
:102CE000019AA401640A1340002161E78023DB03F9
:102CF0001C436402640A5346FF2159E7883A0000E6
:102D0000C83A0000FFFFFFF7F8B557464E46454664
:102D1000DE46E0B54702460088467F0A360EC40FFD
:102D2000002E47D0FF2E24D0FB008027FF041F4336
:102D3000002399469A467F3E43465D025800DB0FCA
:102D40006D0A000E984643D0FF283BD0EB0080254B
:102D50000022ED041D437F383618731C41469B4604
:102D60004B46614013430F2B64D875489B00C358F2
:102D70009F46002F42D108239946063BFF269A46DC
:102D8000DAE74146022A28D0032A00D1CEE0012A00
:102D900000D0ACE0114000200022CCB24002D205AD
:102DA000400AE407104320433CBC90469946A246A3
:102DB000AB46F8BD002F15D104239946033B0026EE
:102DC0009A46B9E7FF200222002DC5D00322C3E7AF
:102DD000002D19D100200122BEE70124FF220C4062
:102DE0000020DBE7380000F015F97626431F9F40EE
:102DF00000237642361A99469A469DE70C23994657
:102E0000093BFF269A4697E7280000F003F9431F85
:102E10009D4076235B42181A00229DE78020002403
:102E2000C003FF22BAE73D005246ABE73D00210058
:102E30005246A7E73B0C9C462A04120C2B0C1400AC
:102E4000604665463F043F0C7C4342435D437B4301
:102E5000270C9B18FF18BA4203D980235B029C46BB
:102E6000654424043A04240C121993015C1EA34106
:102E70003F0C920E7D191A43AD0115432B0104D569
:102E800001235E466A081D40154332007F32002A46
:102E900025DD6B0704D00F232B40042B00D0043515
:102EA0002B0103D53200274B80321D40FE2A94DCD3
:102EB0000124A801400AD2B20C406FE78020C00371
:102EC000074207D0054205D128434002400A444644
:102ED000FF2263E738434002400AFF225EE70124F5
:102EE000A31A1B2B05DD0C400022002056E75E468E
:102EF000CBE72A002020DA40C31A9D402B005D1E3C
:102F0000AB4113435A0704D00F221A40042A00D0C1
:102F100004335A0104D5012401220C4000203DE76E
:102F200001249B01580A0C40002237E7802001242D
:102F3000C00328434002400A0C40FF222EE7C0464F
:102F4000083B0000FFFFFFF741024300C20F490AA0
:102F50001B0E00207E2B0DDD9D2B0CDC8020000441
:102F60000143952B0ADC9620C31AD9404842002A17
:102F700000D108007047034BD018FBE7963B9940FF
:102F8000F4E7C046FFFFFF7F10B5041E27D000F016
:102F900041F89E231B1A962B0ADC9622D21A9440E3
:102FA0006402640ADBB26402DB05600A184310BDE8
:102FB000992B17DC9922D21A002A27DD944022008F
:102FC000134C1440510704D00F210A40042A00D0AA
:102FD0000434620112D4A401640ADBB2E3E70023E3
:102FE0000024E0E7B9222100D21A91400A00511EC4
:102FF0008A410521091ACC401443DBE7044B1C40ED
:103000009F23A4011B1A640ADBB2CCE72200D7E796
:10301000FFFFFFFB1C2101231B04984201D3000C7E
:1030200010391B0A984201D3000A08391B0998423B
:1030300001D30009043902A2105C40187047C04651
:103040000403020201010101000000000000000071
:1030500010B5062000F064F8012000F091F800009F
:1030600070B500260C4D0D4C641BA410A64209D16E
:10307000002600F099FD0A4D0A4C641BA410A642DC
:1030800005D170BDB300EB5898470136EEE7B300A9
:10309000EB5898470136F2E7B43B0000B43B000020
:1030A000B43B0000D03B0000002310B59A4200D191
:1030B00010BDCC5CC4540133F8E70300821893427E
:1030C00000D1704719700133F9E770B504000D00A5
:1030D0001F2904D9162303600120404270BD436CB0
:1030E000002B04D08A009B181A68002A08D12000FF
:1030F00000F032F82A000100200000F01BF8EDE794
:103100000020012AEAD0511C03D11623013023608C
:10311000E4E7002428001C6090472000DEE7000060
:1031200010B5034B01001868FFF7CFFF10BDC04674
:1031300004000020002370B5064C050008001100B3
:10314000236000F015F8431C03D12368002B00D046
:103150002B6070BDC405002010B500F001F810BD53
:1031600058220120014B40421A607047C4050020DC
:1031700058220120014B40421A607047C4050020CC
:10318000FEE7C0460201080704050306010000002F
:1031900008000000400000000002000000000100E4
:1031A0000000080002000000100000008000000085
:1031B00000040000000002000000400004000000C5
:1031C00020000000000100000008000000000400D2
:1031D0000000800000000001FA0000000000000074
:1031E00000000000000000000000000000000000DF
:1031F000780084008A008D00910095009A009E005E
:10320000A300A800AE00B400BA00C100C800CF00FF
:10321000D700DF00E800F200FC00070112011E01E8
:103220002B01390147015701670178018B019E018C
:10323000B301C901E101FA01140231024F026E0229
:103240009002B402DA0203032E035B038C03BF0374
:10325000F60330046E04B00400000000000000001B
:103260000000000000000000020000000800000054
:1032700010000000120000001400000020000000F8
:103280002C00000032000000E4380000ABAA00006F
:103290008EE30000ABAA0000E4380000000000004C
:1032A00055550000398E0000ABAA0000398E000091
:1032B00055550000E4380000C7710000398E000049
:1032C000398E0000C77100005555000055550000AB
:1032D000C771000000000000AB2A00005555000037
:1032E00000800000ABAA000055D5000000000000DF
:1032F000AB2A00005555000000800000ABAA00007A
:1033000055D500005515000000400000AB6A0000D4
:103310005595000000C00000ABEA0000000000006E
:10332000000000000A000000E9140000ED14000095
:1033300003000000960000008120000085200000AE
:1033400004000000C8000000CD1F0000D11F0000D5
:103350000500000096000000C91A0000CD1A000008
:1033600006000000C8000000051B0000091B00004B
:10337000070000002C0100009D1D0000C91D000079
:10338000080000002C010000C51B0000F11B00001C
:10339000010000002C01000071170000A1170000BF
:1033A000020000002C010000ED210000212200009D
:1033B000000000000000000000000000000000000D
:1033C000000001000000010000000100CDCC000061
:1033D0009A9900000080000066660000CD4C000055
:1033E000CD4C000033330000333300009A19000045
:1033F0009A1900009A190000000000000000000067
:1034000000000000000000000000000000000000BC
:1034100000000000000000000000000000000000AC
:10342000000000000000000000000000000000009C
:10343000000000000000000000000000000000008C
:10344000000000000000000000000000000000007C
:10345000000000000000000000000000000000006C
:10346000000000000000000000000000000000005C
:10347000000000000000000000000000000000004C
:10348000000000000000000000000000000000003C
:10349000000000000000000000000000000000002C
:1034A0000080000033B300009A99000066660000B7
:1034B000008000006666000033B300009A990000A7
:1034C000008000009A9900000080000066660000FD
:1034D00033B30000666600009A9900000080000087
:1034E000000001003333000033330000008000008F
:1034F000008000000080000000000100008000004B
:10350000008000000080000000800000CD4C000022
:1035100000800000008000000080000066E60000DF
:10352000008000000080000000800000008000009B
:1035300000800000CD4C000000800000CD4C000059
:10354000008000000080000000000100CDCC0000E1
:1035500033B300009A99000000800000CD4C0000B9
:1035600033330000CD4C000000400000CD4C000083
:1035700033330000CD4C0000008000009A99000019
:1035800033B30000CDCC000000800000CDCC0000A3
:10359000CDCC0000CDCC0000CDCC000000800000E0
:1035A000CD4C00000000000000000000CD4C0000E9
:1035B000CD4C000000000000333300003333000026
:1035C000000000000000000000000000CD4C0000E2
:1035D000CD4C0000CD4C00000000000000000000B9
:1035E000333300003333000000000000000000000F
:1035F00000000000000000000000000000000000CB
:103600006666000066660000666600000000000056
:10361000CD4C000000800000008000000080000011
:10362000CD4C00000000000000000000333300001B
:103630003333000000000000000000000000000024
:10364000000000000000000000000000000000007A
:1036500000000000CD4C0000CD4C0000CD4C00001F
:10366000000000000000000033330000333300008E
:10367000000000000000000000800000008000004A
:1036800000000000CD4C0000997A0000FC690000A9
:103690007523000041F2000054C400005F9900004F
:1036A0008E360000F51A0000B23D00001B5F0000DE
:1036B000149E00005C7F000060E50000285F0000B1
:1036C000EEFB0000546300008689000049DE000024
:1036D00079490000AEC60000CDFB00007E3D000031
:1036E00059F6000074D50000048600004CA70000C5
:1036F00005340000DCC60000648D0000C5BE00007B
:10370000234B000025E60000BE110000E55000003C
:10371000C7EA0000F6280000E71D0000485100003D
:10372000A0CA0000A08A0000B1210000B93C00003E
:1037300042BE000052E80000716C0000E47400001A
:1037400036AD0000519B000098AD0000DB09000081
:1037500042CF00000A6700007CF20000575B0000C7
:10376000152D0000B2ED000095E500006676000022
:10377000AE3700002B1700006F210000F10300009E
:10378000B2BE00008FB30000B82E000066F6000045
:10379000210F0000A2B50000984C0000DAAB000039
:1037A00062C10000A7C9000098DD0000E9680000C0
:1037B0006C190000ED5D00009A97000041020000C6
:1037C000970F0000AF350000AEF700007EBD00008F
:1037D000F3AF0000CCFF000061C2000065190000DB
:1037E000B6C30000E2480000F59A000066770000CA
:1037F00067050000356E0000F56B0000449900007D
:103800005CAF0000143F000015DC0000AAB100000E
:10381000341100007C110000B7C20000FB8B0000D7
:1038200068210000869900004FEF0000342100005D
:10383000E6FF00007D2E0000B0A2000066C7000079
:10384000ECBF0000390600003954000015FC0000F0
:10385000EC610000FFF10000E1EB0000B782000026
:10386000677400001BBD0000923C00005976000008
:10387000CC2D0000F7240000BA4B0000D1710000ED
:1038800042CE00004C170000144E000027D200006A
:103890009AD900002F7D00005D4E00007F0B0000D4
:1038A000BF4D0000CEB800000308000077BE000046
:1038B00064EC000098BC0000DCA700002E30000083
:1038C000468600007D400000866800002D43000011
:1038D000DAFC00004ACC000055D000005D6C00000E
:1038E0001902000033D40000302A0000D5E900009E
:1038F000A11800003C0E000010FA000056AD0000B8
:1039000070EF00007F4B00001F040000C81800008B
:10391000C8D70000957400007F9900002D020000B8
:10392000DBA90000A64B00000C3200009D810000C6
:10393000024A0000ECC10000077F00005EBB0000EF
:10394000B4580000F99F0000C383000018B60000BF
:10395000EB23000096C30000BEBF0000D5A7000007
:10396000EB02000059470000E77B000086080000DA
:10397000E3770000784B0000C02C00003D4A0000B7
:103980002BB60000375A0000DE230000AF440000D1
:1039900074F6000063CE00002E0000006EB300003D
:1039A000F4BD00005299000009BA00000C2200008A
:1039B00044890000A4B00000DFCF000062F00000E6
:1039C000AE880000775E0000835000002061000098
:1039D000F0B7000024D700008F1200008A1F0000FB
:1039E0000E6F0000B4390000CC9D0000DEB3000073
:1039F000B25D0000D6F50000293B0000DBF90000B5
:103A0000815500005EAA00006C680000FACD00003D
:103A100045180000FEB5000051CA0000D8B00000F3
:103A2000A09A000061920000E9780000F9C000004F
:103A300077BE00009EBF0000A60B0000A9F40000A6
:103A40003F9500004B4A00001C8C0000E06C000019
:103A5000022A0000AAA0000050BD0000F5FB0000F3
:103A60004850000085DC00005B520000771E00001B
:103A70002E9000005B330000A5BD00000A18000076
:103A8000B96C00003A620000042C0000D42B000046
:103A9000E62B0000282B0000E62B0000CA2B0000BC
:103AA000E62B0000282B0000D42B0000D42B0000B4
:103AB000CA2B0000282B0000302B0000302B000008
:103AC000302B0000EC2B0000D42B0000D42B000086
:103AD000A82B00008C2C0000A82B0000CA2B000093
:103AE000A82B00008C2C0000D42B0000D42B00004D
:103AF000CA2B00008C2C0000302B0000302B000063
:103B0000302B0000962C0000342E0000842D000085
:103B1000842D0000822D0000262E0000262E00009D
:103B20001C2E0000822D0000262E00001C2E0000FE
:103B3000262E0000822D00002C2E00002C2E0000CE
:103B40002C2E0000BC2E0000000000000000000031
:103B50000000000000000000000000000000000065
:103B60000000000000000000000000000000000055
:103B70000000000000000000000000000000000045
:103B80000000000000000000000000000000000035
:103B90000000000000000000000000000000000025
:103BA0000000000000000000F8B5C046F8BC08BCEA
:103BB0009E467047CD000000E10E0000E1130000BA
:103BC000D52300008D240000092500008525000074
:103BD000F8B5C046F8BC08BC9E467047A50000007A
:103BE00040420F000800002000000000683B000079
:103BF000883B0000483B000000000000000000007F
:103C000000000000000000000000000000000000B4
:103C100000000000000000000000000000000000A4
:103C20000000000000000000000000000000000094
:103C30000000000000000000000000000000000084
:083C400000000000000000007C
:00000001FF
