:10000000C8150020090100000501000005010000DD
:1000100000000000000000000000000000000000E0
:1000200000000000000000000000000005010000CA
:10003000000000000000000005010000A50D000008
:100040000501000005010000050100000501000098
:100050004905000005010000050100000501000040
:10006000050100000501000005010000000000007E
:100070000000000025080000050100000501000047
:10008000550500000501000005010000000000000A
:10009000000000000501000005010000050100004E
:1000A0000501000010B5064C2378002B07D1054B45
:1000B000002B02D0044800E000BF0123237010BDD4
:1000C00068000020000000004C370000084B10B50D
:1000D000002B03D00749084800E000BF0748036829
:1000E000002B00D110BD064B002BFBD09847F9E741
:1000F000000000006C0000204C3700004C3700006E
:1001000000000000FEE7000010B51A4A1A4B9A42A0
:1001100011D01A00194B9A420DD2194A03339B1A77
:100120009B0801339B000022134812498C588450CD
:1001300004329A42FAD1134A134B9A420AD2D34359
:1001400011495B1803218B4304339B18002102C221
:100150009342FCD10D4AFF210D4B8B4393600D4A16
:1001600053687F390B4353600B4B98470B4B9847B1
:10017000FEE7C0464C370000000000206800002069
:100180000400002068000020C805002000ED00E009
:100190000000000000400041DD2C00002D0F000099
:1001A000014A024B1A60704740420F0000000020D5
:1001B00070B5134B9847134B9847134B9847134B05
:1001C0009847134B9847134B98470020124B98477A
:1001D00006210020114B9847114B1870114B185CE9
:1001E0005021114B9847114C114DA047012801D1C6
:1001F000A847FAE70F4B9847094B586070BDC046B7
:10020000D90C0000F50C0000B1050000F10200005F
:100210003914000001110000C5120000850D000016
:1002200084000020002E0000151300007113000050
:1002300095120000590D0000F8B5CE46474680B52E
:10024000144F154E154D09E0144B98461870144B79
:10025000185C5021134B984743465C60B847B04741
:1002600004006B68C31A104A9342F7D90621002094
:100270000E4B9847094B1B788342E5D10B4B9946AF
:10028000064B984606210020C84743461B78834208
:10029000F8D0D9E795120000590D00008400002025
:1002A000002E0000151300001F4E0000850D0000F9
:1002B00072B60D4B1A68802109020A431A6059610F
:1002C00000214F2299541A6808490A401A60802276
:1002D00092045A613C215A5C0F2082435A543539AA
:1002E0005922995462B6704700440041FFFFFFFD58
:1002F00010B54B4B98474B4A936940210B43936190
:10030000494A4A4B5A801A005378DB09FCD1484AC3
:10031000137801210B4313701378DB07FCD4537857
:10032000DB09F9D1424AD169B0231B040B43D361E5
:100330005378DB09FCD13E4B3E4A1A618022920180
:10034000DA601A005378DB09FCD1394A13780221AC
:100350000B4313705378DB09FCD1374A10218133EA
:10036000FF33D150C12080001358FF24A3433F3CEA
:100370002343135011602B4A116A80231B010B4346
:1003800013622E4A294B5A801A005378DB09FCD19C
:10039000A022D2002A4B1A801A00D37BDB09FCD1A1
:1003A000274B5A7904210A435A7110225A83F13299
:1003B000FF321A835A7B01210A435A731A00D37BF6
:1003C000DB09FCD11E4A138802210B431380D37B27
:1003D000DB09FCD1184A802149028133FF33D15017
:1003E000C42080001358FF24A3433F3C23431350F1
:1003F00011600C4A116A8023DB000B431362A022B8
:10040000D200104B1A801A00D37BDB09FCD10D4AB5
:10041000138802210B431380D37BDB09FCD110BD71
:10042000B10200000004004003400000000C004046
:1004300000180040FFFF000000E100E01440000051
:10044000002C004200280042054A064B5A801A0040
:10045000D37BDB09FCD1034B188A80B27047C046BE
:100460001080FFFF0028004210B5304A1169802338
:100470009B010B4313612E4B1B6A9B011ED42D4B1A
:1004800098472D4B1B8AC01A80B20300C23BFF3B2A
:100490009BB27E2B17D9294BC3189BB27E2B1AD93E
:1004A000274BC3189BB27E2B2AD8234B1B7E202BB5
:1004B0001CD0214B00221A765A6103E01D4B98474D
:1004C0001D4B188210BD1C4B5A6952085A611A7E86
:1004D00001321A76F6E7184B5A6951088022120643
:1004E0000A435A611A7E01321A76EBE7124B5A69B7
:1004F0005A60DB68002BDCD00F4A50689847D8E779
:10050000104B9C46604480B27E2809D80A4B9B68F9
:10051000002B00D09847084B00221A765A61D1E789
:10052000054B00221A765A61CCE7C04600180040FD
:1005300000440041490400008C0000203FFCFFFF04
:100540003FFAFFFF3FF8FFFF10B5014B984710BD82
:1005500069040000024A937B01210B4393737047A7
:10056000002C0042F0B5C6460F4B104F9846431C76
:10057000FF333E0000249C4600B54C3662463B00EB
:10058000002511780132A14201DD19680D430433C1
:10059000B342F6D14246A300AA430134C250402CD4
:1005A000ECD104BC9046F0BDFF0FCF01082E000037
:1005B00010B5254C8A22920000212000234B984739
:1005C0002000234B9847234B1A6823490A431A609B
:1005D0009961224A116A80235B000B431362204A0F
:1005E000204B5A801A005378DB09FCD1C8229200B4
:1005F0001D4B1A801A00D37BDB09FCD17822FF3215
:10060000194B1A831A00D37BDB09FCD1164A537BA2
:1006100001210B435373D37BDB09FCD1134BC32064
:1006200080001A58124911408022D2010A431A5000
:10063000802292011A600C4A138802210B43138016
:10064000D37BDB09FCD110BDA8000020372D0000B2
:100650006505000000440041FF0FCF010004004089
:1006600013400000000C00400020004200E100E0C8
:10067000FF00FFFF0200402900DD4021282307483A
:10068000C35C012058408A235B005843044B181870
:1006900080180130FF3001707047C046A80200206A
:1006A000A800002070B51C4D2823EC5C273B5C4063
:1006B0001433FF3363431948C018194B98472C2350
:1006C000EB5C5B0705D114482C210722435C1342E5
:1006D000FCD011482C210722435C1342FCD10E4967
:1006E00028228C548B5C895C0C4A012043401430D6
:1006F000FF3043430133FF33D31841430131FF310E
:10070000521813CA13C3190013680B6093888B80A7
:1007100093798B7170BDC046A8020020A80000200C
:1007200065050000374AF0B5464690464F46D64626
:1007300030234146C0B54C26C95C334B4D005B1994
:100740009F5B28204346314C314D2200185C2E69B6
:10075000304BC0B227831E40D37BDB09FCD100297C
:1007600032D18A22520042432B4D294B5159AC18A9
:1007700031431961616831431961C046C046C046C2
:10078000264FA1683C0031439A461961244B0C3234
:1007900000209946AD185C347C3700E001CCC84796
:1007A000524608CD33431361BC42F7D130230C22AB
:1007B0004146CA540121154A937B0B4393731CBCD9
:1007C00090469946A246F0BD0201121892001218F6
:1007D000521811489200105801310D4A0643C9B20F
:1007E00016613F2909DD2C21424644463020525CE7
:1007F00023540132D3B26354DCE730234246D15450
:10080000D8E7C046A8020020082E000000200042C1
:100810000044004100F030FEA8000020882E0000B7
:10082000310D000010B5014B984710BD25070000A1
:1008300030B504140B140004000C0904090C0A0060
:10084000624305005D4352194143634310141B1872
:10085000120452188A42894149425B18D817D913A9
:1008600088420BD10749511841188A42924152429D
:100870009B1A1804090C0843013030BD8020000683
:10088000FBE7C0460080FFFF30B5002937D0C21714
:1008900083185340CA178C185440A3420DD98022A4
:1008A000520264005200A342FBD8002A2AD000253D
:1008B000002C05DB002B17D109E080225202F6E75D
:1008C000A34201D31B1B150064085208F2D1002279
:1008D000A3425241AD1841400BD4280030BD5B000B
:1008E0005208F4D0002BF2D0A342F8D315431B1BBF
:1008F000F5E780231B069D42EFD06D42EDE7802592
:100900002D06EAE780252D06E7E70B6803607047B0
:100910000B6812689B1A03607047000010B5040052
:1009200009680068024B98472060200010BDC0464F
:100930003108000010B50400136808681900024B64
:1009400098472060200010BD3108000010B5040059
:10095000136808681900024B98472060200010BDFA
:1009600089080000012300680A68904200DC002327
:10097000D8B27047012300680A68904200DB002368
:10098000D8B270470B6812689B180360704700006C
:1009900010B504004C220021014B9847200010BDE7
:1009A000372D0000F0B583B0070001900E004C22F7
:1009B0000021074B98473C004C37064D3100200082
:1009C000A8470434BC42F9D1019803B0F0BDC04639
:1009D000372D0000690F0000F0B5D646474680B5B8
:1009E00085B080460E004C2200211A4B9847002209
:1009F00002ABDA70B368002B2AD0019602ABDA1C86
:100A0000310003A8F368984703A94046124B984762
:100A10000124012002ABDD1C0F4B9A4680004044AC
:100A200007002C70B368002B12D02A00019903A88C
:100A3000F368984703A93800D0470134E4B2200096
:100A4000122CEBDD404605B00CBC90469A46F0BD3A
:100A5000024B9847372D0000690F00004920000025
:100A600070470000F8B505000024064F064E280028
:100A7000B84701002000B0470134E4B20435132C1C
:100A8000F5D1F8BDE10F000075060000F0B5CE46C7
:100A9000474680B58BB007000D000192110005A8F4
:100AA000184EB04705AB190004A8174CA04704AB7B
:100AB000190003A8154B9847019906A8B04706A945
:100AC00002A8A0473C004C37114E124B9946124BDE
:100AD000984603AA210008A8B04702AA290009A83D
:100AE000B04709AA08A907A8C84707A92000C04716
:100AF00004340435BC42ECD10BB00CBC9046994692
:100B0000F0BDC0460B090000590F00003110000075
:100B100051100000E90F0000690F0000F8B5040053
:100B20000D004C300600044F29002000B847043463
:100B30000435B442F8D1F8BD99100000F0B5CE46A6
:100B4000474680B583B004000D004C3006000C4BC6
:100B500099460C4B98460C4F2A00210001A8C84723
:100B600001A96846C04769462000B84704340435E7
:100B7000B442F1D103B00CBC90469946F0BDC046DA
:100B8000E90F0000710F0000690F000010B5024866
:100B9000024B984710BDC046204E0000310D0000AA
:100BA0003C4A53681E218B431C390B4353603A4A1D
:100BB000936906310B439361384A137801210B4343
:100BC00013701378DB0702D55378DB09F9D1344A67
:100BD000136A80218B431362304B324A9A60324A47
:100BE0005A601A005378DB09FCD18622D2012B4BC4
:100BF0005A801A005378DB09FCD1294A938C802152
:100C00008B439384D368DB06FCD5254BDA6A120C40
:100C10001204C02109010A43DA62DA6A92019209D8
:100C20008021C9040A43DA62DA6A2049114080222D
:100C300052020A43DA621A00D368DB06FCD5184A6E
:100C4000938C812189000B439384D368DB06FCD508
:100C5000134B9A6880210A439A609A6840390A4384
:100C60009A609A6830390A439A609A8C02210A4342
:100C70009A841A00D368DB06FCD5094A93681B06E0
:100C8000FCD593685B06F9D5054A9368DB06FCD56D
:100C90007047C0460040004100040040000C004086
:100CA000000800400340000003060100FFFF00FCB5
:100CB0000022074B9A601A005378DB09FCD1054AE1
:100CC000034B5A601A005378DB09FCD17047C046C9
:100CD000000C00400007030010B5034B9847034B7E
:100CE0009847034B984710BD8D0B0000A10B0000E7
:100CF000B10C00000B490C4B4B600C4A136A1B02F1
:100D00001B0AC02000060343136200238B600733D5
:100D10000B60136A1B021B0A802109060B43136236
:100D20007047C04610E000E07FBB000000ED00E02F
:100D300080B584B000AF78600023FB60FA687B6800
:100D40009A4204D2C046FB680133FB60F6E7C04616
:100D5000BD4604B080BD0000014B986E7047C04690
:100D60000C03002000B583B0009001916A4603494E
:100D70006846034B984780B203B000BD0C030020C7
:100D8000B50D000000B583B0009001916A4603499B
:100D90006846034B9847C0B203B000BD0C03002067
:100DA000B50D0000024A936E013393667047C0464A
:100DB0000C030020F0B5D6464F4680B585B00190B3
:100DC00000911500536812689E1A1B4B9E4215D85D
:100DD0000136310019481A4B984704004643194F11
:100DE0000098B8478642FBD92100154B98472B68DD
:100DF000C01805B00CBC91469A46F0BD0F4B9E4200
:100E000016D9330E9A46002399460F4F4B4602934C
:100E10005346039302AA00990198B8470406009824
:100E2000084B984720188642F0D38442EED8DEE77C
:100E30000098044B9847DAE7FEFFFF00FFFFFF0032
:100E4000B92200004D0E0000B50D000070B5020083
:100E5000436E0A214942591813D489008D589C00C9
:100E600014192068166E81198D420CD3281A801B24
:100E70000021116620600133172B0CD90023536623
:100E800070BD1831E9E780214904891B081A40190F
:100E900001211166EEE75366F2E70000F8B5DE4681
:100EA00057464E464546E0B5184D2F006037184C62
:100EB000184B9B46184B9A46184B9946184B984628
:100EC00008E0184B9C466644341B23021B0A08C5E5
:100ED000AF420DD014492000D84756464E43124920
:100EE0002000C84744464443A642EAD3341BECE7FB
:100EF000064BDA6D51424A411A6600225A663CBCE2
:100F000090469946A246AB46F8BDC0460C03002069
:100F100097D32D01C52300004E9C0000B92200008C
:100F2000B32F0000ABFFFF7FA4D1000010B5034B2F
:100F30009847034B9847034B9847C046A1010000D0
:100F4000B10100003902000010B50400014B9847C0
:100F5000200010BD0B09000010B50400014B98479C
:100F6000200010BD0B0900000B68036070470000F3
:100F700030B583B004000D000023009369462800BB
:100F80000D4B9847002804D000232360200003B0B5
:100F900030BD80235B02019301A92800074B9847CD
:100FA000002803D080235B022360EFE729002000A4
:100FB000034B9847EAE7C046750900006509000041
:100FC0000B09000010B582B004000B88019301A941
:100FD000024B9847200002B010BDC0460B0900002C
:100FE00000688012C0B2704710B582B0040001A83A
:100FF000044B984701A92000034B9847200002B0FA
:1010000010BDC046850900000B09000010B582B074
:10101000040001A8044B984701A92000034B9847FE
:10102000200002B010BDC046110900000B090000ED
:1010300010B582B004000A0080235B02019301A96D
:10104000024B9847200002B010BDC0460D100000B2
:1010500010B582B0040001A8044B984701A92000F4
:10106000034B9847200002B010BDC0463509000070
:101070000B09000010B582B0040001A8044B98478A
:1010800001A92000034B9847200002B010BDC046C4
:101090004D0900000B09000010B50400014B9847F2
:1010A000200010BD1D09000010B584B0040080238D
:1010B0009B02019301AA68460D4B984780235B026F
:1010C000029302A968460B4B984700280AD1802357
:1010D0009B0203936A4603A92000074B9847200010
:1010E00004B010BD69462000044B9847F7E7C0469E
:1010F00051100000750900000D1000000B090000E0
:1011000070B584B00A4C00252560002101A8094B68
:1011100098472600C43601A93000074B9847211D87
:101120003000064B9847064B1D6504B070BDC046A5
:10113000780300203D140000E5130000F5130000C3
:10114000F8030020F0B5ABB001902023444AD35CF3
:10115000002B22D1434C220008CA2100C43116A81A
:10116000414DA847236801332360C422A25893420B
:1011700002D300223B4B1A60019D16AC3B4E29AFB7
:1011800021002800B04704340435BC42F8D116A829
:10119000374B984701982BB0F0BD324C220008CA5B
:1011A0002100C43103A8304DA84732490B6D0A0015
:1011B00054321531FF3116A8A84723680133236044
:1011C000C422A258934202D30022264B1A60294A15
:1011D000136D013313658A2149005258934202D39B
:1011E0000022244B1A651E4C234D606AA847071C39
:1011F000A06AA847011C381C204B98478F21C905BD
:101200001F4B9847FC2189051E4B98471E4B98475A
:10121000299029AA16A903A81C4B9847636A013391
:101220006362A26A934210D2019D03AC0F4E16AFC7
:1012300021002800B04704340435BC42F8D116A878
:101240000B4CA04703A8A047A4E7D022094950317E
:1012500004480F4B984700212023014AD154E3E76B
:10126000F804002078030020FF130000490F00005D
:10127000610A0000F8030020052C0000F52600009C
:1012800085290000D1230000C52B00008D0A000035
:10129000252D000000B595B001A8064B984701A880
:1012A000054B9847054B984701A8054B984715B043
:1012B00000BDC04645110000650A0000A5060000FB
:1012C000610A0000F0B585B007000C4C002625002F
:1012D00040C528000A4B9847390001A8094B984798
:1012E000C43401A92000084B984729002000074B6F
:1012F00098472023064AD65405B0F0BD7803002055
:10130000291400003D140000E5130000F51300004F
:10131000F8040020F0B587B001900F000E4C0025B6
:1013200025652600543630000C4B9847019903A8D8
:101330000B4B98471534FF3403A92000094B9847FD
:1013400031002000084B9847084B5D629F620121E5
:101350002022995407B0F0BDF803002029140000A2
:101360003D140000E5130000F5130000F804002010
:101370002023014AD05C7047F804002070B5084C67
:10138000201D084EB0472000C430074DA847074C29
:1013900020005430B04720001530FF30A84770BD02
:1013A0007803002015140000C5130000F803002086
:1013B0007047000010B50400014B9847200010BD95
:1013C000910900000A230360024B4360024B8360D3
:1013D0007047C046B1130000B513000001604260C1
:1013E000836070470B6803604B6843608B68836061
:1013F0000800704710B543680800984710BD70B5E5
:10140000040010008D681A0001002000A847200089
:1014100070BD000010B50400C0220021014B9847A8
:10142000200010BD372D000010B5C0220021014B57
:10143000984710BD372D00007047000070B50400BC
:101440000B4803788B420AD010304368002BF8D148
:10145000084B094A0A212000084DA84705E0C36847
:10146000826841682000054DA847200070BDC04635
:101470009C2F00008514000081140000DD13000083
:101480007047000010B50400014B9847200010BDC4
:1014900091090000012A00D1016000207047012A53
:1014A00000D1016000207047012A03D0022A03D036
:1014B000002070470160FBE70028F9D00B6803604B
:1014C000F6E7000070B588B00400110002A8114DC5
:1014D000A84702A904A8A84780235B04079307AA8A
:1014E00004A901A80C4EB047019B190C89000B4BB5
:1014F000C91805A8A84780231B02039303AA05A9BE
:1015000006A8B04706A92000054B9847200008B060
:1015100070BDC0460B09000035090000F431000021
:10152000590F0000F0B58BB00500110002A8214C46
:10153000A04702A903A8A04780235B03099309AA37
:1015400003A968461C4B9847009B1C14A2B21B04BD
:101550001B0C019324D00F2A2AD0661CF6B28023DC
:101560005B02069301AA06A907A8144B9847144FDB
:101570002104890B791807AA08A80F4CA047B100CD
:10158000791801AA05A8A04705AA08A904A80D4B27
:10159000984704A928000C4B984728000BB0F0BDD1
:1015A0002404A40B0649091904A8024B9847F0E744
:1015B0000026D4E70B0900003509000011090000DE
:1015C0002C30000085090000590F0000F0B591B0E3
:1015D0000500147800228B5E1B04029396235B04A3
:1015E000039303AA02A90AA82D4B98472D4B0793F2
:1015F000A4002D49611807AA08A82C4CA04708A9E7
:1016000009A82B4B984709AA0AA901A8294B984772
:1016100001A904A8284B984704A905A8274B984777
:10162000E0239B030F930FAA05A902A8A047029BE2
:101630001C14A2B21B041B0C039325D0372A2CD0F8
:10164000671CFFB280235B020C9303AA0CA90DA8B0
:101650001B4B98471B4E40362104890B71180DAA6D
:101660000EA8124CA047B900711803AA0BA8A047F6
:101670000BAA0EA906A8144B984706A928000C4BE4
:101680009847280011B0F0BD2404A40B0D49403147
:10169000091906A8094B9847EFE70027D2E7C0468B
:1016A000751000009A190000042F00003509000091
:1016B000590F00000D100000C50F00000B090000BD
:1016C000110900002C30000085090000F8B5040065
:1016D00006004C36084D96218900C8204000A847D6
:1016E0000700411E89B20020A8472780608004348B
:1016F000B442F0D1F8BDC046650D000010B584B00D
:101700000400914212D014DB9B1A1B040193891A26
:101710000904029102AA01A903A80B4B984703A947
:1017200020000A4B9847200004B010BD002303603E
:10173000F9E75B1A1B040193511A0904029102AAEA
:1017400001A9014B9847EEE7751000003110000029
:1017500010B504008B68002B03D0CB68984720009D
:1017600010BD014B9847C04649200000F0B5DE4649
:1017700057464E464546E0B5BBB0050001900E0009
:101780009046524B2B93524B2A93524B984734001E
:101790004C239946B144504B9B46504F504B9A4670
:1017A0000CE00023638096218900C82040004D4B47
:1017B00098472080043404354C451AD02688638825
:1017C0003200002136A8D84736A902A8B84702A996
:1017D00034A8B84734AA28A935A8D04735A9280085
:1017E000414B9847638801339BB2B342D9DA638097
:1017F000E0E72A9B002B03D0032228A90800984782
:101800003A4B2F933A4B2E9315A8324B984715AD70
:1018100028AB9B46304B9A46304F314B99460BE0F4
:10182000002363808021890028202E4B9847208048
:10183000043404355D451AD02688638832000021BF
:1018400039A8D04739A902A8B84702A937A8B8478C
:1018500037AA2CA938A8C84738A92800224B98478E
:10186000638801339BB2B342DADA6380E0E72E9BF0
:10187000002B03D003222CA908009847434630933D
:101880001C4B33931C4B329330A902A81B4B984737
:1018900002A915A81A4B984702A81A4B9847329BE1
:1018A000002B03D0032230A90800984715A9019CFA
:1018B0002000154B984715A8124B984720003BB0C5
:1018C0003CBC90469946A246AB46F0BD25150000AB
:1018D0009514000091090000FD1600000B0900009E
:1018E00051170000650D0000690F0000C5140000CD
:1018F0009F140000CD150000A9140000D9090000B4
:101900001D0B0000610A00003D0B0000012A03D0FE
:10191000022A03D0002070470160FBE70028F9D0BD
:101920000B680360F6E70000F0B591B0050014788D
:1019300000228B5E1B04029396231B04039303AACD
:1019400002A90AA82C4B98472C4B0793A4002C49BA
:10195000611807AA08A82B4CA04708A909A82A4B78
:10196000984709AA0AA901A8284B984701A904A8E1
:10197000274B984704A905A8264B984780239B022C
:101980000F930FAA05A902A8A047029B1C14A2B29C
:101990001B041B0C039324D0012A2AD0661CF6B228
:1019A00080235B020C9303AA0CA90DA81A4B98473D
:1019B0001A4F2104890B79180DAA0EA8114CA047C3
:1019C000B100791803AA0BA8A0470BAA0EA906A874
:1019D000134B984706A928000B4B9847280011B0D5
:1019E000F0BD2404A40B0D49091906A8094B98471A
:1019F000F0E70026D4E7C04675100000333301003D
:101A0000042F000035090000590F00000D100000E0
:101A1000C50F00000B090000110900004C31000047
:101A2000850900007047000010B584B004000092E2
:101A3000084B0393084B02936946084B9847029B57
:101A4000002B03D00322694668469847200004B063
:101A500010BDC046291900000D190000D909000069
:101A6000012A00D1016000207047000070B58AB0E3
:101A70000400110002A8154DA84702A905A8A8470F
:101A800080235B04099309AA05A901A8104EB04759
:101A9000019B190C89000F4BC91806A8A847802381
:101AA0001B02049304AA06A907A8B0478023DB0100
:101AB000039303AA07A908A8074B984708A9200081
:101AC000064B984720000AB070BDC0460B090000C5
:101AD00035090000F431000085090000590F0000AD
:101AE000F8B5040005004C35074F802189000A2015
:101AF000B8470600411E89B20020B84726806080A2
:101B00000434AC42F1D1F8BD650D0000F0B5DE46FD
:101B100057464E464546E0B58BB082468846354B23
:101B20000593354B0493354B984700270025344BDC
:101B300099462CE00023089308E01B04009333042B
:101B4000019301AA694608A82D4B984708A901A846
:101B50002C4B9B469847BF00574401A906A8D8477D
:101B6000049B002B2CD0059B06AA02A907A8984726
:101B700007A93800244B9847638801339BB2B342CE
:101B800020DA63800135EDB22F00122D23DC6C00CA
:101B9000E4B2640044442688002ECBD06388002E33
:101BA000CBDC9B1B1B04009373421B04019301AA13
:101BB000694609A8C84709A908A8144B9847C5E76A
:101BC000134B984700236380802189000A20114B22
:101BD00098472080D6E7049B002B03D0032202A95C
:101BE0000800984750460BB03CBC90469946A24628
:101BF000AB46F0BD6D1A0000611A000091090000AB
:101C0000751000000B090000690F00003110000082
:101C100049200000650D0000012A00D1016000206C
:101C200070470000F0B58BB00500110002A8214CF0
:101C3000A04702A903A8A047C0235B03099309AAF0
:101C400003A968461C4B9847009B1C14A2B21B04B6
:101C50001B0C019324D0172A2AD0661CF6B28023CD
:101C60005B02069301AA06A907A8144B9847144FD4
:101C70002104890B791807AA08A80F4CA047B100C6
:101C8000791801AA05A8A04705AA08A904A80D4B20
:101C9000984704A928000C4B984728000BB0F0BDCA
:101CA0002404A40B0649091904A8024B9847F0E73D
:101CB0000026D4E70B0900003509000011090000D7
:101CC0005431000085090000590F0000F8B50400E8
:101CD00005004C35074FC8214900C820B847060009
:101CE000411E89B20020B847268060800434AC428F
:101CF000F1D1F8BD650D0000F0B5DE4657464E4601
:101D00004546E0B58BB082468846354B0593354B4A
:101D10000493354B984700270025344B99462CE017
:101D20000023089308E01B0400933304019301AAE5
:101D3000694608A82D4B984708A901A82C4B9B463B
:101D40009847BF00574401A906A8D847049B002B19
:101D50002CD0059B06AA02A907A8984707A9380016
:101D6000244B9847638801339BB2B34220DA6380E7
:101D70000135EDB22F00122D23DC6C00E4B26400BB
:101D800044442688002ECBD06388002ECBDC9B1BDE
:101D90001B04009373421B04019301AA694609A81E
:101DA000C84709A908A8144B9847C5E7134B98479B
:101DB00000236380C8214900C820114B9847208028
:101DC000D6E7049B002B03D0032202A90800984702
:101DD00050460BB03CBC90469946A246AB46F0BD7F
:101DE000251C0000191C000091090000751000005E
:101DF0000B090000690F00003110000049200000AD
:101E0000650D0000012A03D0022A03D0002070478C
:101E10000160FBE70028F9D00B680360F6E70000DB
:101E2000F0B58FB00500147800228B5E1B0401937F
:101E3000C8231B04029302AA01A908A82A4B9847A9
:101E4000A4002A49611806A8294CA04706A907A89A
:101E5000284B984707AA08A96846274B9847694620
:101E600003A8264B984703A904A8A04780235B0337
:101E70000D930DAA04A901A8214B9847019B1C149E
:101E8000A2B21B041B0C029324D00F2A2AD0661C7A
:101E9000F6B280235B020A9302AA0AA90BA8194B87
:101EA0009847194F2104890B79180BAA0CA8144CD8
:101EB000A047B100791802AA09A8A04709AA0CA94D
:101EC00005A8124B984705A928000A4B98472800F7
:101ED0000FB0F0BD2404A40B0B49091905A8044B4D
:101EE0009847F0E70026D4E775100000502F000057
:101EF0000B090000590F00000D100000C50F000075
:101F00003509000011090000B43100008509000006
:101F10007047000010B584B004000092084B039392
:101F2000084B02936946084B9847029B002B03D04D
:101F30000322694668469847200004B010BDC04699
:101F4000211E0000051E0000D9090000012A03D04F
:101F5000022A03D0002070470160FBE70028F9D077
:101F60000B680360F6E7000070B586B005001478D2
:101F700000228B5E1B04019396231B04029302AA8A
:101F800001A905A80D4EB0472404019498235B03D2
:101F9000029302AA01A904A8B04704AA05A902A8AD
:101FA000074B984702A903A8064B984703A92800A6
:101FB000054B9847280006B070BDC046751000005C
:101FC000E90F0000C50F0000A910000070470000D5
:101FD00010B584B004000092084B0393084B0293A1
:101FE0006946084B9847029B002B03D003226946A1
:101FF00068469847200004B010BDC046691F000025
:102000004D1F0000D90900007047000010B584B0D2
:10201000040012040092C8231B04019301AA69461C
:1020200003A8064B984703A902A8054B984702A9A5
:102030002000044B9847200004B010BD751000002C
:10204000A9100000A509000010B500F03FFE000037
:102050000123214A1168194200D113601F4A1168F7
:10206000194200D1136001231D4A1168194200D1A1
:1020700013601C4A1168194200D1136001231A4AE7
:102080001168194200D11360184A1168194200D131
:1020900013600123164A1168194200D11360154AD2
:1020A0001168194200D113600123134A11681942C3
:1020B00000D11360114A1168194200D11360012345
:1020C0000F4A1168194200D113600E4A1168194273
:1020D00000D113607047C046500500204C05002019
:1020E0004805002044050020400500203C05002054
:1020F0003805002034050020300500202C05002084
:1021000028050020240500200123164A11681942E1
:1021100000D11360144A1168194200D113600123E1
:10212000124A1168194200D11360114A116819420C
:1021300000D1136001230F4A1168194200D11360C6
:102140000D4A1168194200D1136001230B4A11682E
:10215000194200D113600A4A1168194200D1136074
:102160007047C046700500206C05002068050020FF
:1021700064050020600500205C0500205805002053
:10218000540500200123164A1168194200D113603A
:10219000144A1168194200D113600123124A1168D0
:1021A000194200D11360114A1168194200D113601D
:1021B00001230F4A1168194200D113600D4A1168BA
:1021C000194200D1136001230B4A1168194200D152
:1021D00013600A4A1168194200D113607047C04663
:1021E000900500208C050020880500208405002033
:1021F000800500207C050020780500207405002063
:102200000123214A1168194200D113601F4A116845
:10221000194200D1136001231D4A1168194200D1EF
:1022200013601C4A1168194200D1136001231A4A35
:102230001168194200D11360184A1168194200D17F
:1022400013600123164A1168194200D11360154A20
:102250001168194200D113600123134A1168194211
:1022600000D11360114A1168194200D11360012393
:102270000F4A1168194200D113600E4A11681942C1
:1022800000D113607047C046C0050020BC05002087
:10229000B8050020B4050020B0050020AC050020E2
:1022A000A8050020A4050020A00500209C05002012
:1022B0009805002094050020002243088B4274D327
:1022C00003098B425FD3030A8B4244D3030B8B4237
:1022D00028D3030C8B420DD3FF22090212BA030C40
:1022E0008B4202D31212090265D0030B8B4219D321
:1022F00000E0090AC30B8B4201D3CB03C01A524141
:10230000830B8B4201D38B03C01A5241430B8B4288
:1023100001D34B03C01A5241030B8B4201D30B0371
:10232000C01A5241C30A8B4201D3CB02C01A524198
:10233000830A8B4201D38B02C01A5241430A8B425B
:1023400001D34B02C01A5241030A8B4201D30B0244
:10235000C01A5241CDD2C3098B4201D3CB01C01A5E
:10236000524183098B4201D38B01C01A5241430968
:102370008B4201D34B01C01A524103098B4201D356
:102380000B01C01A5241C3088B4201D3CB00C01AC3
:10239000524183088B4201D38B00C01A524143083B
:1023A0008B4201D34B00C01A5241411A00D2014660
:1023B000524110467047FFE701B5002000F006F8D3
:1023C00002BDC0460029F7D076E770477047C04687
:1023D000F0B5C6464E024702760A7B0A4400C50F96
:1023E000F7004800984600B5240E2A00DB00000ED6
:1023F000C90FBC468D4267D0221A002A00DCA5E036
:1024000000283AD1002F00D193E0511E002900D0BE
:10241000BCE00124DB1B5A0146D59B019E0930001C
:1024200000F036FC05388640844200DD9DE0041B48
:10243000320020200134E240041BA64033005E1E1F
:10244000B341002413435A0704D00F221A40042A30
:1024500000D004335A0129D50134FF2C00D181E08A
:102460002A009B015B0AE4B25B02E405580AD2072A
:102470002043104304BC9046F0BDFF2CE3D08021E4
:102480003800C904084384461B2A00DD82E020206E
:102490006146D140821A604690400200501E82413F
:1024A0000A439B1A5A01B8D45A07CED1DE082A0033
:1024B000FF2C3AD1002E00D1AEE08023DB03334362
:1024C0005B025B0AFF24CFE7211A002952DD0028B6
:1024D00031D0FF2CB7D080203E00C0040643B44664
:1024E0001B2900DDAAE020266046C840711A664616
:1024F0008E4031004E1EB14101435B185901D3D5C6
:102500000134FF2C00D187E0012278491A405B0892
:102510000B40134397E7002C00D0A7E0002B00D01E
:10252000B6E03B1E62D10026002273025B0AE4B2D1
:102530009AE7140087E7002F4DD0481E002857D196
:10254000634401245A01AFD50224DDE7002A24D1D7
:10255000621CD2B2012ADEDDDE1B720135D5FE1A05
:102560000D005CE72A0000237EE73300604A241A4E
:10257000134068E7002963D1611CC8B201284EDD11
:10258000FF2949D063445B080C005CE7FF2A41D077
:102590000A0079E701229B1A84E7002C1DD0FF284E
:1025A00022D08024E404524223431B2A00DD8AE027
:1025B0001C002025D440AA1A93405A1E934123435D
:1025C00062460400D31A0D0025E7002E00D026E74E
:1025D00000220024A9E70C0035E7002B4DD0D243A0
:1025E000002AEDD0FF28E0D16346FF240D002AE742
:1025F000FF290FD0010073E7002B61D0FF24002FCB
:1026000000D120E780224146D203114202D0164277
:1026100000D13B00FF2416E7FF24002324E7002C11
:10262000EAD1002B58D0002F00D10CE763445A01A7
:1026300000D439E72E4A0C00134004E701215CE77F
:10264000002C1ED1002B40D0C94300290BD0FF28FD
:1026500036D01B2947DC1C002026CC40711A8B4049
:10266000591E8B4123436344040047E7002B18D1D4
:102670003B1E2DD00D00FF24E5E63B0004000D00BD
:10268000E1E6FF281CD08024E40449422343E0E72C
:10269000002F00D1D7E6DE1B72011FD5FB1A0D00FB
:1026A000D1E6FF24002F00D1CDE680224046D203A0
:1026B0001042AFD01642ADD13B000D00FF24C2E660
:1026C0006346FF24BFE601237AE73B000400BAE635
:1026D00080260022F603F0E63B00B4E6331E00D06D
:1026E000E2E6002221E70123BDE7C046FFFFFF7DB0
:1026F000FFFFFFFBF0B557464E46DE464546E0B5C8
:1027000044024300C60F83B00F1C640A1B0EB2467E
:1027100053D0FF2B27D08022E400D20414437F2221
:10272000524290469844002399469B467D02780089
:10273000FB0F6D0A000E009324D0FF2846D08023A3
:102740000021ED00DB041D437F384746381A4F4611
:102750000F43BF00B9463300009A874F53404A46A3
:10276000BA5801939746002C4ED108239946F73367
:102770009846FD3B9B467D027800FB0F6D0A000EDC
:102780000093DAD1002D26D1002001213300009AD8
:102790007A4F53404246101A4A460A439200BA58AA
:1027A0001D009746009B2C009A468B465B46022BE9
:1027B00031D15346FF21002438E0002C17D10423E7
:1027C00099460023984601339B46AFE7FF20002D32
:1027D0000BD10221DAE7280000F05AFA431F9D408E
:1027E00076235B42181A0021AFE70321ADE72000F2
:1027F00000F04EFA431F9C4076235B421B1A98461A
:10280000002399469B4691E70C239946F33398465B
:10281000FC3B9B468AE7032B00D1A5E05546012BE4
:1028200000D081E00123002100242B406402C9056F
:10283000600ADB070843184303B03CBC9046994646
:10284000A246AB46F0BD80240023E403FF21EDE760
:10285000FF210024EAE70123591A1B2966DD019AAA
:10286000134000210024E1E78023DB031C4238D021
:102870001D4251D01C436402640A3300FF21D5E796
:1028800063016C01A3423BD21B26002101380125C4
:102890001F0049005B00002F01DB9C4201D81B1B7D
:1028A0002943013E002EF3D11C00631E9C410C43C2
:1028B00001007F310029CEDD630704D00F232340C0
:1028C000042B00D00434230103D501002C4B8031AC
:1028D0001C40FE290DDD0123019AFF211340002435
:1028E000A4E78023DB031C436402640A3300FF2156
:1028F0009CE70123019AA401640AC9B2134095E739
:102900001B1B1A260121C2E7009B8B469A46002416
:102910004CE76302E5D500258024E4032C436402E0
:10292000640A009BFF2181E70195C1E72300202075
:10293000CB40411A8C40611E8C411C43630704D07C
:102940000F232340042B00D00434630105D5012359
:10295000019A01211340002468E70123019AA40190
:10296000640A1340002161E78023DB031C436402F7
:10297000640A5346FF2159E7F4350000343600005D
:10298000FFFFFFF7F8B557464E464546DE46E0B531
:102990004702460088467F0A360EC40F002E47D0F5
:1029A000FF2E24D0FB008027FF041F4300239946FD
:1029B0009A467F3E43465D025800DB0F6D0A000ECB
:1029C000984643D0FF283BD0EB0080250022ED0441
:1029D0001D437F383618731C41469B464B46614069
:1029E00013430F2B64D875489B00C3589F46002F94
:1029F00042D108239946063BFF269A46DAE741462C
:102A0000022A28D0032A00D1CEE0012A00D0ACE06F
:102A1000114000200022CCB24002D205400AE40757
:102A2000104320433CBC90469946A246AB46F8BDB5
:102A3000002F15D104239946033B00269A46B9E797
:102A4000FF200222002DC5D00322C3E7002D19D19B
:102A500000200122BEE70124FF220C400020DBE71A
:102A6000380000F015F97626431F9F400023764278
:102A7000361A99469A469DE70C239946093BFF264C
:102A80009A4697E7280000F003F9431F9D407623FC
:102A90005B42181A00229DE780200024C003FF2219
:102AA000BAE73D005246ABE73D0021005246A7E79A
:102AB0003B0C9C462A04120C2B0C14006046654605
:102AC0003F043F0C7C4342435D437B43270C9B18F0
:102AD000FF18BA4203D980235B029C466544240454
:102AE0003A04240C121993015C1EA3413F0C920E70
:102AF0007D191A43AD0115432B0104D501235E4610
:102B00006A081D40154332007F32002A25DD6B071D
:102B100004D00F232B40042B00D004352B0103D508
:102B20003200274B80321D40FE2A94DC0124A8018C
:102B3000400AD2B20C406FE78020C003074207D0A2
:102B4000054205D128434002400A4446FF2263E77C
:102B500038434002400AFF225EE70124A31A1B2BE0
:102B600005DD0C400022002056E75E46CBE72A0038
:102B70002020DA40C31A9D402B005D1EAB41134359
:102B80005A0704D00F221A40042A00D004335A01F5
:102B900004D5012401220C4000203DE701249B01C3
:102BA000580A0C40002237E780200124C003284344
:102BB0004002400A0C40FF222EE7C0467436000057
:102BC000FFFFFFF741024300C20F490A1B0E00201E
:102BD0007E2B0DDD9D2B0CDC802000040143952B0A
:102BE0000ADC9620C31AD9404842002A00D10800C6
:102BF0007047034BD018FBE7963B9940F4E7C0467B
:102C0000FFFFFF7F10B5041E27D000F041F89E2380
:102C10001B1A962B0ADC9622D21A94406402640A8C
:102C2000DBB26402DB05600A184310BD992B17DC88
:102C30009922D21A002A27DD94402200134C144016
:102C4000510704D00F210A40042A00D00434620145
:102C500012D4A401640ADBB2E3E700230024E0E716
:102C6000B9222100D21A91400A00511E8A41052141
:102C7000091ACC401443DBE7044B1C409F23A401FA
:102C80001B1A640ADBB2CCE72200D7E7FFFFFFFB89
:102C90001C2101231B04984201D3000C10391B0A8C
:102CA000984201D3000A08391B09984201D3000950
:102CB000043902A2105C40187047C04604030202A7
:102CC00001010101000000000000000010B5062015
:102CD00000F064F8012000F091F8000070B50026C3
:102CE0000C4D0D4C641BA410A64209D1002600F027
:102CF00011FD0A4D0A4C641BA410A64205D170BDFB
:102D0000B300EB5898470136EEE7B300EB5898470D
:102D10000136F2E72037000020370000203700009E
:102D20003C370000002310B59A4200D110BDCC5CA6
:102D3000C4540133F8E703008218934200D170476E
:102D400019700133F9E770B504000D001F2904D98B
:102D5000162303600120404270BD436C002B04D059
:102D60008A009B181A68002A08D1200000F032F867
:102D70002A000100200000F01BF8EDE70020012AE6
:102D8000EAD0511C03D1162301302360E4E700246C
:102D900028001C6090472000DEE7000010B5034BC0
:102DA00001001868FFF7CFFF10BDC04604000020E7
:102DB000002370B5064C050008001100236000F0E8
:102DC00015F8431C03D12368002B00D02B6070BD85
:102DD000C405002010B500F001F810BD58220120F4
:102DE000014B40421A607047C40500205822012060
:102DF000014B40421A607047C4050020FEE7C04600
:102E0000010706030402050001000000080000009D
:102E10004000000000020000000001000000080067
:102E2000020000001000000080000000000400000C
:102E3000000002000000400004000000200000002C
:102E400000010000000800000000040000008000F5
:102E500000000001FA000000000000000000000077
:102E60000000000000000000000000007800840066
:102E70008A008D00910095009A009E00A300A80092
:102E8000AE00B400BA00C100C800CF00D700DF0018
:102E9000E800F200FC00070112011E012B013901BC
:102EA00047015701670178018B019E01B301C901F8
:102EB000E101FA01140231024F026E029002B402E3
:102EC000DA0203032E035B038C03BF03F603300413
:102ED0006E04B004000000000000000000000000CC
:102EE00000000000020000000800000010000000C8
:102EF0001200000014000000200000002C00000060
:102F000032000000E4380000ABAA00008EE30000AD
:102F1000ABAA0000E4380000000000005555000096
:102F2000398E0000ABAA0000398E00005555000014
:102F3000E4380000C7710000398E0000398E0000AF
:102F4000C77100005555000055550000C7710000BD
:102F500000000000AB2A0000555500000080000072
:102F6000ABAA000055D5000000000000AB2A00000D
:102F70005555000000800000ABAA000055D50000A8
:102F80005515000000400000AB6A00005595000098
:102F900000C00000ABEA00000000000000000000DC
:102FA0000A000000811400008514000002000000E7
:102FB00096000000CD1F0000D11F0000030000009C
:102FC000C8000000111F0000151F000004000000D1
:102FD00096000000251A0000291A000005000000D4
:102FE000C8000000092000000D20000006000000BD
:102FF0002C010000CD1C0000F91C0000070000009F
:103000002C010000E11A00000D1B0000010000006F
:103010002C010000CD1600006D170000000000001C
:103020000000000000000000000000000080000020
:1030300033B300009A99000066660000008000002B
:103040006666000033B300009A990000008000001B
:103050009A990000008000006666000033B300000B
:10306000666600009A9900000080000000000100E0
:103070000000010000000100CDCC00009A99000082
:103080000080000066660000CD4C0000CD4C0000C2
:1030900033330000333300009A1900009A190000FE
:1030A0009A1900000000000000000000000000006D
:1030B0000000000000000000000000000000000010
:1030C0000000000000000000000000000000000000
:1030D00000000000000000000000000000000000F0
:1030E00000000000000000000000000000000000E0
:1030F00000000000000000000000000000000000D0
:1031000000000000000000000000000000000000BF
:1031100000000000000000000000000000000000AF
:10312000000000000000000000000000000000009F
:10313000000000000000000000000000000000008F
:10314000000000000000000000000000000001007E
:1031500033330000333300000080000000800000A3
:1031600000800000000001000080000000800000DE
:103170000080000000800000CD4C000000800000B6
:10318000008000000080000066E600000080000073
:10319000008000000080000000800000008000002F
:1031A000CD4C000000800000CD4C000000800000ED
:1031B0000080000000000100CDCC000033B300000F
:1031C0009A99000000800000CD4C000033330000CD
:1031D000CD4C000000400000CD4C00003333000017
:1031E000CD4C0000008000009A99000033B300002D
:1031F000CDCC0000997A0000FC6900007523000026
:1032000041F2000054C400005F9900008E360000B7
:10321000F51A0000B23D00001B5F0000149E000084
:103220005C7F000060E50000285F0000EEFB00000E
:10323000546300008689000049DE000079490000DF
:10324000AEC60000CDFB00007E3D000059F6000038
:1032500074D50000048600004CA70000053400006F
:10326000DCC60000648D0000C5BE0000234B0000DA
:1032700025E60000BE110000E5500000C7EA00008E
:10328000F6280000E71D000048510000A0CA000019
:10329000A08A0000B1210000B93C000042BE00003D
:1032A00052E80000716C0000E474000036AD0000CC
:1032B000519B000098AD0000DB09000042CF0000E8
:1032C0000A6700007CF20000575B0000152D00002B
:1032D000B2ED000095E5000066760000AE37000014
:1032E0002B1700006F210000F1030000B2BE0000A8
:1032F0008FB30000B82E000066F60000210F00001A
:10330000A2B50000984C0000DAAB000062C10000DA
:10331000A7C9000098DD0000E96800006C190000F2
:10332000ED5D00009A97000041020000970F000039
:10333000AF350000AEF700007EBD0000F3AF000027
:10334000CCFF000061C2000065190000B6C3000098
:10335000E2480000F59A000066770000670500006B
:10336000356E0000F56B0000449900005CAF000072
:10337000143F000015DC0000AAB100003411000069
:103380007C110000B7C20000FB8B00006821000028
:10339000869900004FEF000034210000E6FF000096
:1033A0007D2E0000B0A2000066C70000ECBF000048
:1033B000390600003954000015FC0000EC610000E3
:1033C000FFF10000E1EB0000B7820000677400002D
:1033D0001BBD0000923C000059760000CC2D00007F
:1033E000F7240000BA4B0000D171000042CE00006B
:1033F0004C170000144E000027D200009AD900009C
:103400002F7D00005D4E00007F0B0000BF4D0000CF
:10341000CEB800000308000077BE000064EC000096
:1034200098BC0000DCA700002E300000468600009B
:103430007D400000866800002D430000DAFC00009B
:103440004ACC000055D000005D6C0000190200005D
:1034500033D40000302A0000D5E90000A118000094
:103460003C0E000010FA000056AD000070EF0000A6
:103470007F4B00001F040000C8180000C8D70000E0
:10348000957400007F9900002D020000DBA9000068
:10349000A64B00000C3200009D810000024A000093
:1034A000ECC10000077F00005EBB0000B4580000C4
:1034B000F99F0000C383000018B60000EB23000052
:1034C00096C30000BEBF0000D5A70000EB020000BD
:1034D00059470000E77B000086080000E377000002
:1034E000784B0000C02C00003D4A00002BB60000C5
:1034F000375A0000DE230000AF44000074F60000DD
:1035000063CE00002E0000006EB30000F4BD00008A
:103510005299000009BA00000C2200004489000002
:10352000A4B00000DFCF000062F00000AE88000011
:10353000775E00008350000020610000F0B70000BB
:1035400024D700008F1200008A1F00000E6F0000B9
:10355000B4390000CC9D0000DEB30000B25D000075
:10356000D6F50000293B0000DBF900008155000082
:103570005EAA00006C680000FACD0000451800004B
:10358000FEB5000051CA0000D8B00000A09A0000AB
:1035900061920000E9780000F9C0000077BE0000E9
:1035A0009EBF0000A60B0000A9F400003F9500009C
:1035B0004B4A00001C8C0000E06C0000022A000056
:1035C000AAA0000050BD0000F5FB0000485000001C
:1035D00085DC00005B520000771E00002E9000008A
:1035E0005B330000A5BD00000A180000B96C0000A4
:1035F0003A62000080280000502800006228000085
:10360000A42700006228000046280000622800006D
:10361000A427000050280000502800004628000081
:10362000A4270000AC270000AC270000AC27000056
:1036300068280000502800005028000024280000BE
:103640000829000024280000462800002428000043
:1036500008290000502800005028000046280000DB
:1036600008290000AC270000AC270000AC270000B0
:1036700012290000B02A0000002A0000002A0000E1
:10368000FE290000A22A0000A22A0000982A0000B9
:10369000FE290000A22A0000982A0000A22A0000A9
:1036A000FE290000A82A0000A82A0000A82A00007D
:1036B000382B0000000000000000000000000000A7
:1036C00000000000000000000000000000000000FA
:1036D00000000000000000000000000000000000EA
:1036E00000000000000000000000000000000000DA
:1036F00000000000000000000000000000000000CA
:1037000000000000000000000000000000000000B9
:1037100000000000F8B5C046F8BC08BC9E467047E3
:10372000CD0000009D0E00007D1300005120000020
:10373000092100008521000001220000F8B5C046E3
:0C374000F8BC08BC9E467047A5000000C5
:10374C0040420F000800002000000000D4360000AA
:10375C00F4360000B4360000000000000000000049
:10376C00000000000000000000000000000000004D
:10377C00000000000000000000000000000000003D
:10378C00000000000000000000000000000000002D
:10379C00000000000000000000000000000000001D
:0837AC00000000000000000015
:00000001FF
